{
    "abi": [
        {
            "type": "constructor",
            "inputs": [],
            "stateMutability": "nonpayable"
        },
        {
            "type": "function",
            "name": "MIN_CLIENTS",
            "inputs": [],
            "outputs": [
                {
                    "name": "",
                    "type": "uint256",
                    "internalType": "uint256"
                }
            ],
            "stateMutability": "view"
        },
        {
            "type": "function",
            "name": "REWARD_PER_ROUND",
            "inputs": [],
            "outputs": [
                {
                    "name": "",
                    "type": "uint256",
                    "internalType": "uint256"
                }
            ],
            "stateMutability": "view"
        },
        {
            "type": "function",
            "name": "TOTAL_CLIENTS",
            "inputs": [],
            "outputs": [
                {
                    "name": "",
                    "type": "uint256",
                    "internalType": "uint256"
                }
            ],
            "stateMutability": "view"
        },
        {
            "type": "function",
            "name": "canAggregate",
            "inputs": [
                {
                    "name": "_projectId",
                    "type": "uint256",
                    "internalType": "uint256"
                }
            ],
            "outputs": [
                {
                    "name": "",
                    "type": "bool",
                    "internalType": "bool"
                }
            ],
            "stateMutability": "view"
        },
        {
            "type": "function",
            "name": "contributions",
            "inputs": [
                {
                    "name": "",
                    "type": "uint256",
                    "internalType": "uint256"
                },
                {
                    "name": "",
                    "type": "uint256",
                    "internalType": "uint256"
                },
                {
                    "name": "",
                    "type": "address",
                    "internalType": "address"
                }
            ],
            "outputs": [
                {
                    "name": "modelUpdateCID",
                    "type": "string",
                    "internalType": "string"
                },
                {
                    "name": "contentHash",
                    "type": "bytes32",
                    "internalType": "bytes32"
                },
                {
                    "name": "signature",
                    "type": "bytes",
                    "internalType": "bytes"
                },
                {
                    "name": "timestamp",
                    "type": "uint256",
                    "internalType": "uint256"
                },
                {
                    "name": "exists",
                    "type": "bool",
                    "internalType": "bool"
                }
            ],
            "stateMutability": "view"
        },
        {
            "type": "function",
            "name": "createProject",
            "inputs": [
                {
                    "name": "_initialModelCID",
                    "type": "string",
                    "internalType": "string"
                },
                {
                    "name": "_name",
                    "type": "string",
                    "internalType": "string"
                },
                {
                    "name": "_description",
                    "type": "string",
                    "internalType": "string"
                },
                {
                    "name": "_modelName",
                    "type": "string",
                    "internalType": "string"
                }
            ],
            "outputs": [],
            "stateMutability": "payable"
        },
        {
            "type": "function",
            "name": "didToAddress",
            "inputs": [
                {
                    "name": "",
                    "type": "string",
                    "internalType": "string"
                }
            ],
            "outputs": [
                {
                    "name": "",
                    "type": "address",
                    "internalType": "address"
                }
            ],
            "stateMutability": "view"
        },
        {
            "type": "function",
            "name": "finalizeProject",
            "inputs": [
                {
                    "name": "_projectId",
                    "type": "uint256",
                    "internalType": "uint256"
                }
            ],
            "outputs": [],
            "stateMutability": "nonpayable"
        },
        {
            "type": "function",
            "name": "finalizeRound",
            "inputs": [
                {
                    "name": "_projectId",
                    "type": "uint256",
                    "internalType": "uint256"
                },
                {
                    "name": "_newGlobalModelCID",
                    "type": "string",
                    "internalType": "string"
                },
                {
                    "name": "_participants",
                    "type": "address[]",
                    "internalType": "address[]"
                },
                {
                    "name": "_scores",
                    "type": "uint256[]",
                    "internalType": "uint256[]"
                }
            ],
            "outputs": [],
            "stateMutability": "nonpayable"
        },
        {
            "type": "function",
            "name": "isRegistered",
            "inputs": [
                {
                    "name": "",
                    "type": "uint256",
                    "internalType": "uint256"
                },
                {
                    "name": "",
                    "type": "address",
                    "internalType": "address"
                }
            ],
            "outputs": [
                {
                    "name": "",
                    "type": "bool",
                    "internalType": "bool"
                }
            ],
            "stateMutability": "view"
        },
        {
            "type": "function",
            "name": "joinProject",
            "inputs": [
                {
                    "name": "_projectId",
                    "type": "uint256",
                    "internalType": "uint256"
                }
            ],
            "outputs": [],
            "stateMutability": "nonpayable"
        },
        {
            "type": "function",
            "name": "participants",
            "inputs": [
                {
                    "name": "",
                    "type": "address",
                    "internalType": "address"
                }
            ],
            "outputs": [
                {
                    "name": "did",
                    "type": "string",
                    "internalType": "string"
                },
                {
                    "name": "isRegistered",
                    "type": "bool",
                    "internalType": "bool"
                },
                {
                    "name": "isVerified",
                    "type": "bool",
                    "internalType": "bool"
                }
            ],
            "stateMutability": "view"
        },
        {
            "type": "function",
            "name": "platformAdmin",
            "inputs": [],
            "outputs": [
                {
                    "name": "",
                    "type": "address",
                    "internalType": "address"
                }
            ],
            "stateMutability": "view"
        },
        {
            "type": "function",
            "name": "projectCount",
            "inputs": [],
            "outputs": [
                {
                    "name": "",
                    "type": "uint256",
                    "internalType": "uint256"
                }
            ],
            "stateMutability": "view"
        },
        {
            "type": "function",
            "name": "projectRounds",
            "inputs": [
                {
                    "name": "",
                    "type": "uint256",
                    "internalType": "uint256"
                },
                {
                    "name": "",
                    "type": "uint256",
                    "internalType": "uint256"
                }
            ],
            "outputs": [
                {
                    "name": "startTime",
                    "type": "uint256",
                    "internalType": "uint256"
                },
                {
                    "name": "submissionCount",
                    "type": "uint256",
                    "internalType": "uint256"
                },
                {
                    "name": "finalized",
                    "type": "bool",
                    "internalType": "bool"
                }
            ],
            "stateMutability": "view"
        },
        {
            "type": "function",
            "name": "projects",
            "inputs": [
                {
                    "name": "",
                    "type": "uint256",
                    "internalType": "uint256"
                }
            ],
            "outputs": [
                {
                    "name": "initiator",
                    "type": "address",
                    "internalType": "address"
                },
                {
                    "name": "globalModelCID",
                    "type": "string",
                    "internalType": "string"
                },
                {
                    "name": "roundNumber",
                    "type": "uint256",
                    "internalType": "uint256"
                },
                {
                    "name": "isActive",
                    "type": "bool",
                    "internalType": "bool"
                },
                {
                    "name": "name",
                    "type": "string",
                    "internalType": "string"
                },
                {
                    "name": "description",
                    "type": "string",
                    "internalType": "string"
                },
                {
                    "name": "modelName",
                    "type": "string",
                    "internalType": "string"
                },
                {
                    "name": "totalBudget",
                    "type": "uint256",
                    "internalType": "uint256"
                },
                {
                    "name": "remainingBudget",
                    "type": "uint256",
                    "internalType": "uint256"
                }
            ],
            "stateMutability": "view"
        },
        {
            "type": "function",
            "name": "registerDID",
            "inputs": [
                {
                    "name": "_did",
                    "type": "string",
                    "internalType": "string"
                }
            ],
            "outputs": [],
            "stateMutability": "nonpayable"
        },
        {
            "type": "function",
            "name": "rewards",
            "inputs": [
                {
                    "name": "",
                    "type": "address",
                    "internalType": "address"
                }
            ],
            "outputs": [
                {
                    "name": "",
                    "type": "uint256",
                    "internalType": "uint256"
                }
            ],
            "stateMutability": "view"
        },
        {
            "type": "function",
            "name": "submitUpdate",
            "inputs": [
                {
                    "name": "_projectId",
                    "type": "uint256",
                    "internalType": "uint256"
                },
                {
                    "name": "_modelUpdateCID",
                    "type": "string",
                    "internalType": "string"
                },
                {
                    "name": "_contentHash",
                    "type": "bytes32",
                    "internalType": "bytes32"
                },
                {
                    "name": "_signature",
                    "type": "bytes",
                    "internalType": "bytes"
                }
            ],
            "outputs": [],
            "stateMutability": "nonpayable"
        },
        {
            "type": "function",
            "name": "verifyParticipant",
            "inputs": [
                {
                    "name": "_participant",
                    "type": "address",
                    "internalType": "address"
                }
            ],
            "outputs": [],
            "stateMutability": "nonpayable"
        },
        {
            "type": "function",
            "name": "withdrawRewards",
            "inputs": [],
            "outputs": [],
            "stateMutability": "nonpayable"
        },
        {
            "type": "event",
            "name": "ContributionSubmitted",
            "inputs": [
                {
                    "name": "projectId",
                    "type": "uint256",
                    "indexed": true,
                    "internalType": "uint256"
                },
                {
                    "name": "round",
                    "type": "uint256",
                    "indexed": true,
                    "internalType": "uint256"
                },
                {
                    "name": "participant",
                    "type": "address",
                    "indexed": true,
                    "internalType": "address"
                }
            ],
            "anonymous": false
        },
        {
            "type": "event",
            "name": "DIDPlatformVerified",
            "inputs": [
                {
                    "name": "participant",
                    "type": "address",
                    "indexed": true,
                    "internalType": "address"
                },
                {
                    "name": "did",
                    "type": "string",
                    "indexed": false,
                    "internalType": "string"
                }
            ],
            "anonymous": false
        },
        {
            "type": "event",
            "name": "ParticipantJoined",
            "inputs": [
                {
                    "name": "projectId",
                    "type": "uint256",
                    "indexed": true,
                    "internalType": "uint256"
                },
                {
                    "name": "participant",
                    "type": "address",
                    "indexed": true,
                    "internalType": "address"
                }
            ],
            "anonymous": false
        },
        {
            "type": "event",
            "name": "ProjectCreated",
            "inputs": [
                {
                    "name": "projectId",
                    "type": "uint256",
                    "indexed": true,
                    "internalType": "uint256"
                },
                {
                    "name": "initiator",
                    "type": "address",
                    "indexed": true,
                    "internalType": "address"
                },
                {
                    "name": "initialCID",
                    "type": "string",
                    "indexed": false,
                    "internalType": "string"
                }
            ],
            "anonymous": false
        },
        {
            "type": "event",
            "name": "ProjectFinalized",
            "inputs": [
                {
                    "name": "projectId",
                    "type": "uint256",
                    "indexed": true,
                    "internalType": "uint256"
                },
                {
                    "name": "finalRound",
                    "type": "uint256",
                    "indexed": false,
                    "internalType": "uint256"
                },
                {
                    "name": "finalModelCID",
                    "type": "string",
                    "indexed": false,
                    "internalType": "string"
                }
            ],
            "anonymous": false
        },
        {
            "type": "event",
            "name": "RefundSent",
            "inputs": [
                {
                    "name": "projectId",
                    "type": "uint256",
                    "indexed": true,
                    "internalType": "uint256"
                },
                {
                    "name": "initiator",
                    "type": "address",
                    "indexed": true,
                    "internalType": "address"
                },
                {
                    "name": "amount",
                    "type": "uint256",
                    "indexed": false,
                    "internalType": "uint256"
                }
            ],
            "anonymous": false
        },
        {
            "type": "event",
            "name": "RoundFinalized",
            "inputs": [
                {
                    "name": "projectId",
                    "type": "uint256",
                    "indexed": true,
                    "internalType": "uint256"
                },
                {
                    "name": "round",
                    "type": "uint256",
                    "indexed": true,
                    "internalType": "uint256"
                },
                {
                    "name": "newGlobalCID",
                    "type": "string",
                    "indexed": false,
                    "internalType": "string"
                }
            ],
            "anonymous": false
        }
    ],
    "bytecode": {
        "object": "0x6080604052348015600e575f5ffd5b50335f5f6101000a81548173ffffffffffffffffffffffffffffffffffffffff021916908373ffffffffffffffffffffffffffffffffffffffff160217905550613e768061005b5f395ff3fe608060405260043610610129575f3560e01c80636e126d55116100aa578063c7b8981c1161006e578063c7b8981c14610417578063cdcd7fb51461042d578063d37f8c6c14610457578063db051e041461047f578063df98e5f9146104bf578063f0432cdc146104e757610129565b80636e126d551461032f578063890cadf0146103595780639ca7938e14610397578063a26ac375146103bf578063b81f6e18146103db57610129565b806336fbad26116100f157806336fbad26146102515780634d798de51461027b578063570810e2146102a3578063643a7695146102cb5780636ba1f4a4146102f357610129565b80630700037d1461012d57806309e69ede14610169578063107046bd146101a757806310aab5ff146101eb57806314333f8e14610215575b5f5ffd5b348015610138575f5ffd5b50610153600480360381019061014e9190612300565b610511565b6040516101609190612343565b60405180910390f35b348015610174575f5ffd5b5061018f600480360381019061018a9190612300565b610526565b60405161019e939291906123e6565b60405180910390f35b3480156101b2575f5ffd5b506101cd60048036038101906101c8919061244c565b6105eb565b6040516101e299989796959493929190612486565b60405180910390f35b3480156101f6575f5ffd5b506101ff610878565b60405161020c9190612343565b60405180910390f35b348015610220575f5ffd5b5061023b6004803603810190610236919061244c565b610883565b604051610248919061252d565b60405180910390f35b34801561025c575f5ffd5b506102656108eb565b6040516102729190612343565b60405180910390f35b348015610286575f5ffd5b506102a1600480360381019061029c919061244c565b6108f1565b005b3480156102ae575f5ffd5b506102c960048036038101906102c49190612672565b610bae565b005b3480156102d6575f5ffd5b506102f160048036038101906102ec9190612300565b610e2d565b005b3480156102fe575f5ffd5b5061031960048036038101906103149190612672565b6110bd565b60405161032691906126b9565b60405180910390f35b34801561033a575f5ffd5b50610343611105565b6040516103509190612343565b60405180910390f35b348015610364575f5ffd5b5061037f600480360381019061037a91906126d2565b61110a565b60405161038e93929190612710565b60405180910390f35b3480156103a2575f5ffd5b506103bd60048036038101906103b89190612816565b611147565b005b6103d960048036038101906103d491906128b2565b6114f8565b005b3480156103e6575f5ffd5b5061040160048036038101906103fc9190612986565b6117f3565b60405161040e919061252d565b60405180910390f35b348015610422575f5ffd5b5061042b61181d565b005b348015610438575f5ffd5b5061044161198e565b60405161044e91906126b9565b60405180910390f35b348015610462575f5ffd5b5061047d60048036038101906104789190612b48565b6119b2565b005b34801561048a575f5ffd5b506104a560048036038101906104a09190612c00565b611dd3565b6040516104b6959493929190612cb1565b60405180910390f35b3480156104ca575f5ffd5b506104e560048036038101906104e0919061244c565b611f33565b005b3480156104f2575f5ffd5b506104fb612290565b6040516105089190612343565b60405180910390f35b6005602052805f5260405f205f915090505481565b6003602052805f5260405f205f91509050805f01805461054590612d3d565b80601f016020809104026020016040519081016040528092919081815260200182805461057190612d3d565b80156105bc5780601f10610593576101008083540402835291602001916105bc565b820191905f5260205f20905b81548152906001019060200180831161059f57829003601f168201915b505050505090806001015f9054906101000a900460ff16908060010160019054906101000a900460ff16905083565b6004602052805f5260405f205f91509050805f015f9054906101000a900473ffffffffffffffffffffffffffffffffffffffff169080600101805461062f90612d3d565b80601f016020809104026020016040519081016040528092919081815260200182805461065b90612d3d565b80156106a65780601f1061067d576101008083540402835291602001916106a6565b820191905f5260205f20905b81548152906001019060200180831161068957829003601f168201915b505050505090806002015490806003015f9054906101000a900460ff16908060040180546106d390612d3d565b80601f01602080910402602001604051908101604052809291908181526020018280546106ff90612d3d565b801561074a5780601f106107215761010080835404028352916020019161074a565b820191905f5260205f20905b81548152906001019060200180831161072d57829003601f168201915b50505050509080600501805461075f90612d3d565b80601f016020809104026020016040519081016040528092919081815260200182805461078b90612d3d565b80156107d65780601f106107ad576101008083540402835291602001916107d6565b820191905f5260205f20905b8154815290600101906020018083116107b957829003601f168201915b5050505050908060060180546107eb90612d3d565b80601f016020809104026020016040519081016040528092919081815260200182805461081790612d3d565b80156108625780601f1061083957610100808354040283529160200191610862565b820191905f5260205f20905b81548152906001019060200180831161084557829003601f168201915b5050505050908060070154908060080154905089565b662386f26fc1000081565b5f5f60045f8481526020019081526020015f2090505f60085f8581526020019081526020015f205f836002015481526020019081526020015f2090505f60038260010154101590505f600583600101541015905080806108e05750815b945050505050919050565b60025481565b803373ffffffffffffffffffffffffffffffffffffffff1660045f8381526020019081526020015f205f015f9054906101000a900473ffffffffffffffffffffffffffffffffffffffff1673ffffffffffffffffffffffffffffffffffffffff1614610992576040517f08c379a000000000000000000000000000000000000000000000000000000000815260040161098990612db7565b60405180910390fd5b5f60045f8481526020019081526020015f209050806003015f9054906101000a900460ff166109f6576040517f08c379a00000000000000000000000000000000000000000000000000000000081526004016109ed90612e1f565b60405180910390fd5b5f816008015490505f82600801819055505f826003015f6101000a81548160ff0219169083151502179055505f811115610b67575f825f015f9054906101000a900473ffffffffffffffffffffffffffffffffffffffff1673ffffffffffffffffffffffffffffffffffffffff1682604051610a7190612e6a565b5f6040518083038185875af1925050503d805f8114610aab576040519150601f19603f3d011682016040523d82523d5f602084013e610ab0565b606091505b5050905080610af4576040517f08c379a0000000000000000000000000000000000000000000000000000000008152600401610aeb90612ec8565b60405180910390fd5b825f015f9054906101000a900473ffffffffffffffffffffffffffffffffffffffff1673ffffffffffffffffffffffffffffffffffffffff16857ffbeaa807aad4fcff31eff41f17142e6dcd1babf57c4730e3a4c706ac608cc05784604051610b5d9190612343565b60405180910390a3505b837f97ace935457fbaa9ea914c812c15b14bb7d41f40cc67c3e65917ac7318537ef8836002015484600101604051610ba0929190612f79565b60405180910390a250505050565b5f815111610bf1576040517f08c379a0000000000000000000000000000000000000000000000000000000008152600401610be890612ff1565b60405180910390fd5b60035f3373ffffffffffffffffffffffffffffffffffffffff1673ffffffffffffffffffffffffffffffffffffffff1681526020019081526020015f206001015f9054906101000a900460ff1615610c7e576040517f08c379a0000000000000000000000000000000000000000000000000000000008152600401610c759061307f565b60405180910390fd5b5f73ffffffffffffffffffffffffffffffffffffffff16600182604051610ca591906130d7565b90815260200160405180910390205f9054906101000a900473ffffffffffffffffffffffffffffffffffffffff1673ffffffffffffffffffffffffffffffffffffffff1614610d29576040517f08c379a0000000000000000000000000000000000000000000000000000000008152600401610d209061315d565b60405180910390fd5b8060035f3373ffffffffffffffffffffffffffffffffffffffff1673ffffffffffffffffffffffffffffffffffffffff1681526020019081526020015f205f019081610d75919061331a565b50600160035f3373ffffffffffffffffffffffffffffffffffffffff1673ffffffffffffffffffffffffffffffffffffffff1681526020019081526020015f206001015f6101000a81548160ff02191690831515021790555033600182604051610ddf91906130d7565b90815260200160405180910390205f6101000a81548173ffffffffffffffffffffffffffffffffffffffff021916908373ffffffffffffffffffffffffffffffffffffffff16021790555050565b5f5f9054906101000a900473ffffffffffffffffffffffffffffffffffffffff1673ffffffffffffffffffffffffffffffffffffffff163373ffffffffffffffffffffffffffffffffffffffff1614610ebb576040517f08c379a0000000000000000000000000000000000000000000000000000000008152600401610eb290613459565b60405180910390fd5b60035f8273ffffffffffffffffffffffffffffffffffffffff1673ffffffffffffffffffffffffffffffffffffffff1681526020019081526020015f206001015f9054906101000a900460ff16610f47576040517f08c379a0000000000000000000000000000000000000000000000000000000008152600401610f3e906134e7565b60405180910390fd5b60035f8273ffffffffffffffffffffffffffffffffffffffff1673ffffffffffffffffffffffffffffffffffffffff1681526020019081526020015f2060010160019054906101000a900460ff1615610fd5576040517f08c379a0000000000000000000000000000000000000000000000000000000008152600401610fcc9061354f565b60405180910390fd5b600160035f8373ffffffffffffffffffffffffffffffffffffffff1673ffffffffffffffffffffffffffffffffffffffff1681526020019081526020015f2060010160016101000a81548160ff0219169083151502179055508073ffffffffffffffffffffffffffffffffffffffff167fe36be1ed6fcca7979ee4c56299e5a49fccb6f5b66c5e8a205c3e062de0897b3a60035f8473ffffffffffffffffffffffffffffffffffffffff1673ffffffffffffffffffffffffffffffffffffffff1681526020019081526020015f205f016040516110b2919061356d565b60405180910390a250565b6001818051602081018201805184825260208301602085012081835280955050505050505f915054906101000a900473ffffffffffffffffffffffffffffffffffffffff1681565b600581565b6008602052815f5260405f20602052805f5260405f205f9150915050805f015490806001015490806002015f9054906101000a900460ff16905083565b60045f8581526020019081526020015f206003015f9054906101000a900460ff166111a7576040517f08c379a000000000000000000000000000000000000000000000000000000000815260040161119e90612e1f565b60405180910390fd5b60065f8581526020019081526020015f205f3373ffffffffffffffffffffffffffffffffffffffff1673ffffffffffffffffffffffffffffffffffffffff1681526020019081526020015f205f9054906101000a900460ff1661123f576040517f08c379a0000000000000000000000000000000000000000000000000000000008152600401611236906135d7565b60405180910390fd5b60035f3373ffffffffffffffffffffffffffffffffffffffff1673ffffffffffffffffffffffffffffffffffffffff1681526020019081526020015f2060010160019054906101000a900460ff166112cc576040517f08c379a00000000000000000000000000000000000000000000000000000000081526004016112c390613665565b60405180910390fd5b5f60045f8681526020019081526020015f2060020154905060075f8681526020019081526020015f205f8281526020019081526020015f205f3373ffffffffffffffffffffffffffffffffffffffff1673ffffffffffffffffffffffffffffffffffffffff1681526020019081526020015f206004015f9054906101000a900460ff161561138f576040517f08c379a0000000000000000000000000000000000000000000000000000000008152600401611386906136cd565b60405180910390fd5b6040518060a001604052808581526020018481526020018381526020014281526020016001151581525060075f8781526020019081526020015f205f8381526020019081526020015f205f3373ffffffffffffffffffffffffffffffffffffffff1673ffffffffffffffffffffffffffffffffffffffff1681526020019081526020015f205f820151815f019081611427919061331a565b506020820151816001015560408201518160020190816114479190613750565b50606082015181600301556080820151816004015f6101000a81548160ff02191690831515021790555090505060085f8681526020019081526020015f205f8281526020019081526020015f206001015f8154809291906114a79061384c565b91905055503373ffffffffffffffffffffffffffffffffffffffff1681867f0a1434dacefe3f97a915af6e7875e6bcb733eb568e5a033cbc118f05b404e5ae60405160405180910390a45050505050565b60035f3373ffffffffffffffffffffffffffffffffffffffff1673ffffffffffffffffffffffffffffffffffffffff1681526020019081526020015f206001015f9054906101000a900460ff16611584576040517f08c379a000000000000000000000000000000000000000000000000000000000815260040161157b90613903565b60405180910390fd5b60035f3373ffffffffffffffffffffffffffffffffffffffff1673ffffffffffffffffffffffffffffffffffffffff1681526020019081526020015f2060010160019054906101000a900460ff16611611576040517f08c379a000000000000000000000000000000000000000000000000000000000815260040161160890613991565b60405180910390fd5b60025f8154809291906116239061384c565b91905055506040518061012001604052803373ffffffffffffffffffffffffffffffffffffffff168152602001858152602001600181526020016001151581526020018481526020018381526020018281526020013481526020013481525060045f60025481526020019081526020015f205f820151815f015f6101000a81548173ffffffffffffffffffffffffffffffffffffffff021916908373ffffffffffffffffffffffffffffffffffffffff16021790555060208201518160010190816116ee919061331a565b50604082015181600201556060820151816003015f6101000a81548160ff021916908315150217905550608082015181600401908161172d919061331a565b5060a0820151816005019081611743919061331a565b5060c0820151816006019081611759919061331a565b5060e0820151816007015561010082015181600801559050504260085f60025481526020019081526020015f205f600181526020019081526020015f205f01819055503373ffffffffffffffffffffffffffffffffffffffff166002547f9d9ec461f162f3f4fdb9f6d189bfe13c59e48d8acd23a4c3bfcf7cc0fe4e84ed866040516117e591906139af565b60405180910390a350505050565b6006602052815f5260405f20602052805f5260405f205f915091509054906101000a900460ff1681565b5f60055f3373ffffffffffffffffffffffffffffffffffffffff1673ffffffffffffffffffffffffffffffffffffffff1681526020019081526020015f205490505f81116118a0576040517f08c379a000000000000000000000000000000000000000000000000000000000815260040161189790613a19565b60405180910390fd5b5f60055f3373ffffffffffffffffffffffffffffffffffffffff1673ffffffffffffffffffffffffffffffffffffffff1681526020019081526020015f20819055505f3373ffffffffffffffffffffffffffffffffffffffff168260405161190790612e6a565b5f6040518083038185875af1925050503d805f8114611941576040519150601f19603f3d011682016040523d82523d5f602084013e611946565b606091505b505090508061198a576040517f08c379a000000000000000000000000000000000000000000000000000000000815260040161198190613a81565b60405180910390fd5b5050565b5f5f9054906101000a900473ffffffffffffffffffffffffffffffffffffffff1681565b833373ffffffffffffffffffffffffffffffffffffffff1660045f8381526020019081526020015f205f015f9054906101000a900473ffffffffffffffffffffffffffffffffffffffff1673ffffffffffffffffffffffffffffffffffffffff1614611a53576040517f08c379a0000000000000000000000000000000000000000000000000000000008152600401611a4a90612db7565b60405180910390fd5b60045f8681526020019081526020015f206003015f9054906101000a900460ff16611ab3576040517f08c379a0000000000000000000000000000000000000000000000000000000008152600401611aaa90613ae9565b60405180910390fd5b8151835114611af7576040517f08c379a0000000000000000000000000000000000000000000000000000000008152600401611aee90613b51565b60405180910390fd5b611b0085610883565b611b3f576040517f08c379a0000000000000000000000000000000000000000000000000000000008152600401611b3690613bb9565b60405180910390fd5b5f60045f8781526020019081526020015f2090505f816002015490505f5f90505f5f90505f5f90505b8651811015611ba657868181518110611b8457611b83613bd7565b5b602002602001015182611b979190613c04565b91508080600101915050611b68565b505f5f90505b8751811015611c9c575f878281518110611bc957611bc8613bd7565b5b60200260200101511115611c8f575f82888381518110611bec57611beb613bd7565b5b6020026020010151662386f26fc10000611c069190613c37565b611c109190613ca5565b90508084611c1e9190613c04565b93508060055f8b8581518110611c3757611c36613bd7565b5b602002602001015173ffffffffffffffffffffffffffffffffffffffff1673ffffffffffffffffffffffffffffffffffffffff1681526020019081526020015f205f828254611c869190613c04565b92505081905550505b8080600101915050611bac565b508184600801541015611ce4576040517f08c379a0000000000000000000000000000000000000000000000000000000008152600401611cdb90613d1f565b60405180910390fd5b81846008015f828254611cf79190613d3d565b92505081905550600160085f8b81526020019081526020015f205f8581526020019081526020015f206002015f6101000a81548160ff02191690831515021790555087846001019081611d4a919061331a565b50836002015f815480929190611d5f9061384c565b91905055504260085f8b81526020019081526020015f205f866002015481526020019081526020015f205f018190555082897fd56a11b23d9b4d97988bc90f91ecbdd133a8efd341fd2c9f37f68d5bd34b1b818a604051611dc091906139af565b60405180910390a3505050505050505050565b6007602052825f5260405f20602052815f5260405f20602052805f5260405f205f925092505050805f018054611e0890612d3d565b80601f0160208091040260200160405190810160405280929190818152602001828054611e3490612d3d565b8015611e7f5780601f10611e5657610100808354040283529160200191611e7f565b820191905f5260205f20905b815481529060010190602001808311611e6257829003601f168201915b505050505090806001015490806002018054611e9a90612d3d565b80601f0160208091040260200160405190810160405280929190818152602001828054611ec690612d3d565b8015611f115780601f10611ee857610100808354040283529160200191611f11565b820191905f5260205f20905b815481529060010190602001808311611ef457829003601f168201915b505050505090806003015490806004015f9054906101000a900460ff16905085565b60045f8281526020019081526020015f206003015f9054906101000a900460ff16611f93576040517f08c379a0000000000000000000000000000000000000000000000000000000008152600401611f8a90613ae9565b60405180910390fd5b60035f3373ffffffffffffffffffffffffffffffffffffffff1673ffffffffffffffffffffffffffffffffffffffff1681526020019081526020015f206001015f9054906101000a900460ff1661201f576040517f08c379a000000000000000000000000000000000000000000000000000000000815260040161201690613903565b60405180910390fd5b60035f3373ffffffffffffffffffffffffffffffffffffffff1673ffffffffffffffffffffffffffffffffffffffff1681526020019081526020015f2060010160019054906101000a900460ff166120ac576040517f08c379a00000000000000000000000000000000000000000000000000000000081526004016120a390613991565b60405180910390fd5b60045f8281526020019081526020015f205f015f9054906101000a900473ffffffffffffffffffffffffffffffffffffffff1673ffffffffffffffffffffffffffffffffffffffff163373ffffffffffffffffffffffffffffffffffffffff160361214c576040517f08c379a000000000000000000000000000000000000000000000000000000000815260040161214390613dba565b60405180910390fd5b60065f8281526020019081526020015f205f3373ffffffffffffffffffffffffffffffffffffffff1673ffffffffffffffffffffffffffffffffffffffff1681526020019081526020015f205f9054906101000a900460ff16156121e5576040517f08c379a00000000000000000000000000000000000000000000000000000000081526004016121dc90613e22565b60405180910390fd5b600160065f8381526020019081526020015f205f3373ffffffffffffffffffffffffffffffffffffffff1673ffffffffffffffffffffffffffffffffffffffff1681526020019081526020015f205f6101000a81548160ff0219169083151502179055503373ffffffffffffffffffffffffffffffffffffffff16817f7dd8cb04159701bc1976c246434d7d96812782e7489e6c5c34db49a388fe9e8060405160405180910390a350565b600381565b5f604051905090565b5f5ffd5b5f5ffd5b5f73ffffffffffffffffffffffffffffffffffffffff82169050919050565b5f6122cf826122a6565b9050919050565b6122df816122c5565b81146122e9575f5ffd5b50565b5f813590506122fa816122d6565b92915050565b5f602082840312156123155761231461229e565b5b5f612322848285016122ec565b91505092915050565b5f819050919050565b61233d8161232b565b82525050565b5f6020820190506123565f830184612334565b92915050565b5f81519050919050565b5f82825260208201905092915050565b8281835e5f83830152505050565b5f601f19601f8301169050919050565b5f61239e8261235c565b6123a88185612366565b93506123b8818560208601612376565b6123c181612384565b840191505092915050565b5f8115159050919050565b6123e0816123cc565b82525050565b5f6060820190508181035f8301526123fe8186612394565b905061240d60208301856123d7565b61241a60408301846123d7565b949350505050565b61242b8161232b565b8114612435575f5ffd5b50565b5f8135905061244681612422565b92915050565b5f602082840312156124615761246061229e565b5b5f61246e84828501612438565b91505092915050565b612480816122c5565b82525050565b5f6101208201905061249a5f83018c612477565b81810360208301526124ac818b612394565b90506124bb604083018a612334565b6124c860608301896123d7565b81810360808301526124da8188612394565b905081810360a08301526124ee8187612394565b905081810360c08301526125028186612394565b905061251160e0830185612334565b61251f610100830184612334565b9a9950505050505050505050565b5f6020820190506125405f8301846123d7565b92915050565b5f5ffd5b5f5ffd5b7f4e487b71000000000000000000000000000000000000000000000000000000005f52604160045260245ffd5b61258482612384565b810181811067ffffffffffffffff821117156125a3576125a261254e565b5b80604052505050565b5f6125b5612295565b90506125c1828261257b565b919050565b5f67ffffffffffffffff8211156125e0576125df61254e565b5b6125e982612384565b9050602081019050919050565b828183375f83830152505050565b5f612616612611846125c6565b6125ac565b9050828152602081018484840111156126325761263161254a565b5b61263d8482856125f6565b509392505050565b5f82601f83011261265957612658612546565b5b8135612669848260208601612604565b91505092915050565b5f602082840312156126875761268661229e565b5b5f82013567ffffffffffffffff8111156126a4576126a36122a2565b5b6126b084828501612645565b91505092915050565b5f6020820190506126cc5f830184612477565b92915050565b5f5f604083850312156126e8576126e761229e565b5b5f6126f585828601612438565b925050602061270685828601612438565b9150509250929050565b5f6060820190506127235f830186612334565b6127306020830185612334565b61273d60408301846123d7565b949350505050565b5f819050919050565b61275781612745565b8114612761575f5ffd5b50565b5f813590506127728161274e565b92915050565b5f67ffffffffffffffff8211156127925761279161254e565b5b61279b82612384565b9050602081019050919050565b5f6127ba6127b584612778565b6125ac565b9050828152602081018484840111156127d6576127d561254a565b5b6127e18482856125f6565b509392505050565b5f82601f8301126127fd576127fc612546565b5b813561280d8482602086016127a8565b91505092915050565b5f5f5f5f6080858703121561282e5761282d61229e565b5b5f61283b87828801612438565b945050602085013567ffffffffffffffff81111561285c5761285b6122a2565b5b61286887828801612645565b935050604061287987828801612764565b925050606085013567ffffffffffffffff81111561289a576128996122a2565b5b6128a6878288016127e9565b91505092959194509250565b5f5f5f5f608085870312156128ca576128c961229e565b5b5f85013567ffffffffffffffff8111156128e7576128e66122a2565b5b6128f387828801612645565b945050602085013567ffffffffffffffff811115612914576129136122a2565b5b61292087828801612645565b935050604085013567ffffffffffffffff811115612941576129406122a2565b5b61294d87828801612645565b925050606085013567ffffffffffffffff81111561296e5761296d6122a2565b5b61297a87828801612645565b91505092959194509250565b5f5f6040838503121561299c5761299b61229e565b5b5f6129a985828601612438565b92505060206129ba858286016122ec565b9150509250929050565b5f67ffffffffffffffff8211156129de576129dd61254e565b5b602082029050602081019050919050565b5f5ffd5b5f612a05612a00846129c4565b6125ac565b90508083825260208201905060208402830185811115612a2857612a276129ef565b5b835b81811015612a515780612a3d88826122ec565b845260208401935050602081019050612a2a565b5050509392505050565b5f82601f830112612a6f57612a6e612546565b5b8135612a7f8482602086016129f3565b91505092915050565b5f67ffffffffffffffff821115612aa257612aa161254e565b5b602082029050602081019050919050565b5f612ac5612ac084612a88565b6125ac565b90508083825260208201905060208402830185811115612ae857612ae76129ef565b5b835b81811015612b115780612afd8882612438565b845260208401935050602081019050612aea565b5050509392505050565b5f82601f830112612b2f57612b2e612546565b5b8135612b3f848260208601612ab3565b91505092915050565b5f5f5f5f60808587031215612b6057612b5f61229e565b5b5f612b6d87828801612438565b945050602085013567ffffffffffffffff811115612b8e57612b8d6122a2565b5b612b9a87828801612645565b935050604085013567ffffffffffffffff811115612bbb57612bba6122a2565b5b612bc787828801612a5b565b925050606085013567ffffffffffffffff811115612be857612be76122a2565b5b612bf487828801612b1b565b91505092959194509250565b5f5f5f60608486031215612c1757612c1661229e565b5b5f612c2486828701612438565b9350506020612c3586828701612438565b9250506040612c46868287016122ec565b9150509250925092565b612c5981612745565b82525050565b5f81519050919050565b5f82825260208201905092915050565b5f612c8382612c5f565b612c8d8185612c69565b9350612c9d818560208601612376565b612ca681612384565b840191505092915050565b5f60a0820190508181035f830152612cc98188612394565b9050612cd86020830187612c50565b8181036040830152612cea8186612c79565b9050612cf96060830185612334565b612d0660808301846123d7565b9695505050505050565b7f4e487b71000000000000000000000000000000000000000000000000000000005f52602260045260245ffd5b5f6002820490506001821680612d5457607f821691505b602082108103612d6757612d66612d10565b5b50919050565b7f42756b616e20696e69736961746f722070726f79656b20696e690000000000005f82015250565b5f612da1601a83612366565b9150612dac82612d6d565b602082019050919050565b5f6020820190508181035f830152612dce81612d95565b9050919050565b7f50726f79656b20737564616820746964616b20616b74696600000000000000005f82015250565b5f612e09601883612366565b9150612e1482612dd5565b602082019050919050565b5f6020820190508181035f830152612e3681612dfd565b9050919050565b5f81905092915050565b50565b5f612e555f83612e3d565b9150612e6082612e47565b5f82019050919050565b5f612e7482612e4a565b9150819050919050565b7f526566756e6420676167616c00000000000000000000000000000000000000005f82015250565b5f612eb2600c83612366565b9150612ebd82612e7e565b602082019050919050565b5f6020820190508181035f830152612edf81612ea6565b9050919050565b5f819050815f5260205f209050919050565b5f8154612f0481612d3d565b612f0e8186612366565b9450600182165f8114612f285760018114612f3e57612f70565b60ff198316865281151560200286019350612f70565b612f4785612ee6565b5f5b83811015612f6857815481890152600182019150602081019050612f49565b808801955050505b50505092915050565b5f604082019050612f8c5f830185612334565b8181036020830152612f9e8184612ef8565b90509392505050565b7f537472696e672044494420746964616b20626f6c6568206b6f736f6e670000005f82015250565b5f612fdb601d83612366565b9150612fe682612fa7565b602082019050919050565b5f6020820190508181035f83015261300881612fcf565b9050919050565b7f57616c6c657420416e6461207375646168206d656d696c696b692044494420745f8201527f6572646166746172000000000000000000000000000000000000000000000000602082015250565b5f613069602883612366565b91506130748261300f565b604082019050919050565b5f6020820190508181035f8301526130968161305d565b9050919050565b5f81905092915050565b5f6130b18261235c565b6130bb818561309d565b93506130cb818560208601612376565b80840191505092915050565b5f6130e282846130a7565b915081905092915050565b7f44494420696e692073756461682064696b6c61696d206f6c65682077616c6c655f8201527f74206c61696e0000000000000000000000000000000000000000000000000000602082015250565b5f613147602683612366565b9150613152826130ed565b604082019050919050565b5f6020820190508181035f8301526131748161313b565b9050919050565b5f6020601f8301049050919050565b5f82821b905092915050565b5f600883026131c57fffffffffffffffffffffffffffffffffffffffffffffffffffffffffffffffff8261318a565b6131cf868361318a565b95508019841693508086168417925050509392505050565b5f819050919050565b5f61320a6132056132008461232b565b6131e7565b61232b565b9050919050565b5f819050919050565b613223836131f0565b61323761322f82613211565b848454613196565b825550505050565b5f5f905090565b61324e61323f565b61325981848461321a565b505050565b5f5b8281101561327f576132745f828401613246565b600181019050613260565b505050565b601f8211156132d257828211156132d15761329e81612ee6565b6132a78361317b565b6132b08561317b565b60208610156132bd575f90505b8083016132cc8284038261325e565b505050505b5b505050565b5f82821c905092915050565b5f6132f25f19846008026132d7565b1980831691505092915050565b5f61330a83836132e3565b9150826002028217905092915050565b6133238261235c565b67ffffffffffffffff81111561333c5761333b61254e565b5b6133468254612d3d565b613351828285613284565b5f60209050601f831160018114613382575f8415613370578287015190505b61337a85826132ff565b8655506133e1565b601f19841661339086612ee6565b5f5b828110156133b757848901518255600182019150602085019450602081019050613392565b868310156133d457848901516133d0601f8916826132e3565b8355505b6001600288020188555050505b505050505050565b7f48616e79612054696d204665644c616e672079616e67206461706174206d656e5f8201527f67656b73656b75736920696e6900000000000000000000000000000000000000602082015250565b5f613443602d83612366565b915061344e826133e9565b604082019050919050565b5f6020820190508181035f83015261347081613437565b9050919050565b7f5061727469736970616e2062656c756d206d656e6461667461726b616e2044495f8201527f4400000000000000000000000000000000000000000000000000000000000000602082015250565b5f6134d1602183612366565b91506134dc82613477565b604082019050919050565b5f6020820190508181035f8301526134fe816134c5565b9050919050565b7f5061727469736970616e207375646168207465727665726966696b61736900005f82015250565b5f613539601e83612366565b915061354482613505565b602082019050919050565b5f6020820190508181035f8301526135668161352d565b9050919050565b5f6020820190508181035f8301526135858184612ef8565b905092915050565b7f42656c756d20626572676162756e6700000000000000000000000000000000005f82015250565b5f6135c1600f83612366565b91506135cc8261358d565b602082019050919050565b5f6020820190508181035f8301526135ee816135b5565b9050919050565b7f4964656e746974617320706c6174666f726d20416e646120746964616b2076615f8201527f6c69640000000000000000000000000000000000000000000000000000000000602082015250565b5f61364f602383612366565b915061365a826135f5565b604082019050919050565b5f6020820190508181035f83015261367c81613643565b9050919050565b7f5375646168207375626d697420646920726f756e6420696e69000000000000005f82015250565b5f6136b7601983612366565b91506136c282613683565b602082019050919050565b5f6020820190508181035f8301526136e4816136ab565b9050919050565b5f819050815f5260205f209050919050565b601f82111561374b578282111561374a57613717816136eb565b6137208361317b565b6137298561317b565b6020861015613736575f90505b8083016137458284038261325e565b505050505b5b505050565b61375982612c5f565b67ffffffffffffffff8111156137725761377161254e565b5b61377c8254612d3d565b6137878282856136fd565b5f60209050601f8311600181146137b8575f84156137a6578287015190505b6137b085826132ff565b865550613817565b601f1984166137c6866136eb565b5f5b828110156137ed578489015182556001820191506020850194506020810190506137c8565b8683101561380a5784890151613806601f8916826132e3565b8355505b6001600288020188555050505b505050505050565b7f4e487b71000000000000000000000000000000000000000000000000000000005f52601160045260245ffd5b5f6138568261232b565b91507fffffffffffffffffffffffffffffffffffffffffffffffffffffffffffffffff82036138885761388761381f565b5b600182019050919050565b7f4461667461726b616e2044494420416e6461207465726c6562696820646168755f8201527f6c75000000000000000000000000000000000000000000000000000000000000602082015250565b5f6138ed602283612366565b91506138f882613893565b604082019050919050565b5f6020820190508181035f83015261391a816138e1565b9050919050565b7f44494420416e64612062656c756d2064697665726966696b617369206f6c65685f8201527f2054696d204665644c616e670000000000000000000000000000000000000000602082015250565b5f61397b602c83612366565b915061398682613921565b604082019050919050565b5f6020820190508181035f8301526139a88161396f565b9050919050565b5f6020820190508181035f8301526139c78184612394565b905092915050565b7f546964616b206164612073616c646f20726577617264000000000000000000005f82015250565b5f613a03601683612366565b9150613a0e826139cf565b602082019050919050565b5f6020820190508181035f830152613a30816139f7565b9050919050565b7f5472616e7366657220676167616c0000000000000000000000000000000000005f82015250565b5f613a6b600e83612366565b9150613a7682613a37565b602082019050919050565b5f6020820190508181035f830152613a9881613a5f565b9050919050565b7f50726f79656b20746964616b20616b74696600000000000000000000000000005f82015250565b5f613ad3601283612366565b9150613ade82613a9f565b602082019050919050565b5f6020820190508181035f830152613b0081613ac7565b9050919050565b7f4461746120746964616b2073696e6b726f6e00000000000000000000000000005f82015250565b5f613b3b601283612366565b9150613b4682613b07565b602082019050919050565b5f6020820190508181035f830152613b6881613b2f565b9050919050565b7f5379617261742061677265676173692062656c756d2074657270656e756869005f82015250565b5f613ba3601f83612366565b9150613bae82613b6f565b602082019050919050565b5f6020820190508181035f830152613bd081613b97565b9050919050565b7f4e487b71000000000000000000000000000000000000000000000000000000005f52603260045260245ffd5b5f613c0e8261232b565b9150613c198361232b565b9250828201905080821115613c3157613c3061381f565b5b92915050565b5f613c418261232b565b9150613c4c8361232b565b9250828202613c5a8161232b565b91508282048414831517613c7157613c7061381f565b5b5092915050565b7f4e487b71000000000000000000000000000000000000000000000000000000005f52601260045260245ffd5b5f613caf8261232b565b9150613cba8361232b565b925082613cca57613cc9613c78565b5b828204905092915050565b7f4275646765742070726f79656b20746964616b206d656e63756b7570692100005f82015250565b5f613d09601e83612366565b9150613d1482613cd5565b602082019050919050565b5f6020820190508181035f830152613d3681613cfd565b9050919050565b5f613d478261232b565b9150613d528361232b565b9250828203905081811115613d6a57613d6961381f565b5b92915050565b7f496e69736961746f7220746964616b20626f6c656820626572676162756e67005f82015250565b5f613da4601f83612366565b9150613daf82613d70565b602082019050919050565b5f6020820190508181035f830152613dd181613d98565b9050919050565b7f537564616820626572676162756e6700000000000000000000000000000000005f82015250565b5f613e0c600f83612366565b9150613e1782613dd8565b602082019050919050565b5f6020820190508181035f830152613e3981613e00565b905091905056fea264697066735822122067956822bb54fdcdeeacbe57e527a4b78fa2697b06887b9f3175dce762da933364736f6c63430008210033",
        "linkReferences": {}
    },
    "methodIdentifiers": {
        "MIN_CLIENTS()": "f0432cdc",
        "REWARD_PER_ROUND()": "10aab5ff",
        "TOTAL_CLIENTS()": "6e126d55",
        "canAggregate(uint256)": "14333f8e",
        "contributions(uint256,uint256,address)": "db051e04",
        "createProject(string,string,string,string)": "a26ac375",
        "didToAddress(string)": "6ba1f4a4",
        "finalizeProject(uint256)": "4d798de5",
        "finalizeRound(uint256,string,address[],uint256[])": "d37f8c6c",
        "isRegistered(uint256,address)": "b81f6e18",
        "joinProject(uint256)": "df98e5f9",
        "participants(address)": "09e69ede",
        "platformAdmin()": "cdcd7fb5",
        "projectCount()": "36fbad26",
        "projectRounds(uint256,uint256)": "890cadf0",
        "projects(uint256)": "107046bd",
        "registerDID(string)": "570810e2",
        "rewards(address)": "0700037d",
        "submitUpdate(uint256,string,bytes32,bytes)": "9ca7938e",
        "verifyParticipant(address)": "643a7695",
        "withdrawRewards()": "c7b8981c"
    },
    "id": 0
}