{
    "abi": [
        {
            "type": "function",
            "name": "MIN_CLIENTS",
            "inputs": [],
            "outputs": [
                {
                    "name": "",
                    "type": "uint256",
                    "internalType": "uint256"
                }
            ],
            "stateMutability": "view"
        },
        {
            "type": "function",
            "name": "REWARD_PER_ROUND",
            "inputs": [],
            "outputs": [
                {
                    "name": "",
                    "type": "uint256",
                    "internalType": "uint256"
                }
            ],
            "stateMutability": "view"
        },
        {
            "type": "function",
            "name": "TOTAL_CLIENTS",
            "inputs": [],
            "outputs": [
                {
                    "name": "",
                    "type": "uint256",
                    "internalType": "uint256"
                }
            ],
            "stateMutability": "view"
        },
        {
            "type": "function",
            "name": "canAggregate",
            "inputs": [
                {
                    "name": "_projectId",
                    "type": "uint256",
                    "internalType": "uint256"
                }
            ],
            "outputs": [
                {
                    "name": "",
                    "type": "bool",
                    "internalType": "bool"
                }
            ],
            "stateMutability": "view"
        },
        {
            "type": "function",
            "name": "contributions",
            "inputs": [
                {
                    "name": "",
                    "type": "uint256",
                    "internalType": "uint256"
                },
                {
                    "name": "",
                    "type": "uint256",
                    "internalType": "uint256"
                },
                {
                    "name": "",
                    "type": "address",
                    "internalType": "address"
                }
            ],
            "outputs": [
                {
                    "name": "modelUpdateCID",
                    "type": "string",
                    "internalType": "string"
                },
                {
                    "name": "contentHash",
                    "type": "bytes32",
                    "internalType": "bytes32"
                },
                {
                    "name": "signature",
                    "type": "bytes",
                    "internalType": "bytes"
                },
                {
                    "name": "timestamp",
                    "type": "uint256",
                    "internalType": "uint256"
                },
                {
                    "name": "exists",
                    "type": "bool",
                    "internalType": "bool"
                }
            ],
            "stateMutability": "view"
        },
        {
            "type": "function",
            "name": "createProject",
            "inputs": [
                {
                    "name": "_initialModelCID",
                    "type": "string",
                    "internalType": "string"
                },
                {
                    "name": "_name",
                    "type": "string",
                    "internalType": "string"
                },
                {
                    "name": "_description",
                    "type": "string",
                    "internalType": "string"
                },
                {
                    "name": "_modelName",
                    "type": "string",
                    "internalType": "string"
                }
            ],
            "outputs": [],
            "stateMutability": "payable"
        },
        {
            "type": "function",
            "name": "finalizeProject",
            "inputs": [
                {
                    "name": "_projectId",
                    "type": "uint256",
                    "internalType": "uint256"
                }
            ],
            "outputs": [],
            "stateMutability": "nonpayable"
        },
        {
            "type": "function",
            "name": "finalizeRound",
            "inputs": [
                {
                    "name": "_projectId",
                    "type": "uint256",
                    "internalType": "uint256"
                },
                {
                    "name": "_newGlobalModelCID",
                    "type": "string",
                    "internalType": "string"
                },
                {
                    "name": "_participants",
                    "type": "address[]",
                    "internalType": "address[]"
                },
                {
                    "name": "_scores",
                    "type": "uint256[]",
                    "internalType": "uint256[]"
                }
            ],
            "outputs": [],
            "stateMutability": "nonpayable"
        },
        {
            "type": "function",
            "name": "isRegistered",
            "inputs": [
                {
                    "name": "",
                    "type": "uint256",
                    "internalType": "uint256"
                },
                {
                    "name": "",
                    "type": "address",
                    "internalType": "address"
                }
            ],
            "outputs": [
                {
                    "name": "",
                    "type": "bool",
                    "internalType": "bool"
                }
            ],
            "stateMutability": "view"
        },
        {
            "type": "function",
            "name": "joinProject",
            "inputs": [
                {
                    "name": "_projectId",
                    "type": "uint256",
                    "internalType": "uint256"
                }
            ],
            "outputs": [],
            "stateMutability": "nonpayable"
        },
        {
            "type": "function",
            "name": "participants",
            "inputs": [
                {
                    "name": "",
                    "type": "address",
                    "internalType": "address"
                }
            ],
            "outputs": [
                {
                    "name": "did",
                    "type": "string",
                    "internalType": "string"
                },
                {
                    "name": "isRegistered",
                    "type": "bool",
                    "internalType": "bool"
                }
            ],
            "stateMutability": "view"
        },
        {
            "type": "function",
            "name": "projectCount",
            "inputs": [],
            "outputs": [
                {
                    "name": "",
                    "type": "uint256",
                    "internalType": "uint256"
                }
            ],
            "stateMutability": "view"
        },
        {
            "type": "function",
            "name": "projectRounds",
            "inputs": [
                {
                    "name": "",
                    "type": "uint256",
                    "internalType": "uint256"
                },
                {
                    "name": "",
                    "type": "uint256",
                    "internalType": "uint256"
                }
            ],
            "outputs": [
                {
                    "name": "startTime",
                    "type": "uint256",
                    "internalType": "uint256"
                },
                {
                    "name": "submissionCount",
                    "type": "uint256",
                    "internalType": "uint256"
                },
                {
                    "name": "finalized",
                    "type": "bool",
                    "internalType": "bool"
                }
            ],
            "stateMutability": "view"
        },
        {
            "type": "function",
            "name": "projects",
            "inputs": [
                {
                    "name": "",
                    "type": "uint256",
                    "internalType": "uint256"
                }
            ],
            "outputs": [
                {
                    "name": "initiator",
                    "type": "address",
                    "internalType": "address"
                },
                {
                    "name": "globalModelCID",
                    "type": "string",
                    "internalType": "string"
                },
                {
                    "name": "roundNumber",
                    "type": "uint256",
                    "internalType": "uint256"
                },
                {
                    "name": "isActive",
                    "type": "bool",
                    "internalType": "bool"
                },
                {
                    "name": "name",
                    "type": "string",
                    "internalType": "string"
                },
                {
                    "name": "description",
                    "type": "string",
                    "internalType": "string"
                },
                {
                    "name": "modelName",
                    "type": "string",
                    "internalType": "string"
                },
                {
                    "name": "totalBudget",
                    "type": "uint256",
                    "internalType": "uint256"
                },
                {
                    "name": "remainingBudget",
                    "type": "uint256",
                    "internalType": "uint256"
                }
            ],
            "stateMutability": "view"
        },
        {
            "type": "function",
            "name": "registerDID",
            "inputs": [
                {
                    "name": "_did",
                    "type": "string",
                    "internalType": "string"
                }
            ],
            "outputs": [],
            "stateMutability": "nonpayable"
        },
        {
            "type": "function",
            "name": "rewards",
            "inputs": [
                {
                    "name": "",
                    "type": "address",
                    "internalType": "address"
                }
            ],
            "outputs": [
                {
                    "name": "",
                    "type": "uint256",
                    "internalType": "uint256"
                }
            ],
            "stateMutability": "view"
        },
        {
            "type": "function",
            "name": "submitUpdate",
            "inputs": [
                {
                    "name": "_projectId",
                    "type": "uint256",
                    "internalType": "uint256"
                },
                {
                    "name": "_modelUpdateCID",
                    "type": "string",
                    "internalType": "string"
                },
                {
                    "name": "_contentHash",
                    "type": "bytes32",
                    "internalType": "bytes32"
                },
                {
                    "name": "_signature",
                    "type": "bytes",
                    "internalType": "bytes"
                }
            ],
            "outputs": [],
            "stateMutability": "nonpayable"
        },
        {
            "type": "function",
            "name": "withdrawRewards",
            "inputs": [],
            "outputs": [],
            "stateMutability": "nonpayable"
        },
        {
            "type": "event",
            "name": "ContributionSubmitted",
            "inputs": [
                {
                    "name": "projectId",
                    "type": "uint256",
                    "indexed": true,
                    "internalType": "uint256"
                },
                {
                    "name": "round",
                    "type": "uint256",
                    "indexed": true,
                    "internalType": "uint256"
                },
                {
                    "name": "participant",
                    "type": "address",
                    "indexed": true,
                    "internalType": "address"
                }
            ],
            "anonymous": false
        },
        {
            "type": "event",
            "name": "ParticipantJoined",
            "inputs": [
                {
                    "name": "projectId",
                    "type": "uint256",
                    "indexed": true,
                    "internalType": "uint256"
                },
                {
                    "name": "participant",
                    "type": "address",
                    "indexed": true,
                    "internalType": "address"
                }
            ],
            "anonymous": false
        },
        {
            "type": "event",
            "name": "ProjectCreated",
            "inputs": [
                {
                    "name": "projectId",
                    "type": "uint256",
                    "indexed": true,
                    "internalType": "uint256"
                },
                {
                    "name": "initiator",
                    "type": "address",
                    "indexed": true,
                    "internalType": "address"
                },
                {
                    "name": "initialCID",
                    "type": "string",
                    "indexed": false,
                    "internalType": "string"
                }
            ],
            "anonymous": false
        },
        {
            "type": "event",
            "name": "ProjectFinalized",
            "inputs": [
                {
                    "name": "projectId",
                    "type": "uint256",
                    "indexed": true,
                    "internalType": "uint256"
                },
                {
                    "name": "finalRound",
                    "type": "uint256",
                    "indexed": false,
                    "internalType": "uint256"
                },
                {
                    "name": "finalModelCID",
                    "type": "string",
                    "indexed": false,
                    "internalType": "string"
                }
            ],
            "anonymous": false
        },
        {
            "type": "event",
            "name": "RefundSent",
            "inputs": [
                {
                    "name": "projectId",
                    "type": "uint256",
                    "indexed": true,
                    "internalType": "uint256"
                },
                {
                    "name": "initiator",
                    "type": "address",
                    "indexed": true,
                    "internalType": "address"
                },
                {
                    "name": "amount",
                    "type": "uint256",
                    "indexed": false,
                    "internalType": "uint256"
                }
            ],
            "anonymous": false
        },
        {
            "type": "event",
            "name": "RoundFinalized",
            "inputs": [
                {
                    "name": "projectId",
                    "type": "uint256",
                    "indexed": true,
                    "internalType": "uint256"
                },
                {
                    "name": "round",
                    "type": "uint256",
                    "indexed": true,
                    "internalType": "uint256"
                },
                {
                    "name": "newGlobalCID",
                    "type": "string",
                    "indexed": false,
                    "internalType": "string"
                }
            ],
            "anonymous": false
        }
    ],
    "bytecode": {
        "object": "0x6080604052348015600e575f5ffd5b506132788061001c5f395ff3fe608060405260043610610108575f3560e01c8063890cadf011610094578063c7b8981c11610063578063c7b8981c14610391578063d37f8c6c146103a7578063db051e04146103cf578063df98e5f91461040f578063f0432cdc1461043757610108565b8063890cadf0146102d35780639ca7938e14610311578063a26ac37514610339578063b81f6e181461035557610108565b806314333f8e116100db57806314333f8e146101f357806336fbad261461022f5780634d798de514610259578063570810e2146102815780636e126d55146102a957610108565b80630700037d1461010c57806309e69ede14610148578063107046bd1461018557806310aab5ff146101c9575b5f5ffd5b348015610117575f5ffd5b50610132600480360381019061012d9190611bbd565b610461565b60405161013f9190611c00565b60405180910390f35b348015610153575f5ffd5b5061016e60048036038101906101699190611bbd565b610476565b60405161017c929190611ca3565b60405180910390f35b348015610190575f5ffd5b506101ab60048036038101906101a69190611cfb565b610528565b6040516101c099989796959493929190611d35565b60405180910390f35b3480156101d4575f5ffd5b506101dd6107b5565b6040516101ea9190611c00565b60405180910390f35b3480156101fe575f5ffd5b5061021960048036038101906102149190611cfb565b6107c0565b6040516102269190611ddc565b60405180910390f35b34801561023a575f5ffd5b50610243610828565b6040516102509190611c00565b60405180910390f35b348015610264575f5ffd5b5061027f600480360381019061027a9190611cfb565b61082d565b005b34801561028c575f5ffd5b506102a760048036038101906102a29190611f21565b610aea565b005b3480156102b4575f5ffd5b506102bd610b91565b6040516102ca9190611c00565b60405180910390f35b3480156102de575f5ffd5b506102f960048036038101906102f49190611f68565b610b96565b60405161030893929190611fa6565b60405180910390f35b34801561031c575f5ffd5b50610337600480360381019061033291906120ac565b610bd3565b005b610353600480360381019061034e9190612148565b610ef7565b005b348015610360575f5ffd5b5061037b6004803603810190610376919061221c565b611161565b6040516103889190611ddc565b60405180910390f35b34801561039c575f5ffd5b506103a561118b565b005b3480156103b2575f5ffd5b506103cd60048036038101906103c891906123de565b6112fc565b005b3480156103da575f5ffd5b506103f560048036038101906103f09190612496565b61171d565b604051610406959493929190612547565b60405180910390f35b34801561041a575f5ffd5b5061043560048036038101906104309190611cfb565b61187d565b005b348015610442575f5ffd5b5061044b611b4d565b6040516104589190611c00565b60405180910390f35b6003602052805f5260405f205f915090505481565b6001602052805f5260405f205f91509050805f018054610495906125d3565b80601f01602080910402602001604051908101604052809291908181526020018280546104c1906125d3565b801561050c5780601f106104e35761010080835404028352916020019161050c565b820191905f5260205f20905b8154815290600101906020018083116104ef57829003601f168201915b505050505090806001015f9054906101000a900460ff16905082565b6002602052805f5260405f205f91509050805f015f9054906101000a900473ffffffffffffffffffffffffffffffffffffffff169080600101805461056c906125d3565b80601f0160208091040260200160405190810160405280929190818152602001828054610598906125d3565b80156105e35780601f106105ba576101008083540402835291602001916105e3565b820191905f5260205f20905b8154815290600101906020018083116105c657829003601f168201915b505050505090806002015490806003015f9054906101000a900460ff1690806004018054610610906125d3565b80601f016020809104026020016040519081016040528092919081815260200182805461063c906125d3565b80156106875780601f1061065e57610100808354040283529160200191610687565b820191905f5260205f20905b81548152906001019060200180831161066a57829003601f168201915b50505050509080600501805461069c906125d3565b80601f01602080910402602001604051908101604052809291908181526020018280546106c8906125d3565b80156107135780601f106106ea57610100808354040283529160200191610713565b820191905f5260205f20905b8154815290600101906020018083116106f657829003601f168201915b505050505090806006018054610728906125d3565b80601f0160208091040260200160405190810160405280929190818152602001828054610754906125d3565b801561079f5780601f106107765761010080835404028352916020019161079f565b820191905f5260205f20905b81548152906001019060200180831161078257829003601f168201915b5050505050908060070154908060080154905089565b662386f26fc1000081565b5f5f60025f8481526020019081526020015f2090505f60065f8581526020019081526020015f205f836002015481526020019081526020015f2090505f60038260010154101590505f6005836001015410159050808061081d5750815b945050505050919050565b5f5481565b803373ffffffffffffffffffffffffffffffffffffffff1660025f8381526020019081526020015f205f015f9054906101000a900473ffffffffffffffffffffffffffffffffffffffff1673ffffffffffffffffffffffffffffffffffffffff16146108ce576040517f08c379a00000000000000000000000000000000000000000000000000000000081526004016108c59061264d565b60405180910390fd5b5f60025f8481526020019081526020015f209050806003015f9054906101000a900460ff16610932576040517f08c379a0000000000000000000000000000000000000000000000000000000008152600401610929906126b5565b60405180910390fd5b5f816008015490505f82600801819055505f826003015f6101000a81548160ff0219169083151502179055505f811115610aa3575f825f015f9054906101000a900473ffffffffffffffffffffffffffffffffffffffff1673ffffffffffffffffffffffffffffffffffffffff16826040516109ad90612700565b5f6040518083038185875af1925050503d805f81146109e7576040519150601f19603f3d011682016040523d82523d5f602084013e6109ec565b606091505b5050905080610a30576040517f08c379a0000000000000000000000000000000000000000000000000000000008152600401610a279061275e565b60405180910390fd5b825f015f9054906101000a900473ffffffffffffffffffffffffffffffffffffffff1673ffffffffffffffffffffffffffffffffffffffff16857ffbeaa807aad4fcff31eff41f17142e6dcd1babf57c4730e3a4c706ac608cc05784604051610a999190611c00565b60405180910390a3505b837f97ace935457fbaa9ea914c812c15b14bb7d41f40cc67c3e65917ac7318537ef8836002015484600101604051610adc92919061280f565b60405180910390a250505050565b8060015f3373ffffffffffffffffffffffffffffffffffffffff1673ffffffffffffffffffffffffffffffffffffffff1681526020019081526020015f205f019081610b3691906129dc565b506001805f3373ffffffffffffffffffffffffffffffffffffffff1673ffffffffffffffffffffffffffffffffffffffff1681526020019081526020015f206001015f6101000a81548160ff02191690831515021790555050565b600581565b6006602052815f5260405f20602052805f5260405f205f9150915050805f015490806001015490806002015f9054906101000a900460ff16905083565b60025f8581526020019081526020015f206003015f9054906101000a900460ff16610c33576040517f08c379a0000000000000000000000000000000000000000000000000000000008152600401610c2a906126b5565b60405180910390fd5b60045f8581526020019081526020015f205f3373ffffffffffffffffffffffffffffffffffffffff1673ffffffffffffffffffffffffffffffffffffffff1681526020019081526020015f205f9054906101000a900460ff16610ccb576040517f08c379a0000000000000000000000000000000000000000000000000000000008152600401610cc290612af5565b60405180910390fd5b5f60025f8681526020019081526020015f2060020154905060055f8681526020019081526020015f205f8281526020019081526020015f205f3373ffffffffffffffffffffffffffffffffffffffff1673ffffffffffffffffffffffffffffffffffffffff1681526020019081526020015f206004015f9054906101000a900460ff1615610d8e576040517f08c379a0000000000000000000000000000000000000000000000000000000008152600401610d8590612b5d565b60405180910390fd5b6040518060a001604052808581526020018481526020018381526020014281526020016001151581525060055f8781526020019081526020015f205f8381526020019081526020015f205f3373ffffffffffffffffffffffffffffffffffffffff1673ffffffffffffffffffffffffffffffffffffffff1681526020019081526020015f205f820151815f019081610e2691906129dc565b50602082015181600101556040820151816002019081610e469190612be0565b50606082015181600301556080820151816004015f6101000a81548160ff02191690831515021790555090505060065f8681526020019081526020015f205f8281526020019081526020015f206001015f815480929190610ea690612cdc565b91905055503373ffffffffffffffffffffffffffffffffffffffff1681867f0a1434dacefe3f97a915af6e7875e6bcb733eb568e5a033cbc118f05b404e5ae60405160405180910390a45050505050565b60015f3373ffffffffffffffffffffffffffffffffffffffff1673ffffffffffffffffffffffffffffffffffffffff1681526020019081526020015f206001015f9054906101000a900460ff16610f83576040517f08c379a0000000000000000000000000000000000000000000000000000000008152600401610f7a90612d93565b60405180910390fd5b5f5f815480929190610f9490612cdc565b91905055506040518061012001604052803373ffffffffffffffffffffffffffffffffffffffff168152602001858152602001600181526020016001151581526020018481526020018381526020018281526020013481526020013481525060025f5f5481526020019081526020015f205f820151815f015f6101000a81548173ffffffffffffffffffffffffffffffffffffffff021916908373ffffffffffffffffffffffffffffffffffffffff160217905550602082015181600101908161105e91906129dc565b50604082015181600201556060820151816003015f6101000a81548160ff021916908315150217905550608082015181600401908161109d91906129dc565b5060a08201518160050190816110b391906129dc565b5060c08201518160060190816110c991906129dc565b5060e0820151816007015561010082015181600801559050504260065f5f5481526020019081526020015f205f600181526020019081526020015f205f01819055503373ffffffffffffffffffffffffffffffffffffffff165f547f9d9ec461f162f3f4fdb9f6d189bfe13c59e48d8acd23a4c3bfcf7cc0fe4e84ed866040516111539190612db1565b60405180910390a350505050565b6004602052815f5260405f20602052805f5260405f205f915091509054906101000a900460ff1681565b5f60035f3373ffffffffffffffffffffffffffffffffffffffff1673ffffffffffffffffffffffffffffffffffffffff1681526020019081526020015f205490505f811161120e576040517f08c379a000000000000000000000000000000000000000000000000000000000815260040161120590612e1b565b60405180910390fd5b5f60035f3373ffffffffffffffffffffffffffffffffffffffff1673ffffffffffffffffffffffffffffffffffffffff1681526020019081526020015f20819055505f3373ffffffffffffffffffffffffffffffffffffffff168260405161127590612700565b5f6040518083038185875af1925050503d805f81146112af576040519150601f19603f3d011682016040523d82523d5f602084013e6112b4565b606091505b50509050806112f8576040517f08c379a00000000000000000000000000000000000000000000000000000000081526004016112ef90612e83565b60405180910390fd5b5050565b833373ffffffffffffffffffffffffffffffffffffffff1660025f8381526020019081526020015f205f015f9054906101000a900473ffffffffffffffffffffffffffffffffffffffff1673ffffffffffffffffffffffffffffffffffffffff161461139d576040517f08c379a00000000000000000000000000000000000000000000000000000000081526004016113949061264d565b60405180910390fd5b60025f8681526020019081526020015f206003015f9054906101000a900460ff166113fd576040517f08c379a00000000000000000000000000000000000000000000000000000000081526004016113f490612eeb565b60405180910390fd5b8151835114611441576040517f08c379a000000000000000000000000000000000000000000000000000000000815260040161143890612f53565b60405180910390fd5b61144a856107c0565b611489576040517f08c379a000000000000000000000000000000000000000000000000000000000815260040161148090612fbb565b60405180910390fd5b5f60025f8781526020019081526020015f2090505f816002015490505f5f90505f5f90505f5f90505b86518110156114f0578681815181106114ce576114cd612fd9565b5b6020026020010151826114e19190613006565b915080806001019150506114b2565b505f5f90505b87518110156115e6575f87828151811061151357611512612fd9565b5b602002602001015111156115d9575f8288838151811061153657611535612fd9565b5b6020026020010151662386f26fc100006115509190613039565b61155a91906130a7565b905080846115689190613006565b93508060035f8b858151811061158157611580612fd9565b5b602002602001015173ffffffffffffffffffffffffffffffffffffffff1673ffffffffffffffffffffffffffffffffffffffff1681526020019081526020015f205f8282546115d09190613006565b92505081905550505b80806001019150506114f6565b50818460080154101561162e576040517f08c379a000000000000000000000000000000000000000000000000000000000815260040161162590613121565b60405180910390fd5b81846008015f828254611641919061313f565b92505081905550600160065f8b81526020019081526020015f205f8581526020019081526020015f206002015f6101000a81548160ff0219169083151502179055508784600101908161169491906129dc565b50836002015f8154809291906116a990612cdc565b91905055504260065f8b81526020019081526020015f205f866002015481526020019081526020015f205f018190555082897fd56a11b23d9b4d97988bc90f91ecbdd133a8efd341fd2c9f37f68d5bd34b1b818a60405161170a9190612db1565b60405180910390a3505050505050505050565b6005602052825f5260405f20602052815f5260405f20602052805f5260405f205f925092505050805f018054611752906125d3565b80601f016020809104026020016040519081016040528092919081815260200182805461177e906125d3565b80156117c95780601f106117a0576101008083540402835291602001916117c9565b820191905f5260205f20905b8154815290600101906020018083116117ac57829003601f168201915b5050505050908060010154908060020180546117e4906125d3565b80601f0160208091040260200160405190810160405280929190818152602001828054611810906125d3565b801561185b5780601f106118325761010080835404028352916020019161185b565b820191905f5260205f20905b81548152906001019060200180831161183e57829003601f168201915b505050505090806003015490806004015f9054906101000a900460ff16905085565b60025f8281526020019081526020015f206003015f9054906101000a900460ff166118dd576040517f08c379a00000000000000000000000000000000000000000000000000000000081526004016118d490612eeb565b60405180910390fd5b60015f3373ffffffffffffffffffffffffffffffffffffffff1673ffffffffffffffffffffffffffffffffffffffff1681526020019081526020015f206001015f9054906101000a900460ff16611969576040517f08c379a000000000000000000000000000000000000000000000000000000000815260040161196090612d93565b60405180910390fd5b60025f8281526020019081526020015f205f015f9054906101000a900473ffffffffffffffffffffffffffffffffffffffff1673ffffffffffffffffffffffffffffffffffffffff163373ffffffffffffffffffffffffffffffffffffffff1603611a09576040517f08c379a0000000000000000000000000000000000000000000000000000000008152600401611a00906131bc565b60405180910390fd5b60045f8281526020019081526020015f205f3373ffffffffffffffffffffffffffffffffffffffff1673ffffffffffffffffffffffffffffffffffffffff1681526020019081526020015f205f9054906101000a900460ff1615611aa2576040517f08c379a0000000000000000000000000000000000000000000000000000000008152600401611a9990613224565b60405180910390fd5b600160045f8381526020019081526020015f205f3373ffffffffffffffffffffffffffffffffffffffff1673ffffffffffffffffffffffffffffffffffffffff1681526020019081526020015f205f6101000a81548160ff0219169083151502179055503373ffffffffffffffffffffffffffffffffffffffff16817f7dd8cb04159701bc1976c246434d7d96812782e7489e6c5c34db49a388fe9e8060405160405180910390a350565b600381565b5f604051905090565b5f5ffd5b5f5ffd5b5f73ffffffffffffffffffffffffffffffffffffffff82169050919050565b5f611b8c82611b63565b9050919050565b611b9c81611b82565b8114611ba6575f5ffd5b50565b5f81359050611bb781611b93565b92915050565b5f60208284031215611bd257611bd1611b5b565b5b5f611bdf84828501611ba9565b91505092915050565b5f819050919050565b611bfa81611be8565b82525050565b5f602082019050611c135f830184611bf1565b92915050565b5f81519050919050565b5f82825260208201905092915050565b8281835e5f83830152505050565b5f601f19601f8301169050919050565b5f611c5b82611c19565b611c658185611c23565b9350611c75818560208601611c33565b611c7e81611c41565b840191505092915050565b5f8115159050919050565b611c9d81611c89565b82525050565b5f6040820190508181035f830152611cbb8185611c51565b9050611cca6020830184611c94565b9392505050565b611cda81611be8565b8114611ce4575f5ffd5b50565b5f81359050611cf581611cd1565b92915050565b5f60208284031215611d1057611d0f611b5b565b5b5f611d1d84828501611ce7565b91505092915050565b611d2f81611b82565b82525050565b5f61012082019050611d495f83018c611d26565b8181036020830152611d5b818b611c51565b9050611d6a604083018a611bf1565b611d776060830189611c94565b8181036080830152611d898188611c51565b905081810360a0830152611d9d8187611c51565b905081810360c0830152611db18186611c51565b9050611dc060e0830185611bf1565b611dce610100830184611bf1565b9a9950505050505050505050565b5f602082019050611def5f830184611c94565b92915050565b5f5ffd5b5f5ffd5b7f4e487b71000000000000000000000000000000000000000000000000000000005f52604160045260245ffd5b611e3382611c41565b810181811067ffffffffffffffff82111715611e5257611e51611dfd565b5b80604052505050565b5f611e64611b52565b9050611e708282611e2a565b919050565b5f67ffffffffffffffff821115611e8f57611e8e611dfd565b5b611e9882611c41565b9050602081019050919050565b828183375f83830152505050565b5f611ec5611ec084611e75565b611e5b565b905082815260208101848484011115611ee157611ee0611df9565b5b611eec848285611ea5565b509392505050565b5f82601f830112611f0857611f07611df5565b5b8135611f18848260208601611eb3565b91505092915050565b5f60208284031215611f3657611f35611b5b565b5b5f82013567ffffffffffffffff811115611f5357611f52611b5f565b5b611f5f84828501611ef4565b91505092915050565b5f5f60408385031215611f7e57611f7d611b5b565b5b5f611f8b85828601611ce7565b9250506020611f9c85828601611ce7565b9150509250929050565b5f606082019050611fb95f830186611bf1565b611fc66020830185611bf1565b611fd36040830184611c94565b949350505050565b5f819050919050565b611fed81611fdb565b8114611ff7575f5ffd5b50565b5f8135905061200881611fe4565b92915050565b5f67ffffffffffffffff82111561202857612027611dfd565b5b61203182611c41565b9050602081019050919050565b5f61205061204b8461200e565b611e5b565b90508281526020810184848401111561206c5761206b611df9565b5b612077848285611ea5565b509392505050565b5f82601f83011261209357612092611df5565b5b81356120a384826020860161203e565b91505092915050565b5f5f5f5f608085870312156120c4576120c3611b5b565b5b5f6120d187828801611ce7565b945050602085013567ffffffffffffffff8111156120f2576120f1611b5f565b5b6120fe87828801611ef4565b935050604061210f87828801611ffa565b925050606085013567ffffffffffffffff8111156121305761212f611b5f565b5b61213c8782880161207f565b91505092959194509250565b5f5f5f5f608085870312156121605761215f611b5b565b5b5f85013567ffffffffffffffff81111561217d5761217c611b5f565b5b61218987828801611ef4565b945050602085013567ffffffffffffffff8111156121aa576121a9611b5f565b5b6121b687828801611ef4565b935050604085013567ffffffffffffffff8111156121d7576121d6611b5f565b5b6121e387828801611ef4565b925050606085013567ffffffffffffffff81111561220457612203611b5f565b5b61221087828801611ef4565b91505092959194509250565b5f5f6040838503121561223257612231611b5b565b5b5f61223f85828601611ce7565b925050602061225085828601611ba9565b9150509250929050565b5f67ffffffffffffffff82111561227457612273611dfd565b5b602082029050602081019050919050565b5f5ffd5b5f61229b6122968461225a565b611e5b565b905080838252602082019050602084028301858111156122be576122bd612285565b5b835b818110156122e757806122d38882611ba9565b8452602084019350506020810190506122c0565b5050509392505050565b5f82601f83011261230557612304611df5565b5b8135612315848260208601612289565b91505092915050565b5f67ffffffffffffffff82111561233857612337611dfd565b5b602082029050602081019050919050565b5f61235b6123568461231e565b611e5b565b9050808382526020820190506020840283018581111561237e5761237d612285565b5b835b818110156123a757806123938882611ce7565b845260208401935050602081019050612380565b5050509392505050565b5f82601f8301126123c5576123c4611df5565b5b81356123d5848260208601612349565b91505092915050565b5f5f5f5f608085870312156123f6576123f5611b5b565b5b5f61240387828801611ce7565b945050602085013567ffffffffffffffff81111561242457612423611b5f565b5b61243087828801611ef4565b935050604085013567ffffffffffffffff81111561245157612450611b5f565b5b61245d878288016122f1565b925050606085013567ffffffffffffffff81111561247e5761247d611b5f565b5b61248a878288016123b1565b91505092959194509250565b5f5f5f606084860312156124ad576124ac611b5b565b5b5f6124ba86828701611ce7565b93505060206124cb86828701611ce7565b92505060406124dc86828701611ba9565b9150509250925092565b6124ef81611fdb565b82525050565b5f81519050919050565b5f82825260208201905092915050565b5f612519826124f5565b61252381856124ff565b9350612533818560208601611c33565b61253c81611c41565b840191505092915050565b5f60a0820190508181035f83015261255f8188611c51565b905061256e60208301876124e6565b8181036040830152612580818661250f565b905061258f6060830185611bf1565b61259c6080830184611c94565b9695505050505050565b7f4e487b71000000000000000000000000000000000000000000000000000000005f52602260045260245ffd5b5f60028204905060018216806125ea57607f821691505b6020821081036125fd576125fc6125a6565b5b50919050565b7f42756b616e20696e69736961746f722070726f79656b20696e690000000000005f82015250565b5f612637601a83611c23565b915061264282612603565b602082019050919050565b5f6020820190508181035f8301526126648161262b565b9050919050565b7f50726f79656b20737564616820746964616b20616b74696600000000000000005f82015250565b5f61269f601883611c23565b91506126aa8261266b565b602082019050919050565b5f6020820190508181035f8301526126cc81612693565b9050919050565b5f81905092915050565b50565b5f6126eb5f836126d3565b91506126f6826126dd565b5f82019050919050565b5f61270a826126e0565b9150819050919050565b7f526566756e6420676167616c00000000000000000000000000000000000000005f82015250565b5f612748600c83611c23565b915061275382612714565b602082019050919050565b5f6020820190508181035f8301526127758161273c565b9050919050565b5f819050815f5260205f209050919050565b5f815461279a816125d3565b6127a48186611c23565b9450600182165f81146127be57600181146127d457612806565b60ff198316865281151560200286019350612806565b6127dd8561277c565b5f5b838110156127fe578154818901526001820191506020810190506127df565b808801955050505b50505092915050565b5f6040820190506128225f830185611bf1565b8181036020830152612834818461278e565b90509392505050565b5f6020601f8301049050919050565b5f82821b905092915050565b5f600883026128877fffffffffffffffffffffffffffffffffffffffffffffffffffffffffffffffff8261284c565b612891868361284c565b95508019841693508086168417925050509392505050565b5f819050919050565b5f6128cc6128c76128c284611be8565b6128a9565b611be8565b9050919050565b5f819050919050565b6128e5836128b2565b6128f96128f1826128d3565b848454612858565b825550505050565b5f5f905090565b612910612901565b61291b8184846128dc565b505050565b5f5b82811015612941576129365f828401612908565b600181019050612922565b505050565b601f8211156129945782821115612993576129608161277c565b6129698361283d565b6129728561283d565b602086101561297f575f90505b80830161298e82840382612920565b505050505b5b505050565b5f82821c905092915050565b5f6129b45f1984600802612999565b1980831691505092915050565b5f6129cc83836129a5565b9150826002028217905092915050565b6129e582611c19565b67ffffffffffffffff8111156129fe576129fd611dfd565b5b612a0882546125d3565b612a13828285612946565b5f60209050601f831160018114612a44575f8415612a32578287015190505b612a3c85826129c1565b865550612aa3565b601f198416612a528661277c565b5f5b82811015612a7957848901518255600182019150602085019450602081019050612a54565b86831015612a965784890151612a92601f8916826129a5565b8355505b6001600288020188555050505b505050505050565b7f42656c756d20626572676162756e6700000000000000000000000000000000005f82015250565b5f612adf600f83611c23565b9150612aea82612aab565b602082019050919050565b5f6020820190508181035f830152612b0c81612ad3565b9050919050565b7f5375646168207375626d697420646920726f756e6420696e69000000000000005f82015250565b5f612b47601983611c23565b9150612b5282612b13565b602082019050919050565b5f6020820190508181035f830152612b7481612b3b565b9050919050565b5f819050815f5260205f209050919050565b601f821115612bdb5782821115612bda57612ba781612b7b565b612bb08361283d565b612bb98561283d565b6020861015612bc6575f90505b808301612bd582840382612920565b505050505b5b505050565b612be9826124f5565b67ffffffffffffffff811115612c0257612c01611dfd565b5b612c0c82546125d3565b612c17828285612b8d565b5f60209050601f831160018114612c48575f8415612c36578287015190505b612c4085826129c1565b865550612ca7565b601f198416612c5686612b7b565b5f5b82811015612c7d57848901518255600182019150602085019450602081019050612c58565b86831015612c9a5784890151612c96601f8916826129a5565b8355505b6001600288020188555050505b505050505050565b7f4e487b71000000000000000000000000000000000000000000000000000000005f52601160045260245ffd5b5f612ce682611be8565b91507fffffffffffffffffffffffffffffffffffffffffffffffffffffffffffffffff8203612d1857612d17612caf565b5b600182019050919050565b7f4461667461726b616e2044494420416e6461207465726c6562696820646168755f8201527f6c75000000000000000000000000000000000000000000000000000000000000602082015250565b5f612d7d602283611c23565b9150612d8882612d23565b604082019050919050565b5f6020820190508181035f830152612daa81612d71565b9050919050565b5f6020820190508181035f830152612dc98184611c51565b905092915050565b7f546964616b206164612073616c646f20726577617264000000000000000000005f82015250565b5f612e05601683611c23565b9150612e1082612dd1565b602082019050919050565b5f6020820190508181035f830152612e3281612df9565b9050919050565b7f5472616e7366657220676167616c0000000000000000000000000000000000005f82015250565b5f612e6d600e83611c23565b9150612e7882612e39565b602082019050919050565b5f6020820190508181035f830152612e9a81612e61565b9050919050565b7f50726f79656b20746964616b20616b74696600000000000000000000000000005f82015250565b5f612ed5601283611c23565b9150612ee082612ea1565b602082019050919050565b5f6020820190508181035f830152612f0281612ec9565b9050919050565b7f4461746120746964616b2073696e6b726f6e00000000000000000000000000005f82015250565b5f612f3d601283611c23565b9150612f4882612f09565b602082019050919050565b5f6020820190508181035f830152612f6a81612f31565b9050919050565b7f5379617261742061677265676173692062656c756d2074657270656e756869005f82015250565b5f612fa5601f83611c23565b9150612fb082612f71565b602082019050919050565b5f6020820190508181035f830152612fd281612f99565b9050919050565b7f4e487b71000000000000000000000000000000000000000000000000000000005f52603260045260245ffd5b5f61301082611be8565b915061301b83611be8565b925082820190508082111561303357613032612caf565b5b92915050565b5f61304382611be8565b915061304e83611be8565b925082820261305c81611be8565b9150828204841483151761307357613072612caf565b5b5092915050565b7f4e487b71000000000000000000000000000000000000000000000000000000005f52601260045260245ffd5b5f6130b182611be8565b91506130bc83611be8565b9250826130cc576130cb61307a565b5b828204905092915050565b7f4275646765742070726f79656b20746964616b206d656e63756b7570692100005f82015250565b5f61310b601e83611c23565b9150613116826130d7565b602082019050919050565b5f6020820190508181035f830152613138816130ff565b9050919050565b5f61314982611be8565b915061315483611be8565b925082820390508181111561316c5761316b612caf565b5b92915050565b7f496e69736961746f7220746964616b20626f6c656820626572676162756e67005f82015250565b5f6131a6601f83611c23565b91506131b182613172565b602082019050919050565b5f6020820190508181035f8301526131d38161319a565b9050919050565b7f537564616820626572676162756e6700000000000000000000000000000000005f82015250565b5f61320e600f83611c23565b9150613219826131da565b602082019050919050565b5f6020820190508181035f83015261323b81613202565b905091905056fea2646970667358221220eb875579ef4f51ab58bb22703f7f3c11ce5f987ca740ee3955147cc54b709e2a64736f6c63430008210033",
        "linkReferences": {}
    },
    "methodIdentifiers": {
        "MIN_CLIENTS()": "f0432cdc",
        "REWARD_PER_ROUND()": "10aab5ff",
        "TOTAL_CLIENTS()": "6e126d55",
        "canAggregate(uint256)": "14333f8e",
        "contributions(uint256,uint256,address)": "db051e04",
        "createProject(string,string,string,string)": "a26ac375",
        "finalizeProject(uint256)": "4d798de5",
        "finalizeRound(uint256,string,address[],uint256[])": "d37f8c6c",
        "isRegistered(uint256,address)": "b81f6e18",
        "joinProject(uint256)": "df98e5f9",
        "participants(address)": "09e69ede",
        "projectCount()": "36fbad26",
        "projectRounds(uint256,uint256)": "890cadf0",
        "projects(uint256)": "107046bd",
        "registerDID(string)": "570810e2",
        "rewards(address)": "0700037d",
        "submitUpdate(uint256,string,bytes32,bytes)": "9ca7938e",
        "withdrawRewards()": "c7b8981c"
    },
    "id": 0
}