{
    "abi": [
        {
            "type": "function",
            "name": "MIN_CLIENTS",
            "inputs": [],
            "outputs": [
                {
                    "name": "",
                    "type": "uint256",
                    "internalType": "uint256"
                }
            ],
            "stateMutability": "view"
        },
        {
            "type": "function",
            "name": "TOTAL_CLIENTS",
            "inputs": [],
            "outputs": [
                {
                    "name": "",
                    "type": "uint256",
                    "internalType": "uint256"
                }
            ],
            "stateMutability": "view"
        },
        {
            "type": "function",
            "name": "canAggregate",
            "inputs": [
                {
                    "name": "_projectId",
                    "type": "uint256",
                    "internalType": "uint256"
                }
            ],
            "outputs": [
                {
                    "name": "",
                    "type": "bool",
                    "internalType": "bool"
                }
            ],
            "stateMutability": "view"
        },
        {
            "type": "function",
            "name": "contributions",
            "inputs": [
                {
                    "name": "",
                    "type": "uint256",
                    "internalType": "uint256"
                },
                {
                    "name": "",
                    "type": "uint256",
                    "internalType": "uint256"
                },
                {
                    "name": "",
                    "type": "address",
                    "internalType": "address"
                }
            ],
            "outputs": [
                {
                    "name": "modelUpdateCID",
                    "type": "string",
                    "internalType": "string"
                },
                {
                    "name": "contentHash",
                    "type": "bytes32",
                    "internalType": "bytes32"
                },
                {
                    "name": "signature",
                    "type": "bytes",
                    "internalType": "bytes"
                },
                {
                    "name": "timestamp",
                    "type": "uint256",
                    "internalType": "uint256"
                },
                {
                    "name": "exists",
                    "type": "bool",
                    "internalType": "bool"
                }
            ],
            "stateMutability": "view"
        },
        {
            "type": "function",
            "name": "createProject",
            "inputs": [
                {
                    "name": "_initialModelCID",
                    "type": "string",
                    "internalType": "string"
                },
                {
                    "name": "_metadata",
                    "type": "string",
                    "internalType": "string"
                }
            ],
            "outputs": [],
            "stateMutability": "nonpayable"
        },
        {
            "type": "function",
            "name": "finalizeRound",
            "inputs": [
                {
                    "name": "_projectId",
                    "type": "uint256",
                    "internalType": "uint256"
                },
                {
                    "name": "_newGlobalModelCID",
                    "type": "string",
                    "internalType": "string"
                }
            ],
            "outputs": [],
            "stateMutability": "nonpayable"
        },
        {
            "type": "function",
            "name": "isRegistered",
            "inputs": [
                {
                    "name": "",
                    "type": "uint256",
                    "internalType": "uint256"
                },
                {
                    "name": "",
                    "type": "address",
                    "internalType": "address"
                }
            ],
            "outputs": [
                {
                    "name": "",
                    "type": "bool",
                    "internalType": "bool"
                }
            ],
            "stateMutability": "view"
        },
        {
            "type": "function",
            "name": "joinProject",
            "inputs": [
                {
                    "name": "_projectId",
                    "type": "uint256",
                    "internalType": "uint256"
                }
            ],
            "outputs": [],
            "stateMutability": "nonpayable"
        },
        {
            "type": "function",
            "name": "participants",
            "inputs": [
                {
                    "name": "",
                    "type": "address",
                    "internalType": "address"
                }
            ],
            "outputs": [
                {
                    "name": "did",
                    "type": "string",
                    "internalType": "string"
                },
                {
                    "name": "isRegistered",
                    "type": "bool",
                    "internalType": "bool"
                }
            ],
            "stateMutability": "view"
        },
        {
            "type": "function",
            "name": "projectCount",
            "inputs": [],
            "outputs": [
                {
                    "name": "",
                    "type": "uint256",
                    "internalType": "uint256"
                }
            ],
            "stateMutability": "view"
        },
        {
            "type": "function",
            "name": "projectRounds",
            "inputs": [
                {
                    "name": "",
                    "type": "uint256",
                    "internalType": "uint256"
                },
                {
                    "name": "",
                    "type": "uint256",
                    "internalType": "uint256"
                }
            ],
            "outputs": [
                {
                    "name": "startTime",
                    "type": "uint256",
                    "internalType": "uint256"
                },
                {
                    "name": "submissionCount",
                    "type": "uint256",
                    "internalType": "uint256"
                },
                {
                    "name": "finalized",
                    "type": "bool",
                    "internalType": "bool"
                }
            ],
            "stateMutability": "view"
        },
        {
            "type": "function",
            "name": "projects",
            "inputs": [
                {
                    "name": "",
                    "type": "uint256",
                    "internalType": "uint256"
                }
            ],
            "outputs": [
                {
                    "name": "initiator",
                    "type": "address",
                    "internalType": "address"
                },
                {
                    "name": "globalModelCID",
                    "type": "string",
                    "internalType": "string"
                },
                {
                    "name": "roundNumber",
                    "type": "uint256",
                    "internalType": "uint256"
                },
                {
                    "name": "isActive",
                    "type": "bool",
                    "internalType": "bool"
                },
                {
                    "name": "metadata",
                    "type": "string",
                    "internalType": "string"
                }
            ],
            "stateMutability": "view"
        },
        {
            "type": "function",
            "name": "registerDID",
            "inputs": [
                {
                    "name": "_did",
                    "type": "string",
                    "internalType": "string"
                }
            ],
            "outputs": [],
            "stateMutability": "nonpayable"
        },
        {
            "type": "function",
            "name": "submitUpdate",
            "inputs": [
                {
                    "name": "_projectId",
                    "type": "uint256",
                    "internalType": "uint256"
                },
                {
                    "name": "_modelUpdateCID",
                    "type": "string",
                    "internalType": "string"
                },
                {
                    "name": "_contentHash",
                    "type": "bytes32",
                    "internalType": "bytes32"
                },
                {
                    "name": "_signature",
                    "type": "bytes",
                    "internalType": "bytes"
                }
            ],
            "outputs": [],
            "stateMutability": "nonpayable"
        },
        {
            "type": "event",
            "name": "ContributionSubmitted",
            "inputs": [
                {
                    "name": "projectId",
                    "type": "uint256",
                    "indexed": true,
                    "internalType": "uint256"
                },
                {
                    "name": "round",
                    "type": "uint256",
                    "indexed": true,
                    "internalType": "uint256"
                },
                {
                    "name": "participant",
                    "type": "address",
                    "indexed": true,
                    "internalType": "address"
                }
            ],
            "anonymous": false
        },
        {
            "type": "event",
            "name": "ParticipantJoined",
            "inputs": [
                {
                    "name": "projectId",
                    "type": "uint256",
                    "indexed": true,
                    "internalType": "uint256"
                },
                {
                    "name": "participant",
                    "type": "address",
                    "indexed": true,
                    "internalType": "address"
                }
            ],
            "anonymous": false
        },
        {
            "type": "event",
            "name": "ProjectCreated",
            "inputs": [
                {
                    "name": "projectId",
                    "type": "uint256",
                    "indexed": true,
                    "internalType": "uint256"
                },
                {
                    "name": "initiator",
                    "type": "address",
                    "indexed": true,
                    "internalType": "address"
                },
                {
                    "name": "initialCID",
                    "type": "string",
                    "indexed": false,
                    "internalType": "string"
                }
            ],
            "anonymous": false
        },
        {
            "type": "event",
            "name": "RoundFinalized",
            "inputs": [
                {
                    "name": "projectId",
                    "type": "uint256",
                    "indexed": true,
                    "internalType": "uint256"
                },
                {
                    "name": "round",
                    "type": "uint256",
                    "indexed": true,
                    "internalType": "uint256"
                },
                {
                    "name": "newGlobalCID",
                    "type": "string",
                    "indexed": false,
                    "internalType": "string"
                }
            ],
            "anonymous": false
        }
    ],
    "bytecode": {
        "object": "0x6080604052348015600e575f5ffd5b50611ff38061001c5f395ff3fe608060405234801561000f575f5ffd5b50600436106100e8575f3560e01c8063890cadf01161008a578063b81f6e1811610064578063b81f6e181461025f578063db051e041461028f578063df98e5f9146102c3578063f0432cdc146102df576100e8565b8063890cadf0146101f557806398b29a96146102275780639ca7938e14610243576100e8565b806336fbad26116100c657806336fbad2614610181578063570810e21461019f5780636bd06204146101bb5780636e126d55146101d7576100e8565b806309e69ede146100ec578063107046bd1461011d57806314333f8e14610151575b5f5ffd5b610106600480360381019061010191906110b9565b6102fd565b60405161011492919061116e565b60405180910390f35b610137600480360381019061013291906111cf565b6103af565b604051610148959493929190611218565b60405180910390f35b61016b600480360381019061016691906111cf565b610518565b6040516101789190611277565b60405180910390f35b610189610580565b6040516101969190611290565b60405180910390f35b6101b960048036038101906101b491906113d5565b610585565b005b6101d560048036038101906101d0919061141c565b61062c565b005b6101df6107ae565b6040516101ec9190611290565b60405180910390f35b61020f600480360381019061020a9190611492565b6107b3565b60405161021e939291906114d0565b60405180910390f35b610241600480360381019061023c9190611505565b6107f0565b005b61025d60048036038101906102589190611630565b6109c6565b005b610279600480360381019061027491906116cc565b610c8f565b6040516102869190611277565b60405180910390f35b6102a960048036038101906102a4919061170a565b610cb9565b6040516102ba9594939291906117bb565b60405180910390f35b6102dd60048036038101906102d891906111cf565b610e19565b005b6102e7611049565b6040516102f49190611290565b60405180910390f35b6001602052805f5260405f205f91509050805f01805461031c90611847565b80601f016020809104026020016040519081016040528092919081815260200182805461034890611847565b80156103935780601f1061036a57610100808354040283529160200191610393565b820191905f5260205f20905b81548152906001019060200180831161037657829003601f168201915b505050505090806001015f9054906101000a900460ff16905082565b6002602052805f5260405f205f91509050805f015f9054906101000a900473ffffffffffffffffffffffffffffffffffffffff16908060010180546103f390611847565b80601f016020809104026020016040519081016040528092919081815260200182805461041f90611847565b801561046a5780601f106104415761010080835404028352916020019161046a565b820191905f5260205f20905b81548152906001019060200180831161044d57829003601f168201915b505050505090806002015490806003015f9054906101000a900460ff169080600401805461049790611847565b80601f01602080910402602001604051908101604052809291908181526020018280546104c390611847565b801561050e5780601f106104e55761010080835404028352916020019161050e565b820191905f5260205f20905b8154815290600101906020018083116104f157829003601f168201915b5050505050905085565b5f5f60025f8481526020019081526020015f2090505f60055f8581526020019081526020015f205f836002015481526020019081526020015f2090505f60038260010154101590505f600583600101541015905080806105755750815b945050505050919050565b5f5481565b8060015f3373ffffffffffffffffffffffffffffffffffffffff1673ffffffffffffffffffffffffffffffffffffffff1681526020019081526020015f205f0190816105d19190611a28565b506001805f3373ffffffffffffffffffffffffffffffffffffffff1673ffffffffffffffffffffffffffffffffffffffff1681526020019081526020015f206001015f6101000a81548160ff02191690831515021790555050565b5f5f81548092919061063d90611b24565b91905055506040518060a001604052803373ffffffffffffffffffffffffffffffffffffffff168152602001838152602001600181526020016001151581526020018281525060025f5f5481526020019081526020015f205f820151815f015f6101000a81548173ffffffffffffffffffffffffffffffffffffffff021916908373ffffffffffffffffffffffffffffffffffffffff16021790555060208201518160010190816106ee9190611a28565b50604082015181600201556060820151816003015f6101000a81548160ff021916908315150217905550608082015181600401908161072d9190611a28565b509050504260055f5f5481526020019081526020015f205f600181526020019081526020015f205f01819055503373ffffffffffffffffffffffffffffffffffffffff165f547f9d9ec461f162f3f4fdb9f6d189bfe13c59e48d8acd23a4c3bfcf7cc0fe4e84ed846040516107a29190611b6b565b60405180910390a35050565b600581565b6005602052815f5260405f20602052805f5260405f205f9150915050805f015490806001015490806002015f9054906101000a900460ff16905083565b813373ffffffffffffffffffffffffffffffffffffffff1660025f8381526020019081526020015f205f015f9054906101000a900473ffffffffffffffffffffffffffffffffffffffff1673ffffffffffffffffffffffffffffffffffffffff1614610891576040517f08c379a000000000000000000000000000000000000000000000000000000000815260040161088890611bd5565b60405180910390fd5b61089a83610518565b6108d9576040517f08c379a00000000000000000000000000000000000000000000000000000000081526004016108d090611c3d565b60405180910390fd5b5f60025f8581526020019081526020015f2090505f81600201549050600160055f8781526020019081526020015f205f8381526020019081526020015f206002015f6101000a81548160ff021916908315150217905550838260010190816109419190611a28565b50816002015f81548092919061095690611b24565b91905055504260055f8781526020019081526020015f205f846002015481526020019081526020015f205f018190555080857fd56a11b23d9b4d97988bc90f91ecbdd133a8efd341fd2c9f37f68d5bd34b1b81866040516109b79190611b6b565b60405180910390a35050505050565b60035f8581526020019081526020015f205f3373ffffffffffffffffffffffffffffffffffffffff1673ffffffffffffffffffffffffffffffffffffffff1681526020019081526020015f205f9054906101000a900460ff16610a5e576040517f08c379a0000000000000000000000000000000000000000000000000000000008152600401610a5590611ca5565b60405180910390fd5b5f60025f8681526020019081526020015f2090505f8160020154905060045f8781526020019081526020015f205f8281526020019081526020015f205f3373ffffffffffffffffffffffffffffffffffffffff1673ffffffffffffffffffffffffffffffffffffffff1681526020019081526020015f206004015f9054906101000a900460ff1615610b25576040517f08c379a0000000000000000000000000000000000000000000000000000000008152600401610b1c90611d0d565b60405180910390fd5b6040518060a001604052808681526020018581526020018481526020014281526020016001151581525060045f8881526020019081526020015f205f8381526020019081526020015f205f3373ffffffffffffffffffffffffffffffffffffffff1673ffffffffffffffffffffffffffffffffffffffff1681526020019081526020015f205f820151815f019081610bbd9190611a28565b50602082015181600101556040820151816002019081610bdd9190611d90565b50606082015181600301556080820151816004015f6101000a81548160ff02191690831515021790555090505060055f8781526020019081526020015f205f8281526020019081526020015f206001015f815480929190610c3d90611b24565b91905055503373ffffffffffffffffffffffffffffffffffffffff1681877f0a1434dacefe3f97a915af6e7875e6bcb733eb568e5a033cbc118f05b404e5ae60405160405180910390a4505050505050565b6003602052815f5260405f20602052805f5260405f205f915091509054906101000a900460ff1681565b6004602052825f5260405f20602052815f5260405f20602052805f5260405f205f925092505050805f018054610cee90611847565b80601f0160208091040260200160405190810160405280929190818152602001828054610d1a90611847565b8015610d655780601f10610d3c57610100808354040283529160200191610d65565b820191905f5260205f20905b815481529060010190602001808311610d4857829003601f168201915b505050505090806001015490806002018054610d8090611847565b80601f0160208091040260200160405190810160405280929190818152602001828054610dac90611847565b8015610df75780601f10610dce57610100808354040283529160200191610df7565b820191905f5260205f20905b815481529060010190602001808311610dda57829003601f168201915b505050505090806003015490806004015f9054906101000a900460ff16905085565b60025f8281526020019081526020015f206003015f9054906101000a900460ff16610e79576040517f08c379a0000000000000000000000000000000000000000000000000000000008152600401610e7090611ea9565b60405180910390fd5b60015f3373ffffffffffffffffffffffffffffffffffffffff1673ffffffffffffffffffffffffffffffffffffffff1681526020019081526020015f206001015f9054906101000a900460ff16610f05576040517f08c379a0000000000000000000000000000000000000000000000000000000008152600401610efc90611f37565b60405180910390fd5b60035f8281526020019081526020015f205f3373ffffffffffffffffffffffffffffffffffffffff1673ffffffffffffffffffffffffffffffffffffffff1681526020019081526020015f205f9054906101000a900460ff1615610f9e576040517f08c379a0000000000000000000000000000000000000000000000000000000008152600401610f9590611f9f565b60405180910390fd5b600160035f8381526020019081526020015f205f3373ffffffffffffffffffffffffffffffffffffffff1673ffffffffffffffffffffffffffffffffffffffff1681526020019081526020015f205f6101000a81548160ff0219169083151502179055503373ffffffffffffffffffffffffffffffffffffffff16817f7dd8cb04159701bc1976c246434d7d96812782e7489e6c5c34db49a388fe9e8060405160405180910390a350565b600381565b5f604051905090565b5f5ffd5b5f5ffd5b5f73ffffffffffffffffffffffffffffffffffffffff82169050919050565b5f6110888261105f565b9050919050565b6110988161107e565b81146110a2575f5ffd5b50565b5f813590506110b38161108f565b92915050565b5f602082840312156110ce576110cd611057565b5b5f6110db848285016110a5565b91505092915050565b5f81519050919050565b5f82825260208201905092915050565b8281835e5f83830152505050565b5f601f19601f8301169050919050565b5f611126826110e4565b61113081856110ee565b93506111408185602086016110fe565b6111498161110c565b840191505092915050565b5f8115159050919050565b61116881611154565b82525050565b5f6040820190508181035f830152611186818561111c565b9050611195602083018461115f565b9392505050565b5f819050919050565b6111ae8161119c565b81146111b8575f5ffd5b50565b5f813590506111c9816111a5565b92915050565b5f602082840312156111e4576111e3611057565b5b5f6111f1848285016111bb565b91505092915050565b6112038161107e565b82525050565b6112128161119c565b82525050565b5f60a08201905061122b5f8301886111fa565b818103602083015261123d818761111c565b905061124c6040830186611209565b611259606083018561115f565b818103608083015261126b818461111c565b90509695505050505050565b5f60208201905061128a5f83018461115f565b92915050565b5f6020820190506112a35f830184611209565b92915050565b5f5ffd5b5f5ffd5b7f4e487b71000000000000000000000000000000000000000000000000000000005f52604160045260245ffd5b6112e78261110c565b810181811067ffffffffffffffff82111715611306576113056112b1565b5b80604052505050565b5f61131861104e565b905061132482826112de565b919050565b5f67ffffffffffffffff821115611343576113426112b1565b5b61134c8261110c565b9050602081019050919050565b828183375f83830152505050565b5f61137961137484611329565b61130f565b905082815260208101848484011115611395576113946112ad565b5b6113a0848285611359565b509392505050565b5f82601f8301126113bc576113bb6112a9565b5b81356113cc848260208601611367565b91505092915050565b5f602082840312156113ea576113e9611057565b5b5f82013567ffffffffffffffff8111156114075761140661105b565b5b611413848285016113a8565b91505092915050565b5f5f6040838503121561143257611431611057565b5b5f83013567ffffffffffffffff81111561144f5761144e61105b565b5b61145b858286016113a8565b925050602083013567ffffffffffffffff81111561147c5761147b61105b565b5b611488858286016113a8565b9150509250929050565b5f5f604083850312156114a8576114a7611057565b5b5f6114b5858286016111bb565b92505060206114c6858286016111bb565b9150509250929050565b5f6060820190506114e35f830186611209565b6114f06020830185611209565b6114fd604083018461115f565b949350505050565b5f5f6040838503121561151b5761151a611057565b5b5f611528858286016111bb565b925050602083013567ffffffffffffffff8111156115495761154861105b565b5b611555858286016113a8565b9150509250929050565b5f819050919050565b6115718161155f565b811461157b575f5ffd5b50565b5f8135905061158c81611568565b92915050565b5f67ffffffffffffffff8211156115ac576115ab6112b1565b5b6115b58261110c565b9050602081019050919050565b5f6115d46115cf84611592565b61130f565b9050828152602081018484840111156115f0576115ef6112ad565b5b6115fb848285611359565b509392505050565b5f82601f830112611617576116166112a9565b5b81356116278482602086016115c2565b91505092915050565b5f5f5f5f6080858703121561164857611647611057565b5b5f611655878288016111bb565b945050602085013567ffffffffffffffff8111156116765761167561105b565b5b611682878288016113a8565b93505060406116938782880161157e565b925050606085013567ffffffffffffffff8111156116b4576116b361105b565b5b6116c087828801611603565b91505092959194509250565b5f5f604083850312156116e2576116e1611057565b5b5f6116ef858286016111bb565b9250506020611700858286016110a5565b9150509250929050565b5f5f5f6060848603121561172157611720611057565b5b5f61172e868287016111bb565b935050602061173f868287016111bb565b9250506040611750868287016110a5565b9150509250925092565b6117638161155f565b82525050565b5f81519050919050565b5f82825260208201905092915050565b5f61178d82611769565b6117978185611773565b93506117a78185602086016110fe565b6117b08161110c565b840191505092915050565b5f60a0820190508181035f8301526117d3818861111c565b90506117e2602083018761175a565b81810360408301526117f48186611783565b90506118036060830185611209565b611810608083018461115f565b9695505050505050565b7f4e487b71000000000000000000000000000000000000000000000000000000005f52602260045260245ffd5b5f600282049050600182168061185e57607f821691505b6020821081036118715761187061181a565b5b50919050565b5f819050815f5260205f209050919050565b5f6020601f8301049050919050565b5f82821b905092915050565b5f600883026118d37fffffffffffffffffffffffffffffffffffffffffffffffffffffffffffffffff82611898565b6118dd8683611898565b95508019841693508086168417925050509392505050565b5f819050919050565b5f61191861191361190e8461119c565b6118f5565b61119c565b9050919050565b5f819050919050565b611931836118fe565b61194561193d8261191f565b8484546118a4565b825550505050565b5f5f905090565b61195c61194d565b611967818484611928565b505050565b5f5b8281101561198d576119825f828401611954565b60018101905061196e565b505050565b601f8211156119e057828211156119df576119ac81611877565b6119b583611889565b6119be85611889565b60208610156119cb575f90505b8083016119da8284038261196c565b505050505b5b505050565b5f82821c905092915050565b5f611a005f19846008026119e5565b1980831691505092915050565b5f611a1883836119f1565b9150826002028217905092915050565b611a31826110e4565b67ffffffffffffffff811115611a4a57611a496112b1565b5b611a548254611847565b611a5f828285611992565b5f60209050601f831160018114611a90575f8415611a7e578287015190505b611a888582611a0d565b865550611aef565b601f198416611a9e86611877565b5f5b82811015611ac557848901518255600182019150602085019450602081019050611aa0565b86831015611ae25784890151611ade601f8916826119f1565b8355505b6001600288020188555050505b505050505050565b7f4e487b71000000000000000000000000000000000000000000000000000000005f52601160045260245ffd5b5f611b2e8261119c565b91507fffffffffffffffffffffffffffffffffffffffffffffffffffffffffffffffff8203611b6057611b5f611af7565b5b600182019050919050565b5f6020820190508181035f830152611b83818461111c565b905092915050565b7f42756b616e20696e69736961746f722070726f79656b20696e690000000000005f82015250565b5f611bbf601a836110ee565b9150611bca82611b8b565b602082019050919050565b5f6020820190508181035f830152611bec81611bb3565b9050919050565b7f5379617261742061677265676173692062656c756d2074657270656e756869005f82015250565b5f611c27601f836110ee565b9150611c3282611bf3565b602082019050919050565b5f6020820190508181035f830152611c5481611c1b565b9050919050565b7f42656c756d20626572676162756e6700000000000000000000000000000000005f82015250565b5f611c8f600f836110ee565b9150611c9a82611c5b565b602082019050919050565b5f6020820190508181035f830152611cbc81611c83565b9050919050565b7f5375646168207375626d697420646920726f756e6420696e69000000000000005f82015250565b5f611cf76019836110ee565b9150611d0282611cc3565b602082019050919050565b5f6020820190508181035f830152611d2481611ceb565b9050919050565b5f819050815f5260205f209050919050565b601f821115611d8b5782821115611d8a57611d5781611d2b565b611d6083611889565b611d6985611889565b6020861015611d76575f90505b808301611d858284038261196c565b505050505b5b505050565b611d9982611769565b67ffffffffffffffff811115611db257611db16112b1565b5b611dbc8254611847565b611dc7828285611d3d565b5f60209050601f831160018114611df8575f8415611de6578287015190505b611df08582611a0d565b865550611e57565b601f198416611e0686611d2b565b5f5b82811015611e2d57848901518255600182019150602085019450602081019050611e08565b86831015611e4a5784890151611e46601f8916826119f1565b8355505b6001600288020188555050505b505050505050565b7f50726f79656b20746964616b20616b74696600000000000000000000000000005f82015250565b5f611e936012836110ee565b9150611e9e82611e5f565b602082019050919050565b5f6020820190508181035f830152611ec081611e87565b9050919050565b7f4461667461726b616e2044494420416e6461207465726c6562696820646168755f8201527f6c75000000000000000000000000000000000000000000000000000000000000602082015250565b5f611f216022836110ee565b9150611f2c82611ec7565b604082019050919050565b5f6020820190508181035f830152611f4e81611f15565b9050919050565b7f537564616820626572676162756e6700000000000000000000000000000000005f82015250565b5f611f89600f836110ee565b9150611f9482611f55565b602082019050919050565b5f6020820190508181035f830152611fb681611f7d565b905091905056fea2646970667358221220b691a1677e5d37ee27a38dbec94e1698d68720a96c6d5969083a745cc20dbb7164736f6c63430008210033",
        "linkReferences": {}
    },
    "methodIdentifiers": {
        "MIN_CLIENTS()": "f0432cdc",
        "TOTAL_CLIENTS()": "6e126d55",
        "canAggregate(uint256)": "14333f8e",
        "contributions(uint256,uint256,address)": "db051e04",
        "createProject(string,string)": "6bd06204",
        "finalizeRound(uint256,string)": "98b29a96",
        "isRegistered(uint256,address)": "b81f6e18",
        "joinProject(uint256)": "df98e5f9",
        "participants(address)": "09e69ede",
        "projectCount()": "36fbad26",
        "projectRounds(uint256,uint256)": "890cadf0",
        "projects(uint256)": "107046bd",
        "registerDID(string)": "570810e2",
        "submitUpdate(uint256,string,bytes32,bytes)": "9ca7938e"
    },
    "id": 0
}