{
    "abi": [
        {
            "type": "function",
            "name": "MIN_CLIENTS",
            "inputs": [],
            "outputs": [
                {
                    "name": "",
                    "type": "uint256",
                    "internalType": "uint256"
                }
            ],
            "stateMutability": "view"
        },
        {
            "type": "function",
            "name": "REWARD_PER_CONTRIBUTION_MIN",
            "inputs": [],
            "outputs": [
                {
                    "name": "",
                    "type": "uint256",
                    "internalType": "uint256"
                }
            ],
            "stateMutability": "view"
        },
        {
            "type": "function",
            "name": "REWARD_PER_ROUND",
            "inputs": [],
            "outputs": [
                {
                    "name": "",
                    "type": "uint256",
                    "internalType": "uint256"
                }
            ],
            "stateMutability": "view"
        },
        {
            "type": "function",
            "name": "TOTAL_CLIENTS",
            "inputs": [],
            "outputs": [
                {
                    "name": "",
                    "type": "uint256",
                    "internalType": "uint256"
                }
            ],
            "stateMutability": "view"
        },
        {
            "type": "function",
            "name": "canAggregate",
            "inputs": [
                {
                    "name": "_projectId",
                    "type": "uint256",
                    "internalType": "uint256"
                }
            ],
            "outputs": [
                {
                    "name": "",
                    "type": "bool",
                    "internalType": "bool"
                }
            ],
            "stateMutability": "view"
        },
        {
            "type": "function",
            "name": "contributions",
            "inputs": [
                {
                    "name": "",
                    "type": "uint256",
                    "internalType": "uint256"
                },
                {
                    "name": "",
                    "type": "uint256",
                    "internalType": "uint256"
                },
                {
                    "name": "",
                    "type": "address",
                    "internalType": "address"
                }
            ],
            "outputs": [
                {
                    "name": "modelUpdateCID",
                    "type": "string",
                    "internalType": "string"
                },
                {
                    "name": "contentHash",
                    "type": "bytes32",
                    "internalType": "bytes32"
                },
                {
                    "name": "signature",
                    "type": "bytes",
                    "internalType": "bytes"
                },
                {
                    "name": "timestamp",
                    "type": "uint256",
                    "internalType": "uint256"
                },
                {
                    "name": "exists",
                    "type": "bool",
                    "internalType": "bool"
                }
            ],
            "stateMutability": "view"
        },
        {
            "type": "function",
            "name": "createProject",
            "inputs": [
                {
                    "name": "_initialModelCID",
                    "type": "string",
                    "internalType": "string"
                },
                {
                    "name": "_name",
                    "type": "string",
                    "internalType": "string"
                },
                {
                    "name": "_description",
                    "type": "string",
                    "internalType": "string"
                },
                {
                    "name": "_modelName",
                    "type": "string",
                    "internalType": "string"
                }
            ],
            "outputs": [],
            "stateMutability": "payable"
        },
        {
            "type": "function",
            "name": "finalizeProject",
            "inputs": [
                {
                    "name": "_projectId",
                    "type": "uint256",
                    "internalType": "uint256"
                }
            ],
            "outputs": [],
            "stateMutability": "nonpayable"
        },
        {
            "type": "function",
            "name": "finalizeRound",
            "inputs": [
                {
                    "name": "_projectId",
                    "type": "uint256",
                    "internalType": "uint256"
                },
                {
                    "name": "_newGlobalModelCID",
                    "type": "string",
                    "internalType": "string"
                },
                {
                    "name": "_participants",
                    "type": "address[]",
                    "internalType": "address[]"
                },
                {
                    "name": "_scores",
                    "type": "uint256[]",
                    "internalType": "uint256[]"
                }
            ],
            "outputs": [],
            "stateMutability": "nonpayable"
        },
        {
            "type": "function",
            "name": "isRegistered",
            "inputs": [
                {
                    "name": "",
                    "type": "uint256",
                    "internalType": "uint256"
                },
                {
                    "name": "",
                    "type": "address",
                    "internalType": "address"
                }
            ],
            "outputs": [
                {
                    "name": "",
                    "type": "bool",
                    "internalType": "bool"
                }
            ],
            "stateMutability": "view"
        },
        {
            "type": "function",
            "name": "joinProject",
            "inputs": [
                {
                    "name": "_projectId",
                    "type": "uint256",
                    "internalType": "uint256"
                }
            ],
            "outputs": [],
            "stateMutability": "nonpayable"
        },
        {
            "type": "function",
            "name": "participants",
            "inputs": [
                {
                    "name": "",
                    "type": "address",
                    "internalType": "address"
                }
            ],
            "outputs": [
                {
                    "name": "did",
                    "type": "string",
                    "internalType": "string"
                },
                {
                    "name": "isRegistered",
                    "type": "bool",
                    "internalType": "bool"
                }
            ],
            "stateMutability": "view"
        },
        {
            "type": "function",
            "name": "projectCount",
            "inputs": [],
            "outputs": [
                {
                    "name": "",
                    "type": "uint256",
                    "internalType": "uint256"
                }
            ],
            "stateMutability": "view"
        },
        {
            "type": "function",
            "name": "projectRounds",
            "inputs": [
                {
                    "name": "",
                    "type": "uint256",
                    "internalType": "uint256"
                },
                {
                    "name": "",
                    "type": "uint256",
                    "internalType": "uint256"
                }
            ],
            "outputs": [
                {
                    "name": "startTime",
                    "type": "uint256",
                    "internalType": "uint256"
                },
                {
                    "name": "submissionCount",
                    "type": "uint256",
                    "internalType": "uint256"
                },
                {
                    "name": "finalized",
                    "type": "bool",
                    "internalType": "bool"
                }
            ],
            "stateMutability": "view"
        },
        {
            "type": "function",
            "name": "projects",
            "inputs": [
                {
                    "name": "",
                    "type": "uint256",
                    "internalType": "uint256"
                }
            ],
            "outputs": [
                {
                    "name": "initiator",
                    "type": "address",
                    "internalType": "address"
                },
                {
                    "name": "globalModelCID",
                    "type": "string",
                    "internalType": "string"
                },
                {
                    "name": "roundNumber",
                    "type": "uint256",
                    "internalType": "uint256"
                },
                {
                    "name": "isActive",
                    "type": "bool",
                    "internalType": "bool"
                },
                {
                    "name": "name",
                    "type": "string",
                    "internalType": "string"
                },
                {
                    "name": "description",
                    "type": "string",
                    "internalType": "string"
                },
                {
                    "name": "modelName",
                    "type": "string",
                    "internalType": "string"
                },
                {
                    "name": "totalBudget",
                    "type": "uint256",
                    "internalType": "uint256"
                }
            ],
            "stateMutability": "view"
        },
        {
            "type": "function",
            "name": "registerDID",
            "inputs": [
                {
                    "name": "_did",
                    "type": "string",
                    "internalType": "string"
                }
            ],
            "outputs": [],
            "stateMutability": "nonpayable"
        },
        {
            "type": "function",
            "name": "rewards",
            "inputs": [
                {
                    "name": "",
                    "type": "address",
                    "internalType": "address"
                }
            ],
            "outputs": [
                {
                    "name": "",
                    "type": "uint256",
                    "internalType": "uint256"
                }
            ],
            "stateMutability": "view"
        },
        {
            "type": "function",
            "name": "submitUpdate",
            "inputs": [
                {
                    "name": "_projectId",
                    "type": "uint256",
                    "internalType": "uint256"
                },
                {
                    "name": "_modelUpdateCID",
                    "type": "string",
                    "internalType": "string"
                },
                {
                    "name": "_contentHash",
                    "type": "bytes32",
                    "internalType": "bytes32"
                },
                {
                    "name": "_signature",
                    "type": "bytes",
                    "internalType": "bytes"
                }
            ],
            "outputs": [],
            "stateMutability": "nonpayable"
        },
        {
            "type": "function",
            "name": "withdrawRewards",
            "inputs": [],
            "outputs": [],
            "stateMutability": "nonpayable"
        },
        {
            "type": "event",
            "name": "ContributionSubmitted",
            "inputs": [
                {
                    "name": "projectId",
                    "type": "uint256",
                    "indexed": true,
                    "internalType": "uint256"
                },
                {
                    "name": "round",
                    "type": "uint256",
                    "indexed": true,
                    "internalType": "uint256"
                },
                {
                    "name": "participant",
                    "type": "address",
                    "indexed": true,
                    "internalType": "address"
                }
            ],
            "anonymous": false
        },
        {
            "type": "event",
            "name": "ParticipantJoined",
            "inputs": [
                {
                    "name": "projectId",
                    "type": "uint256",
                    "indexed": true,
                    "internalType": "uint256"
                },
                {
                    "name": "participant",
                    "type": "address",
                    "indexed": true,
                    "internalType": "address"
                }
            ],
            "anonymous": false
        },
        {
            "type": "event",
            "name": "ProjectCreated",
            "inputs": [
                {
                    "name": "projectId",
                    "type": "uint256",
                    "indexed": true,
                    "internalType": "uint256"
                },
                {
                    "name": "initiator",
                    "type": "address",
                    "indexed": true,
                    "internalType": "address"
                },
                {
                    "name": "initialCID",
                    "type": "string",
                    "indexed": false,
                    "internalType": "string"
                }
            ],
            "anonymous": false
        },
        {
            "type": "event",
            "name": "ProjectFinalized",
            "inputs": [
                {
                    "name": "projectId",
                    "type": "uint256",
                    "indexed": true,
                    "internalType": "uint256"
                },
                {
                    "name": "finalRound",
                    "type": "uint256",
                    "indexed": false,
                    "internalType": "uint256"
                },
                {
                    "name": "finalModelCID",
                    "type": "string",
                    "indexed": false,
                    "internalType": "string"
                }
            ],
            "anonymous": false
        },
        {
            "type": "event",
            "name": "RoundFinalized",
            "inputs": [
                {
                    "name": "projectId",
                    "type": "uint256",
                    "indexed": true,
                    "internalType": "uint256"
                },
                {
                    "name": "round",
                    "type": "uint256",
                    "indexed": true,
                    "internalType": "uint256"
                },
                {
                    "name": "newGlobalCID",
                    "type": "string",
                    "indexed": false,
                    "internalType": "string"
                }
            ],
            "anonymous": false
        }
    ],
    "bytecode": {
        "object": "0x6080604052348015600e575f5ffd5b50612fa68061001c5f395ff3fe608060405260043610610113575f3560e01c806381ff3e4b1161009f578063c7b8981c11610063578063c7b8981c146103c5578063d37f8c6c146103db578063db051e0414610403578063df98e5f914610443578063f0432cdc1461046b57610113565b806381ff3e4b146102dd578063890cadf0146103075780639ca7938e14610345578063a26ac3751461036d578063b81f6e181461038957610113565b806314333f8e116100e657806314333f8e146101fd57806336fbad26146102395780634d798de514610263578063570810e21461028b5780636e126d55146102b357610113565b80630700037d1461011757806309e69ede14610153578063107046bd1461019057806310aab5ff146101d3575b5f5ffd5b348015610122575f5ffd5b5061013d600480360381019061013891906119fd565b610495565b60405161014a9190611a40565b60405180910390f35b34801561015e575f5ffd5b50610179600480360381019061017491906119fd565b6104aa565b604051610187929190611ae3565b60405180910390f35b34801561019b575f5ffd5b506101b660048036038101906101b19190611b3b565b61055c565b6040516101ca989796959493929190611b75565b60405180910390f35b3480156101de575f5ffd5b506101e76107e3565b6040516101f49190611a40565b60405180910390f35b348015610208575f5ffd5b50610223600480360381019061021e9190611b3b565b6107ee565b6040516102309190611c0d565b60405180910390f35b348015610244575f5ffd5b5061024d610856565b60405161025a9190611a40565b60405180910390f35b34801561026e575f5ffd5b5061028960048036038101906102849190611b3b565b61085b565b005b348015610296575f5ffd5b506102b160048036038101906102ac9190611d52565b6109ec565b005b3480156102be575f5ffd5b506102c7610a93565b6040516102d49190611a40565b60405180910390f35b3480156102e8575f5ffd5b506102f1610a98565b6040516102fe9190611a40565b60405180910390f35b348015610312575f5ffd5b5061032d60048036038101906103289190611d99565b610aa3565b60405161033c93929190611dd7565b60405180910390f35b348015610350575f5ffd5b5061036b60048036038101906103669190611edd565b610ae0565b005b61038760048036038101906103829190611f79565b610e04565b005b348015610394575f5ffd5b506103af60048036038101906103aa919061204d565b61105d565b6040516103bc9190611c0d565b60405180910390f35b3480156103d0575f5ffd5b506103d9611087565b005b3480156103e6575f5ffd5b5061040160048036038101906103fc919061220f565b6111f8565b005b34801561040e575f5ffd5b50610429600480360381019061042491906122c7565b61155d565b60405161043a959493929190612378565b60405180910390f35b34801561044e575f5ffd5b5061046960048036038101906104649190611b3b565b6116bd565b005b348015610476575f5ffd5b5061047f61198d565b60405161048c9190611a40565b60405180910390f35b6003602052805f5260405f205f915090505481565b6001602052805f5260405f205f91509050805f0180546104c990612404565b80601f01602080910402602001604051908101604052809291908181526020018280546104f590612404565b80156105405780601f1061051757610100808354040283529160200191610540565b820191905f5260205f20905b81548152906001019060200180831161052357829003601f168201915b505050505090806001015f9054906101000a900460ff16905082565b6002602052805f5260405f205f91509050805f015f9054906101000a900473ffffffffffffffffffffffffffffffffffffffff16908060010180546105a090612404565b80601f01602080910402602001604051908101604052809291908181526020018280546105cc90612404565b80156106175780601f106105ee57610100808354040283529160200191610617565b820191905f5260205f20905b8154815290600101906020018083116105fa57829003601f168201915b505050505090806002015490806003015f9054906101000a900460ff169080600401805461064490612404565b80601f016020809104026020016040519081016040528092919081815260200182805461067090612404565b80156106bb5780601f10610692576101008083540402835291602001916106bb565b820191905f5260205f20905b81548152906001019060200180831161069e57829003601f168201915b5050505050908060050180546106d090612404565b80601f01602080910402602001604051908101604052809291908181526020018280546106fc90612404565b80156107475780601f1061071e57610100808354040283529160200191610747565b820191905f5260205f20905b81548152906001019060200180831161072a57829003601f168201915b50505050509080600601805461075c90612404565b80601f016020809104026020016040519081016040528092919081815260200182805461078890612404565b80156107d35780601f106107aa576101008083540402835291602001916107d3565b820191905f5260205f20905b8154815290600101906020018083116107b657829003601f168201915b5050505050908060070154905088565b662386f26fc1000081565b5f5f60025f8481526020019081526020015f2090505f60065f8581526020019081526020015f205f836002015481526020019081526020015f2090505f60038260010154101590505f6005836001015410159050808061084b5750815b945050505050919050565b5f5481565b803373ffffffffffffffffffffffffffffffffffffffff1660025f8381526020019081526020015f205f015f9054906101000a900473ffffffffffffffffffffffffffffffffffffffff1673ffffffffffffffffffffffffffffffffffffffff16146108fc576040517f08c379a00000000000000000000000000000000000000000000000000000000081526004016108f39061247e565b60405180910390fd5b60025f8381526020019081526020015f206003015f9054906101000a900460ff1661095c576040517f08c379a0000000000000000000000000000000000000000000000000000000008152600401610953906124e6565b60405180910390fd5b5f60025f8481526020019081526020015f206003015f6101000a81548160ff021916908315150217905550817f97ace935457fbaa9ea914c812c15b14bb7d41f40cc67c3e65917ac7318537ef860025f8581526020019081526020015f206002015460025f8681526020019081526020015f206001016040516109e0929190612597565b60405180910390a25050565b8060015f3373ffffffffffffffffffffffffffffffffffffffff1673ffffffffffffffffffffffffffffffffffffffff1681526020019081526020015f205f019081610a389190612764565b506001805f3373ffffffffffffffffffffffffffffffffffffffff1673ffffffffffffffffffffffffffffffffffffffff1681526020019081526020015f206001015f6101000a81548160ff02191690831515021790555050565b600581565b66038d7ea4c6800081565b6006602052815f5260405f20602052805f5260405f205f9150915050805f015490806001015490806002015f9054906101000a900460ff16905083565b60025f8581526020019081526020015f206003015f9054906101000a900460ff16610b40576040517f08c379a0000000000000000000000000000000000000000000000000000000008152600401610b37906124e6565b60405180910390fd5b60045f8581526020019081526020015f205f3373ffffffffffffffffffffffffffffffffffffffff1673ffffffffffffffffffffffffffffffffffffffff1681526020019081526020015f205f9054906101000a900460ff16610bd8576040517f08c379a0000000000000000000000000000000000000000000000000000000008152600401610bcf9061287d565b60405180910390fd5b5f60025f8681526020019081526020015f2060020154905060055f8681526020019081526020015f205f8281526020019081526020015f205f3373ffffffffffffffffffffffffffffffffffffffff1673ffffffffffffffffffffffffffffffffffffffff1681526020019081526020015f206004015f9054906101000a900460ff1615610c9b576040517f08c379a0000000000000000000000000000000000000000000000000000000008152600401610c92906128e5565b60405180910390fd5b6040518060a001604052808581526020018481526020018381526020014281526020016001151581525060055f8781526020019081526020015f205f8381526020019081526020015f205f3373ffffffffffffffffffffffffffffffffffffffff1673ffffffffffffffffffffffffffffffffffffffff1681526020019081526020015f205f820151815f019081610d339190612764565b50602082015181600101556040820151816002019081610d539190612968565b50606082015181600301556080820151816004015f6101000a81548160ff02191690831515021790555090505060065f8681526020019081526020015f205f8281526020019081526020015f206001015f815480929190610db390612a64565b91905055503373ffffffffffffffffffffffffffffffffffffffff1681867f0a1434dacefe3f97a915af6e7875e6bcb733eb568e5a033cbc118f05b404e5ae60405160405180910390a45050505050565b60015f3373ffffffffffffffffffffffffffffffffffffffff1673ffffffffffffffffffffffffffffffffffffffff1681526020019081526020015f206001015f9054906101000a900460ff16610e90576040517f08c379a0000000000000000000000000000000000000000000000000000000008152600401610e8790612b1b565b60405180910390fd5b5f5f815480929190610ea190612a64565b91905055506040518061010001604052803373ffffffffffffffffffffffffffffffffffffffff168152602001858152602001600181526020016001151581526020018481526020018381526020018281526020013481525060025f5f5481526020019081526020015f205f820151815f015f6101000a81548173ffffffffffffffffffffffffffffffffffffffff021916908373ffffffffffffffffffffffffffffffffffffffff1602179055506020820151816001019081610f659190612764565b50604082015181600201556060820151816003015f6101000a81548160ff0219169083151502179055506080820151816004019081610fa49190612764565b5060a0820151816005019081610fba9190612764565b5060c0820151816006019081610fd09190612764565b5060e082015181600701559050504260065f5f5481526020019081526020015f205f600181526020019081526020015f205f01819055503373ffffffffffffffffffffffffffffffffffffffff165f547f9d9ec461f162f3f4fdb9f6d189bfe13c59e48d8acd23a4c3bfcf7cc0fe4e84ed8660405161104f9190612b39565b60405180910390a350505050565b6004602052815f5260405f20602052805f5260405f205f915091509054906101000a900460ff1681565b5f60035f3373ffffffffffffffffffffffffffffffffffffffff1673ffffffffffffffffffffffffffffffffffffffff1681526020019081526020015f205490505f811161110a576040517f08c379a000000000000000000000000000000000000000000000000000000000815260040161110190612ba3565b60405180910390fd5b5f60035f3373ffffffffffffffffffffffffffffffffffffffff1673ffffffffffffffffffffffffffffffffffffffff1681526020019081526020015f20819055505f3373ffffffffffffffffffffffffffffffffffffffff168260405161117190612bee565b5f6040518083038185875af1925050503d805f81146111ab576040519150601f19603f3d011682016040523d82523d5f602084013e6111b0565b606091505b50509050806111f4576040517f08c379a00000000000000000000000000000000000000000000000000000000081526004016111eb90612c4c565b60405180910390fd5b5050565b833373ffffffffffffffffffffffffffffffffffffffff1660025f8381526020019081526020015f205f015f9054906101000a900473ffffffffffffffffffffffffffffffffffffffff1673ffffffffffffffffffffffffffffffffffffffff1614611299576040517f08c379a00000000000000000000000000000000000000000000000000000000081526004016112909061247e565b60405180910390fd5b60025f8681526020019081526020015f206003015f9054906101000a900460ff166112f9576040517f08c379a00000000000000000000000000000000000000000000000000000000081526004016112f090612cb4565b60405180910390fd5b815183511461133d576040517f08c379a000000000000000000000000000000000000000000000000000000000815260040161133490612d1c565b60405180910390fd5b611346856107ee565b611385576040517f08c379a000000000000000000000000000000000000000000000000000000000815260040161137c90612d84565b60405180910390fd5b5f60025f8781526020019081526020015f2090505f816002015490505f5f90505b8551811015611489575f8582815181106113c3576113c2612da2565b5b6020026020010151111561147c575f60648683815181106113e7576113e6612da2565b5b6020026020010151662386f26fc100006114019190612dcf565b61140b9190612e3d565b90508060035f89858151811061142457611423612da2565b5b602002602001015173ffffffffffffffffffffffffffffffffffffffff1673ffffffffffffffffffffffffffffffffffffffff1681526020019081526020015f205f8282546114739190612e6d565b92505081905550505b80806001019150506113a6565b50600160065f8981526020019081526020015f205f8381526020019081526020015f206002015f6101000a81548160ff021916908315150217905550858260010190816114d69190612764565b50816002015f8154809291906114eb90612a64565b91905055504260065f8981526020019081526020015f205f846002015481526020019081526020015f205f018190555080877fd56a11b23d9b4d97988bc90f91ecbdd133a8efd341fd2c9f37f68d5bd34b1b818860405161154c9190612b39565b60405180910390a350505050505050565b6005602052825f5260405f20602052815f5260405f20602052805f5260405f205f925092505050805f01805461159290612404565b80601f01602080910402602001604051908101604052809291908181526020018280546115be90612404565b80156116095780601f106115e057610100808354040283529160200191611609565b820191905f5260205f20905b8154815290600101906020018083116115ec57829003601f168201915b50505050509080600101549080600201805461162490612404565b80601f016020809104026020016040519081016040528092919081815260200182805461165090612404565b801561169b5780601f106116725761010080835404028352916020019161169b565b820191905f5260205f20905b81548152906001019060200180831161167e57829003601f168201915b505050505090806003015490806004015f9054906101000a900460ff16905085565b60025f8281526020019081526020015f206003015f9054906101000a900460ff1661171d576040517f08c379a000000000000000000000000000000000000000000000000000000000815260040161171490612cb4565b60405180910390fd5b60015f3373ffffffffffffffffffffffffffffffffffffffff1673ffffffffffffffffffffffffffffffffffffffff1681526020019081526020015f206001015f9054906101000a900460ff166117a9576040517f08c379a00000000000000000000000000000000000000000000000000000000081526004016117a090612b1b565b60405180910390fd5b60025f8281526020019081526020015f205f015f9054906101000a900473ffffffffffffffffffffffffffffffffffffffff1673ffffffffffffffffffffffffffffffffffffffff163373ffffffffffffffffffffffffffffffffffffffff1603611849576040517f08c379a000000000000000000000000000000000000000000000000000000000815260040161184090612eea565b60405180910390fd5b60045f8281526020019081526020015f205f3373ffffffffffffffffffffffffffffffffffffffff1673ffffffffffffffffffffffffffffffffffffffff1681526020019081526020015f205f9054906101000a900460ff16156118e2576040517f08c379a00000000000000000000000000000000000000000000000000000000081526004016118d990612f52565b60405180910390fd5b600160045f8381526020019081526020015f205f3373ffffffffffffffffffffffffffffffffffffffff1673ffffffffffffffffffffffffffffffffffffffff1681526020019081526020015f205f6101000a81548160ff0219169083151502179055503373ffffffffffffffffffffffffffffffffffffffff16817f7dd8cb04159701bc1976c246434d7d96812782e7489e6c5c34db49a388fe9e8060405160405180910390a350565b600381565b5f604051905090565b5f5ffd5b5f5ffd5b5f73ffffffffffffffffffffffffffffffffffffffff82169050919050565b5f6119cc826119a3565b9050919050565b6119dc816119c2565b81146119e6575f5ffd5b50565b5f813590506119f7816119d3565b92915050565b5f60208284031215611a1257611a1161199b565b5b5f611a1f848285016119e9565b91505092915050565b5f819050919050565b611a3a81611a28565b82525050565b5f602082019050611a535f830184611a31565b92915050565b5f81519050919050565b5f82825260208201905092915050565b8281835e5f83830152505050565b5f601f19601f8301169050919050565b5f611a9b82611a59565b611aa58185611a63565b9350611ab5818560208601611a73565b611abe81611a81565b840191505092915050565b5f8115159050919050565b611add81611ac9565b82525050565b5f6040820190508181035f830152611afb8185611a91565b9050611b0a6020830184611ad4565b9392505050565b611b1a81611a28565b8114611b24575f5ffd5b50565b5f81359050611b3581611b11565b92915050565b5f60208284031215611b5057611b4f61199b565b5b5f611b5d84828501611b27565b91505092915050565b611b6f816119c2565b82525050565b5f61010082019050611b895f83018b611b66565b8181036020830152611b9b818a611a91565b9050611baa6040830189611a31565b611bb76060830188611ad4565b8181036080830152611bc98187611a91565b905081810360a0830152611bdd8186611a91565b905081810360c0830152611bf18185611a91565b9050611c0060e0830184611a31565b9998505050505050505050565b5f602082019050611c205f830184611ad4565b92915050565b5f5ffd5b5f5ffd5b7f4e487b71000000000000000000000000000000000000000000000000000000005f52604160045260245ffd5b611c6482611a81565b810181811067ffffffffffffffff82111715611c8357611c82611c2e565b5b80604052505050565b5f611c95611992565b9050611ca18282611c5b565b919050565b5f67ffffffffffffffff821115611cc057611cbf611c2e565b5b611cc982611a81565b9050602081019050919050565b828183375f83830152505050565b5f611cf6611cf184611ca6565b611c8c565b905082815260208101848484011115611d1257611d11611c2a565b5b611d1d848285611cd6565b509392505050565b5f82601f830112611d3957611d38611c26565b5b8135611d49848260208601611ce4565b91505092915050565b5f60208284031215611d6757611d6661199b565b5b5f82013567ffffffffffffffff811115611d8457611d8361199f565b5b611d9084828501611d25565b91505092915050565b5f5f60408385031215611daf57611dae61199b565b5b5f611dbc85828601611b27565b9250506020611dcd85828601611b27565b9150509250929050565b5f606082019050611dea5f830186611a31565b611df76020830185611a31565b611e046040830184611ad4565b949350505050565b5f819050919050565b611e1e81611e0c565b8114611e28575f5ffd5b50565b5f81359050611e3981611e15565b92915050565b5f67ffffffffffffffff821115611e5957611e58611c2e565b5b611e6282611a81565b9050602081019050919050565b5f611e81611e7c84611e3f565b611c8c565b905082815260208101848484011115611e9d57611e9c611c2a565b5b611ea8848285611cd6565b509392505050565b5f82601f830112611ec457611ec3611c26565b5b8135611ed4848260208601611e6f565b91505092915050565b5f5f5f5f60808587031215611ef557611ef461199b565b5b5f611f0287828801611b27565b945050602085013567ffffffffffffffff811115611f2357611f2261199f565b5b611f2f87828801611d25565b9350506040611f4087828801611e2b565b925050606085013567ffffffffffffffff811115611f6157611f6061199f565b5b611f6d87828801611eb0565b91505092959194509250565b5f5f5f5f60808587031215611f9157611f9061199b565b5b5f85013567ffffffffffffffff811115611fae57611fad61199f565b5b611fba87828801611d25565b945050602085013567ffffffffffffffff811115611fdb57611fda61199f565b5b611fe787828801611d25565b935050604085013567ffffffffffffffff8111156120085761200761199f565b5b61201487828801611d25565b925050606085013567ffffffffffffffff8111156120355761203461199f565b5b61204187828801611d25565b91505092959194509250565b5f5f604083850312156120635761206261199b565b5b5f61207085828601611b27565b9250506020612081858286016119e9565b9150509250929050565b5f67ffffffffffffffff8211156120a5576120a4611c2e565b5b602082029050602081019050919050565b5f5ffd5b5f6120cc6120c78461208b565b611c8c565b905080838252602082019050602084028301858111156120ef576120ee6120b6565b5b835b81811015612118578061210488826119e9565b8452602084019350506020810190506120f1565b5050509392505050565b5f82601f83011261213657612135611c26565b5b81356121468482602086016120ba565b91505092915050565b5f67ffffffffffffffff82111561216957612168611c2e565b5b602082029050602081019050919050565b5f61218c6121878461214f565b611c8c565b905080838252602082019050602084028301858111156121af576121ae6120b6565b5b835b818110156121d857806121c48882611b27565b8452602084019350506020810190506121b1565b5050509392505050565b5f82601f8301126121f6576121f5611c26565b5b813561220684826020860161217a565b91505092915050565b5f5f5f5f608085870312156122275761222661199b565b5b5f61223487828801611b27565b945050602085013567ffffffffffffffff8111156122555761225461199f565b5b61226187828801611d25565b935050604085013567ffffffffffffffff8111156122825761228161199f565b5b61228e87828801612122565b925050606085013567ffffffffffffffff8111156122af576122ae61199f565b5b6122bb878288016121e2565b91505092959194509250565b5f5f5f606084860312156122de576122dd61199b565b5b5f6122eb86828701611b27565b93505060206122fc86828701611b27565b925050604061230d868287016119e9565b9150509250925092565b61232081611e0c565b82525050565b5f81519050919050565b5f82825260208201905092915050565b5f61234a82612326565b6123548185612330565b9350612364818560208601611a73565b61236d81611a81565b840191505092915050565b5f60a0820190508181035f8301526123908188611a91565b905061239f6020830187612317565b81810360408301526123b18186612340565b90506123c06060830185611a31565b6123cd6080830184611ad4565b9695505050505050565b7f4e487b71000000000000000000000000000000000000000000000000000000005f52602260045260245ffd5b5f600282049050600182168061241b57607f821691505b60208210810361242e5761242d6123d7565b5b50919050565b7f42756b616e20696e69736961746f722070726f79656b20696e690000000000005f82015250565b5f612468601a83611a63565b915061247382612434565b602082019050919050565b5f6020820190508181035f8301526124958161245c565b9050919050565b7f50726f79656b20737564616820746964616b20616b74696600000000000000005f82015250565b5f6124d0601883611a63565b91506124db8261249c565b602082019050919050565b5f6020820190508181035f8301526124fd816124c4565b9050919050565b5f819050815f5260205f209050919050565b5f815461252281612404565b61252c8186611a63565b9450600182165f8114612546576001811461255c5761258e565b60ff19831686528115156020028601935061258e565b61256585612504565b5f5b8381101561258657815481890152600182019150602081019050612567565b808801955050505b50505092915050565b5f6040820190506125aa5f830185611a31565b81810360208301526125bc8184612516565b90509392505050565b5f6020601f8301049050919050565b5f82821b905092915050565b5f6008830261260f7fffffffffffffffffffffffffffffffffffffffffffffffffffffffffffffffff826125d4565b61261986836125d4565b95508019841693508086168417925050509392505050565b5f819050919050565b5f61265461264f61264a84611a28565b612631565b611a28565b9050919050565b5f819050919050565b61266d8361263a565b6126816126798261265b565b8484546125e0565b825550505050565b5f5f905090565b612698612689565b6126a3818484612664565b505050565b5f5b828110156126c9576126be5f828401612690565b6001810190506126aa565b505050565b601f82111561271c578282111561271b576126e881612504565b6126f1836125c5565b6126fa856125c5565b6020861015612707575f90505b808301612716828403826126a8565b505050505b5b505050565b5f82821c905092915050565b5f61273c5f1984600802612721565b1980831691505092915050565b5f612754838361272d565b9150826002028217905092915050565b61276d82611a59565b67ffffffffffffffff81111561278657612785611c2e565b5b6127908254612404565b61279b8282856126ce565b5f60209050601f8311600181146127cc575f84156127ba578287015190505b6127c48582612749565b86555061282b565b601f1984166127da86612504565b5f5b82811015612801578489015182556001820191506020850194506020810190506127dc565b8683101561281e578489015161281a601f89168261272d565b8355505b6001600288020188555050505b505050505050565b7f42656c756d20626572676162756e6700000000000000000000000000000000005f82015250565b5f612867600f83611a63565b915061287282612833565b602082019050919050565b5f6020820190508181035f8301526128948161285b565b9050919050565b7f5375646168207375626d697420646920726f756e6420696e69000000000000005f82015250565b5f6128cf601983611a63565b91506128da8261289b565b602082019050919050565b5f6020820190508181035f8301526128fc816128c3565b9050919050565b5f819050815f5260205f209050919050565b601f82111561296357828211156129625761292f81612903565b612938836125c5565b612941856125c5565b602086101561294e575f90505b80830161295d828403826126a8565b505050505b5b505050565b61297182612326565b67ffffffffffffffff81111561298a57612989611c2e565b5b6129948254612404565b61299f828285612915565b5f60209050601f8311600181146129d0575f84156129be578287015190505b6129c88582612749565b865550612a2f565b601f1984166129de86612903565b5f5b82811015612a05578489015182556001820191506020850194506020810190506129e0565b86831015612a225784890151612a1e601f89168261272d565b8355505b6001600288020188555050505b505050505050565b7f4e487b71000000000000000000000000000000000000000000000000000000005f52601160045260245ffd5b5f612a6e82611a28565b91507fffffffffffffffffffffffffffffffffffffffffffffffffffffffffffffffff8203612aa057612a9f612a37565b5b600182019050919050565b7f4461667461726b616e2044494420416e6461207465726c6562696820646168755f8201527f6c75000000000000000000000000000000000000000000000000000000000000602082015250565b5f612b05602283611a63565b9150612b1082612aab565b604082019050919050565b5f6020820190508181035f830152612b3281612af9565b9050919050565b5f6020820190508181035f830152612b518184611a91565b905092915050565b7f546964616b206164612073616c646f20726577617264000000000000000000005f82015250565b5f612b8d601683611a63565b9150612b9882612b59565b602082019050919050565b5f6020820190508181035f830152612bba81612b81565b9050919050565b5f81905092915050565b50565b5f612bd95f83612bc1565b9150612be482612bcb565b5f82019050919050565b5f612bf882612bce565b9150819050919050565b7f5472616e7366657220676167616c0000000000000000000000000000000000005f82015250565b5f612c36600e83611a63565b9150612c4182612c02565b602082019050919050565b5f6020820190508181035f830152612c6381612c2a565b9050919050565b7f50726f79656b20746964616b20616b74696600000000000000000000000000005f82015250565b5f612c9e601283611a63565b9150612ca982612c6a565b602082019050919050565b5f6020820190508181035f830152612ccb81612c92565b9050919050565b7f4461746120746964616b2073696e6b726f6e00000000000000000000000000005f82015250565b5f612d06601283611a63565b9150612d1182612cd2565b602082019050919050565b5f6020820190508181035f830152612d3381612cfa565b9050919050565b7f5379617261742061677265676173692062656c756d2074657270656e756869005f82015250565b5f612d6e601f83611a63565b9150612d7982612d3a565b602082019050919050565b5f6020820190508181035f830152612d9b81612d62565b9050919050565b7f4e487b71000000000000000000000000000000000000000000000000000000005f52603260045260245ffd5b5f612dd982611a28565b9150612de483611a28565b9250828202612df281611a28565b91508282048414831517612e0957612e08612a37565b5b5092915050565b7f4e487b71000000000000000000000000000000000000000000000000000000005f52601260045260245ffd5b5f612e4782611a28565b9150612e5283611a28565b925082612e6257612e61612e10565b5b828204905092915050565b5f612e7782611a28565b9150612e8283611a28565b9250828201905080821115612e9a57612e99612a37565b5b92915050565b7f496e69736961746f7220746964616b20626f6c656820626572676162756e67005f82015250565b5f612ed4601f83611a63565b9150612edf82612ea0565b602082019050919050565b5f6020820190508181035f830152612f0181612ec8565b9050919050565b7f537564616820626572676162756e6700000000000000000000000000000000005f82015250565b5f612f3c600f83611a63565b9150612f4782612f08565b602082019050919050565b5f6020820190508181035f830152612f6981612f30565b905091905056fea264697066735822122082163759a5b8cc8a49863910a922fda79cc9b101abddbf5393052fde9113d70964736f6c63430008210033",
        "linkReferences": {}
    },
    "methodIdentifiers": {
        "MIN_CLIENTS()": "f0432cdc",
        "REWARD_PER_CONTRIBUTION_MIN()": "81ff3e4b",
        "REWARD_PER_ROUND()": "10aab5ff",
        "TOTAL_CLIENTS()": "6e126d55",
        "canAggregate(uint256)": "14333f8e",
        "contributions(uint256,uint256,address)": "db051e04",
        "createProject(string,string,string,string)": "a26ac375",
        "finalizeProject(uint256)": "4d798de5",
        "finalizeRound(uint256,string,address[],uint256[])": "d37f8c6c",
        "isRegistered(uint256,address)": "b81f6e18",
        "joinProject(uint256)": "df98e5f9",
        "participants(address)": "09e69ede",
        "projectCount()": "36fbad26",
        "projectRounds(uint256,uint256)": "890cadf0",
        "projects(uint256)": "107046bd",
        "registerDID(string)": "570810e2",
        "rewards(address)": "0700037d",
        "submitUpdate(uint256,string,bytes32,bytes)": "9ca7938e",
        "withdrawRewards()": "c7b8981c"
    },
    "id": 0
}