{
    "abi": [
        {
            "type": "constructor",
            "inputs": [],
            "stateMutability": "nonpayable"
        },
        {
            "type": "function",
            "name": "MIN_CLIENTS",
            "inputs": [],
            "outputs": [
                {
                    "name": "",
                    "type": "uint256",
                    "internalType": "uint256"
                }
            ],
            "stateMutability": "view"
        },
        {
            "type": "function",
            "name": "REWARD_PER_ROUND",
            "inputs": [],
            "outputs": [
                {
                    "name": "",
                    "type": "uint256",
                    "internalType": "uint256"
                }
            ],
            "stateMutability": "view"
        },
        {
            "type": "function",
            "name": "TOTAL_CLIENTS",
            "inputs": [],
            "outputs": [
                {
                    "name": "",
                    "type": "uint256",
                    "internalType": "uint256"
                }
            ],
            "stateMutability": "view"
        },
        {
            "type": "function",
            "name": "canAggregate",
            "inputs": [
                {
                    "name": "_projectId",
                    "type": "uint256",
                    "internalType": "uint256"
                }
            ],
            "outputs": [
                {
                    "name": "",
                    "type": "bool",
                    "internalType": "bool"
                }
            ],
            "stateMutability": "view"
        },
        {
            "type": "function",
            "name": "contributions",
            "inputs": [
                {
                    "name": "",
                    "type": "uint256",
                    "internalType": "uint256"
                },
                {
                    "name": "",
                    "type": "uint256",
                    "internalType": "uint256"
                },
                {
                    "name": "",
                    "type": "address",
                    "internalType": "address"
                }
            ],
            "outputs": [
                {
                    "name": "modelUpdateCID",
                    "type": "string",
                    "internalType": "string"
                },
                {
                    "name": "contentHash",
                    "type": "bytes32",
                    "internalType": "bytes32"
                },
                {
                    "name": "signature",
                    "type": "bytes",
                    "internalType": "bytes"
                },
                {
                    "name": "timestamp",
                    "type": "uint256",
                    "internalType": "uint256"
                },
                {
                    "name": "exists",
                    "type": "bool",
                    "internalType": "bool"
                }
            ],
            "stateMutability": "view"
        },
        {
            "type": "function",
            "name": "createProject",
            "inputs": [
                {
                    "name": "_initialModelCID",
                    "type": "string",
                    "internalType": "string"
                },
                {
                    "name": "_name",
                    "type": "string",
                    "internalType": "string"
                },
                {
                    "name": "_description",
                    "type": "string",
                    "internalType": "string"
                },
                {
                    "name": "_modelName",
                    "type": "string",
                    "internalType": "string"
                }
            ],
            "outputs": [],
            "stateMutability": "payable"
        },
        {
            "type": "function",
            "name": "didToAddress",
            "inputs": [
                {
                    "name": "",
                    "type": "string",
                    "internalType": "string"
                }
            ],
            "outputs": [
                {
                    "name": "",
                    "type": "address",
                    "internalType": "address"
                }
            ],
            "stateMutability": "view"
        },
        {
            "type": "function",
            "name": "finalizeProject",
            "inputs": [
                {
                    "name": "_projectId",
                    "type": "uint256",
                    "internalType": "uint256"
                }
            ],
            "outputs": [],
            "stateMutability": "nonpayable"
        },
        {
            "type": "function",
            "name": "finalizeRound",
            "inputs": [
                {
                    "name": "_projectId",
                    "type": "uint256",
                    "internalType": "uint256"
                },
                {
                    "name": "_newGlobalModelCID",
                    "type": "string",
                    "internalType": "string"
                },
                {
                    "name": "_participants",
                    "type": "address[]",
                    "internalType": "address[]"
                },
                {
                    "name": "_scores",
                    "type": "uint256[]",
                    "internalType": "uint256[]"
                }
            ],
            "outputs": [],
            "stateMutability": "nonpayable"
        },
        {
            "type": "function",
            "name": "isRegistered",
            "inputs": [
                {
                    "name": "",
                    "type": "uint256",
                    "internalType": "uint256"
                },
                {
                    "name": "",
                    "type": "address",
                    "internalType": "address"
                }
            ],
            "outputs": [
                {
                    "name": "",
                    "type": "bool",
                    "internalType": "bool"
                }
            ],
            "stateMutability": "view"
        },
        {
            "type": "function",
            "name": "joinProject",
            "inputs": [
                {
                    "name": "_projectId",
                    "type": "uint256",
                    "internalType": "uint256"
                }
            ],
            "outputs": [],
            "stateMutability": "nonpayable"
        },
        {
            "type": "function",
            "name": "participants",
            "inputs": [
                {
                    "name": "",
                    "type": "address",
                    "internalType": "address"
                }
            ],
            "outputs": [
                {
                    "name": "did",
                    "type": "string",
                    "internalType": "string"
                },
                {
                    "name": "isRegistered",
                    "type": "bool",
                    "internalType": "bool"
                },
                {
                    "name": "isVerified",
                    "type": "bool",
                    "internalType": "bool"
                }
            ],
            "stateMutability": "view"
        },
        {
            "type": "function",
            "name": "platformAdmin",
            "inputs": [],
            "outputs": [
                {
                    "name": "",
                    "type": "address",
                    "internalType": "address"
                }
            ],
            "stateMutability": "view"
        },
        {
            "type": "function",
            "name": "projectCount",
            "inputs": [],
            "outputs": [
                {
                    "name": "",
                    "type": "uint256",
                    "internalType": "uint256"
                }
            ],
            "stateMutability": "view"
        },
        {
            "type": "function",
            "name": "projectRounds",
            "inputs": [
                {
                    "name": "",
                    "type": "uint256",
                    "internalType": "uint256"
                },
                {
                    "name": "",
                    "type": "uint256",
                    "internalType": "uint256"
                }
            ],
            "outputs": [
                {
                    "name": "startTime",
                    "type": "uint256",
                    "internalType": "uint256"
                },
                {
                    "name": "submissionCount",
                    "type": "uint256",
                    "internalType": "uint256"
                },
                {
                    "name": "finalized",
                    "type": "bool",
                    "internalType": "bool"
                },
                {
                    "name": "minQuotaReachedTime",
                    "type": "uint256",
                    "internalType": "uint256"
                }
            ],
            "stateMutability": "view"
        },
        {
            "type": "function",
            "name": "projects",
            "inputs": [
                {
                    "name": "",
                    "type": "uint256",
                    "internalType": "uint256"
                }
            ],
            "outputs": [
                {
                    "name": "initiator",
                    "type": "address",
                    "internalType": "address"
                },
                {
                    "name": "globalModelCID",
                    "type": "string",
                    "internalType": "string"
                },
                {
                    "name": "roundNumber",
                    "type": "uint256",
                    "internalType": "uint256"
                },
                {
                    "name": "isActive",
                    "type": "bool",
                    "internalType": "bool"
                },
                {
                    "name": "name",
                    "type": "string",
                    "internalType": "string"
                },
                {
                    "name": "description",
                    "type": "string",
                    "internalType": "string"
                },
                {
                    "name": "modelName",
                    "type": "string",
                    "internalType": "string"
                },
                {
                    "name": "totalBudget",
                    "type": "uint256",
                    "internalType": "uint256"
                },
                {
                    "name": "remainingBudget",
                    "type": "uint256",
                    "internalType": "uint256"
                },
                {
                    "name": "participantCount",
                    "type": "uint256",
                    "internalType": "uint256"
                }
            ],
            "stateMutability": "view"
        },
        {
            "type": "function",
            "name": "registerDID",
            "inputs": [
                {
                    "name": "_did",
                    "type": "string",
                    "internalType": "string"
                }
            ],
            "outputs": [],
            "stateMutability": "nonpayable"
        },
        {
            "type": "function",
            "name": "rewards",
            "inputs": [
                {
                    "name": "",
                    "type": "address",
                    "internalType": "address"
                }
            ],
            "outputs": [
                {
                    "name": "",
                    "type": "uint256",
                    "internalType": "uint256"
                }
            ],
            "stateMutability": "view"
        },
        {
            "type": "function",
            "name": "submitUpdate",
            "inputs": [
                {
                    "name": "_projectId",
                    "type": "uint256",
                    "internalType": "uint256"
                },
                {
                    "name": "_modelUpdateCID",
                    "type": "string",
                    "internalType": "string"
                },
                {
                    "name": "_contentHash",
                    "type": "bytes32",
                    "internalType": "bytes32"
                },
                {
                    "name": "_signature",
                    "type": "bytes",
                    "internalType": "bytes"
                }
            ],
            "outputs": [],
            "stateMutability": "nonpayable"
        },
        {
            "type": "function",
            "name": "verifyParticipant",
            "inputs": [
                {
                    "name": "_participant",
                    "type": "address",
                    "internalType": "address"
                }
            ],
            "outputs": [],
            "stateMutability": "nonpayable"
        },
        {
            "type": "function",
            "name": "withdrawRewards",
            "inputs": [],
            "outputs": [],
            "stateMutability": "nonpayable"
        },
        {
            "type": "event",
            "name": "ContributionSubmitted",
            "inputs": [
                {
                    "name": "projectId",
                    "type": "uint256",
                    "indexed": true,
                    "internalType": "uint256"
                },
                {
                    "name": "round",
                    "type": "uint256",
                    "indexed": true,
                    "internalType": "uint256"
                },
                {
                    "name": "participant",
                    "type": "address",
                    "indexed": true,
                    "internalType": "address"
                }
            ],
            "anonymous": false
        },
        {
            "type": "event",
            "name": "DIDPlatformVerified",
            "inputs": [
                {
                    "name": "participant",
                    "type": "address",
                    "indexed": true,
                    "internalType": "address"
                },
                {
                    "name": "did",
                    "type": "string",
                    "indexed": false,
                    "internalType": "string"
                }
            ],
            "anonymous": false
        },
        {
            "type": "event",
            "name": "ParticipantJoined",
            "inputs": [
                {
                    "name": "projectId",
                    "type": "uint256",
                    "indexed": true,
                    "internalType": "uint256"
                },
                {
                    "name": "participant",
                    "type": "address",
                    "indexed": true,
                    "internalType": "address"
                }
            ],
            "anonymous": false
        },
        {
            "type": "event",
            "name": "ProjectCreated",
            "inputs": [
                {
                    "name": "projectId",
                    "type": "uint256",
                    "indexed": true,
                    "internalType": "uint256"
                },
                {
                    "name": "initiator",
                    "type": "address",
                    "indexed": true,
                    "internalType": "address"
                },
                {
                    "name": "initialCID",
                    "type": "string",
                    "indexed": false,
                    "internalType": "string"
                }
            ],
            "anonymous": false
        },
        {
            "type": "event",
            "name": "ProjectFinalized",
            "inputs": [
                {
                    "name": "projectId",
                    "type": "uint256",
                    "indexed": true,
                    "internalType": "uint256"
                },
                {
                    "name": "finalRound",
                    "type": "uint256",
                    "indexed": false,
                    "internalType": "uint256"
                },
                {
                    "name": "finalModelCID",
                    "type": "string",
                    "indexed": false,
                    "internalType": "string"
                }
            ],
            "anonymous": false
        },
        {
            "type": "event",
            "name": "RefundSent",
            "inputs": [
                {
                    "name": "projectId",
                    "type": "uint256",
                    "indexed": true,
                    "internalType": "uint256"
                },
                {
                    "name": "initiator",
                    "type": "address",
                    "indexed": true,
                    "internalType": "address"
                },
                {
                    "name": "amount",
                    "type": "uint256",
                    "indexed": false,
                    "internalType": "uint256"
                }
            ],
            "anonymous": false
        },
        {
            "type": "event",
            "name": "RoundFinalized",
            "inputs": [
                {
                    "name": "projectId",
                    "type": "uint256",
                    "indexed": true,
                    "internalType": "uint256"
                },
                {
                    "name": "round",
                    "type": "uint256",
                    "indexed": true,
                    "internalType": "uint256"
                },
                {
                    "name": "newGlobalCID",
                    "type": "string",
                    "indexed": false,
                    "internalType": "string"
                }
            ],
            "anonymous": false
        }
    ],
    "bytecode": {
        "object": "0x6080604052348015600e575f5ffd5b50335f5f6101000a81548173ffffffffffffffffffffffffffffffffffffffff021916908373ffffffffffffffffffffffffffffffffffffffff160217905550613f6c8061005b5f395ff3fe608060405260043610610129575f3560e01c80636e126d55116100aa578063c7b8981c1161006e578063c7b8981c14610419578063cdcd7fb51461042f578063d37f8c6c14610459578063db051e0414610481578063df98e5f9146104c1578063f0432cdc146104e957610129565b80636e126d5514610330578063890cadf01461035a5780639ca7938e14610399578063a26ac375146103c1578063b81f6e18146103dd57610129565b806336fbad26116100f157806336fbad26146102525780634d798de51461027c578063570810e2146102a4578063643a7695146102cc5780636ba1f4a4146102f457610129565b80630700037d1461012d57806309e69ede14610169578063107046bd146101a757806310aab5ff146101ec57806314333f8e14610216575b5f5ffd5b348015610138575f5ffd5b50610153600480360381019061014e91906123d9565b610513565b604051610160919061241c565b60405180910390f35b348015610174575f5ffd5b5061018f600480360381019061018a91906123d9565b610528565b60405161019e939291906124bf565b60405180910390f35b3480156101b2575f5ffd5b506101cd60048036038101906101c89190612525565b6105ed565b6040516101e39a9998979695949392919061255f565b60405180910390f35b3480156101f7575f5ffd5b50610200610880565b60405161020d919061241c565b60405180910390f35b348015610221575f5ffd5b5061023c60048036038101906102379190612525565b61088b565b6040516102499190612615565b60405180910390f35b34801561025d575f5ffd5b50610266610930565b604051610273919061241c565b60405180910390f35b348015610287575f5ffd5b506102a2600480360381019061029d9190612525565b610936565b005b3480156102af575f5ffd5b506102ca60048036038101906102c5919061275a565b610bf3565b005b3480156102d7575f5ffd5b506102f260048036038101906102ed91906123d9565b610e72565b005b3480156102ff575f5ffd5b5061031a6004803603810190610315919061275a565b611102565b60405161032791906127a1565b60405180910390f35b34801561033b575f5ffd5b5061034461114a565b604051610351919061241c565b60405180910390f35b348015610365575f5ffd5b50610380600480360381019061037b91906127ba565b61114f565b60405161039094939291906127f8565b60405180910390f35b3480156103a4575f5ffd5b506103bf60048036038101906103ba919061290c565b611192565b005b6103db60048036038101906103d691906129a8565b611597565b005b3480156103e8575f5ffd5b5061040360048036038101906103fe9190612a7c565b6118a3565b6040516104109190612615565b60405180910390f35b348015610424575f5ffd5b5061042d6118cd565b005b34801561043a575f5ffd5b50610443611a3e565b60405161045091906127a1565b60405180910390f35b348015610464575f5ffd5b5061047f600480360381019061047a9190612c3e565b611a62565b005b34801561048c575f5ffd5b506104a760048036038101906104a29190612cf6565b611e83565b6040516104b8959493929190612da7565b60405180910390f35b3480156104cc575f5ffd5b506104e760048036038101906104e29190612525565b611fe3565b005b3480156104f4575f5ffd5b506104fd612369565b60405161050a919061241c565b60405180910390f35b6005602052805f5260405f205f915090505481565b6003602052805f5260405f205f91509050805f01805461054790612e33565b80601f016020809104026020016040519081016040528092919081815260200182805461057390612e33565b80156105be5780601f10610595576101008083540402835291602001916105be565b820191905f5260205f20905b8154815290600101906020018083116105a157829003601f168201915b505050505090806001015f9054906101000a900460ff16908060010160019054906101000a900460ff16905083565b6004602052805f5260405f205f91509050805f015f9054906101000a900473ffffffffffffffffffffffffffffffffffffffff169080600101805461063190612e33565b80601f016020809104026020016040519081016040528092919081815260200182805461065d90612e33565b80156106a85780601f1061067f576101008083540402835291602001916106a8565b820191905f5260205f20905b81548152906001019060200180831161068b57829003601f168201915b505050505090806002015490806003015f9054906101000a900460ff16908060040180546106d590612e33565b80601f016020809104026020016040519081016040528092919081815260200182805461070190612e33565b801561074c5780601f106107235761010080835404028352916020019161074c565b820191905f5260205f20905b81548152906001019060200180831161072f57829003601f168201915b50505050509080600501805461076190612e33565b80601f016020809104026020016040519081016040528092919081815260200182805461078d90612e33565b80156107d85780601f106107af576101008083540402835291602001916107d8565b820191905f5260205f20905b8154815290600101906020018083116107bb57829003601f168201915b5050505050908060060180546107ed90612e33565b80601f016020809104026020016040519081016040528092919081815260200182805461081990612e33565b80156108645780601f1061083b57610100808354040283529160200191610864565b820191905f5260205f20905b81548152906001019060200180831161084757829003601f168201915b505050505090806007015490806008015490806009015490508a565b662386f26fc1000081565b5f5f60045f8481526020019081526020015f2090505f60085f8581526020019081526020015f205f836002015481526020019081526020015f2090505f60038260010154101590505f60058360010154101590505f5f90508280156108f457505f846003015414155b156109125762015180846003015461090c9190612e90565b42101590505b818061092457508280156109235750805b5b95505050505050919050565b60025481565b803373ffffffffffffffffffffffffffffffffffffffff1660045f8381526020019081526020015f205f015f9054906101000a900473ffffffffffffffffffffffffffffffffffffffff1673ffffffffffffffffffffffffffffffffffffffff16146109d7576040517f08c379a00000000000000000000000000000000000000000000000000000000081526004016109ce90612f0d565b60405180910390fd5b5f60045f8481526020019081526020015f209050806003015f9054906101000a900460ff16610a3b576040517f08c379a0000000000000000000000000000000000000000000000000000000008152600401610a3290612f75565b60405180910390fd5b5f816008015490505f82600801819055505f826003015f6101000a81548160ff0219169083151502179055505f811115610bac575f825f015f9054906101000a900473ffffffffffffffffffffffffffffffffffffffff1673ffffffffffffffffffffffffffffffffffffffff1682604051610ab690612fc0565b5f6040518083038185875af1925050503d805f8114610af0576040519150601f19603f3d011682016040523d82523d5f602084013e610af5565b606091505b5050905080610b39576040517f08c379a0000000000000000000000000000000000000000000000000000000008152600401610b309061301e565b60405180910390fd5b825f015f9054906101000a900473ffffffffffffffffffffffffffffffffffffffff1673ffffffffffffffffffffffffffffffffffffffff16857ffbeaa807aad4fcff31eff41f17142e6dcd1babf57c4730e3a4c706ac608cc05784604051610ba2919061241c565b60405180910390a3505b837f97ace935457fbaa9ea914c812c15b14bb7d41f40cc67c3e65917ac7318537ef8836002015484600101604051610be59291906130cf565b60405180910390a250505050565b5f815111610c36576040517f08c379a0000000000000000000000000000000000000000000000000000000008152600401610c2d90613147565b60405180910390fd5b60035f3373ffffffffffffffffffffffffffffffffffffffff1673ffffffffffffffffffffffffffffffffffffffff1681526020019081526020015f206001015f9054906101000a900460ff1615610cc3576040517f08c379a0000000000000000000000000000000000000000000000000000000008152600401610cba906131d5565b60405180910390fd5b5f73ffffffffffffffffffffffffffffffffffffffff16600182604051610cea919061322d565b90815260200160405180910390205f9054906101000a900473ffffffffffffffffffffffffffffffffffffffff1673ffffffffffffffffffffffffffffffffffffffff1614610d6e576040517f08c379a0000000000000000000000000000000000000000000000000000000008152600401610d65906132b3565b60405180910390fd5b8060035f3373ffffffffffffffffffffffffffffffffffffffff1673ffffffffffffffffffffffffffffffffffffffff1681526020019081526020015f205f019081610dba9190613470565b50600160035f3373ffffffffffffffffffffffffffffffffffffffff1673ffffffffffffffffffffffffffffffffffffffff1681526020019081526020015f206001015f6101000a81548160ff02191690831515021790555033600182604051610e24919061322d565b90815260200160405180910390205f6101000a81548173ffffffffffffffffffffffffffffffffffffffff021916908373ffffffffffffffffffffffffffffffffffffffff16021790555050565b5f5f9054906101000a900473ffffffffffffffffffffffffffffffffffffffff1673ffffffffffffffffffffffffffffffffffffffff163373ffffffffffffffffffffffffffffffffffffffff1614610f00576040517f08c379a0000000000000000000000000000000000000000000000000000000008152600401610ef7906135af565b60405180910390fd5b60035f8273ffffffffffffffffffffffffffffffffffffffff1673ffffffffffffffffffffffffffffffffffffffff1681526020019081526020015f206001015f9054906101000a900460ff16610f8c576040517f08c379a0000000000000000000000000000000000000000000000000000000008152600401610f839061363d565b60405180910390fd5b60035f8273ffffffffffffffffffffffffffffffffffffffff1673ffffffffffffffffffffffffffffffffffffffff1681526020019081526020015f2060010160019054906101000a900460ff161561101a576040517f08c379a0000000000000000000000000000000000000000000000000000000008152600401611011906136a5565b60405180910390fd5b600160035f8373ffffffffffffffffffffffffffffffffffffffff1673ffffffffffffffffffffffffffffffffffffffff1681526020019081526020015f2060010160016101000a81548160ff0219169083151502179055508073ffffffffffffffffffffffffffffffffffffffff167fe36be1ed6fcca7979ee4c56299e5a49fccb6f5b66c5e8a205c3e062de0897b3a60035f8473ffffffffffffffffffffffffffffffffffffffff1673ffffffffffffffffffffffffffffffffffffffff1681526020019081526020015f205f016040516110f791906136c3565b60405180910390a250565b6001818051602081018201805184825260208301602085012081835280955050505050505f915054906101000a900473ffffffffffffffffffffffffffffffffffffffff1681565b600581565b6008602052815f5260405f20602052805f5260405f205f9150915050805f015490806001015490806002015f9054906101000a900460ff16908060030154905084565b60045f8581526020019081526020015f206003015f9054906101000a900460ff166111f2576040517f08c379a00000000000000000000000000000000000000000000000000000000081526004016111e990612f75565b60405180910390fd5b60065f8581526020019081526020015f205f3373ffffffffffffffffffffffffffffffffffffffff1673ffffffffffffffffffffffffffffffffffffffff1681526020019081526020015f205f9054906101000a900460ff1661128a576040517f08c379a00000000000000000000000000000000000000000000000000000000081526004016112819061372d565b60405180910390fd5b60035f3373ffffffffffffffffffffffffffffffffffffffff1673ffffffffffffffffffffffffffffffffffffffff1681526020019081526020015f2060010160019054906101000a900460ff16611317576040517f08c379a000000000000000000000000000000000000000000000000000000000815260040161130e906137bb565b60405180910390fd5b5f60045f8681526020019081526020015f2060020154905060075f8681526020019081526020015f205f8281526020019081526020015f205f3373ffffffffffffffffffffffffffffffffffffffff1673ffffffffffffffffffffffffffffffffffffffff1681526020019081526020015f206004015f9054906101000a900460ff16156113da576040517f08c379a00000000000000000000000000000000000000000000000000000000081526004016113d190613823565b60405180910390fd5b6040518060a001604052808581526020018481526020018381526020014281526020016001151581525060075f8781526020019081526020015f205f8381526020019081526020015f205f3373ffffffffffffffffffffffffffffffffffffffff1673ffffffffffffffffffffffffffffffffffffffff1681526020019081526020015f205f820151815f0190816114729190613470565b5060208201518160010155604082015181600201908161149291906138a6565b50606082015181600301556080820151816004015f6101000a81548160ff02191690831515021790555090505060085f8681526020019081526020015f205f8281526020019081526020015f206001015f8154809291906114f290613975565b9190505550600360085f8781526020019081526020015f205f8381526020019081526020015f20600101540361154b574260085f8781526020019081526020015f205f8381526020019081526020015f20600301819055505b3373ffffffffffffffffffffffffffffffffffffffff1681867f0a1434dacefe3f97a915af6e7875e6bcb733eb568e5a033cbc118f05b404e5ae60405160405180910390a45050505050565b60035f3373ffffffffffffffffffffffffffffffffffffffff1673ffffffffffffffffffffffffffffffffffffffff1681526020019081526020015f206001015f9054906101000a900460ff16611623576040517f08c379a000000000000000000000000000000000000000000000000000000000815260040161161a90613a06565b60405180910390fd5b60035f3373ffffffffffffffffffffffffffffffffffffffff1673ffffffffffffffffffffffffffffffffffffffff1681526020019081526020015f2060010160019054906101000a900460ff166116b0576040517f08c379a00000000000000000000000000000000000000000000000000000000081526004016116a790613a94565b60405180910390fd5b60025f8154809291906116c290613975565b91905055506040518061014001604052803373ffffffffffffffffffffffffffffffffffffffff168152602001858152602001600181526020016001151581526020018481526020018381526020018281526020013481526020013481526020015f81525060045f60025481526020019081526020015f205f820151815f015f6101000a81548173ffffffffffffffffffffffffffffffffffffffff021916908373ffffffffffffffffffffffffffffffffffffffff16021790555060208201518160010190816117939190613470565b50604082015181600201556060820151816003015f6101000a81548160ff02191690831515021790555060808201518160040190816117d29190613470565b5060a08201518160050190816117e89190613470565b5060c08201518160060190816117fe9190613470565b5060e08201518160070155610100820151816008015561012082015181600901559050504260085f60025481526020019081526020015f205f600181526020019081526020015f205f01819055503373ffffffffffffffffffffffffffffffffffffffff166002547f9d9ec461f162f3f4fdb9f6d189bfe13c59e48d8acd23a4c3bfcf7cc0fe4e84ed866040516118959190613ab2565b60405180910390a350505050565b6006602052815f5260405f20602052805f5260405f205f915091509054906101000a900460ff1681565b5f60055f3373ffffffffffffffffffffffffffffffffffffffff1673ffffffffffffffffffffffffffffffffffffffff1681526020019081526020015f205490505f8111611950576040517f08c379a000000000000000000000000000000000000000000000000000000000815260040161194790613b1c565b60405180910390fd5b5f60055f3373ffffffffffffffffffffffffffffffffffffffff1673ffffffffffffffffffffffffffffffffffffffff1681526020019081526020015f20819055505f3373ffffffffffffffffffffffffffffffffffffffff16826040516119b790612fc0565b5f6040518083038185875af1925050503d805f81146119f1576040519150601f19603f3d011682016040523d82523d5f602084013e6119f6565b606091505b5050905080611a3a576040517f08c379a0000000000000000000000000000000000000000000000000000000008152600401611a3190613b84565b60405180910390fd5b5050565b5f5f9054906101000a900473ffffffffffffffffffffffffffffffffffffffff1681565b833373ffffffffffffffffffffffffffffffffffffffff1660045f8381526020019081526020015f205f015f9054906101000a900473ffffffffffffffffffffffffffffffffffffffff1673ffffffffffffffffffffffffffffffffffffffff1614611b03576040517f08c379a0000000000000000000000000000000000000000000000000000000008152600401611afa90612f0d565b60405180910390fd5b60045f8681526020019081526020015f206003015f9054906101000a900460ff16611b63576040517f08c379a0000000000000000000000000000000000000000000000000000000008152600401611b5a90613bec565b60405180910390fd5b8151835114611ba7576040517f08c379a0000000000000000000000000000000000000000000000000000000008152600401611b9e90613c54565b60405180910390fd5b611bb08561088b565b611bef576040517f08c379a0000000000000000000000000000000000000000000000000000000008152600401611be690613ce2565b60405180910390fd5b5f60045f8781526020019081526020015f2090505f816002015490505f5f90505f5f90505f5f90505b8651811015611c5657868181518110611c3457611c33613d00565b5b602002602001015182611c479190612e90565b91508080600101915050611c18565b505f5f90505b8751811015611d4c575f878281518110611c7957611c78613d00565b5b60200260200101511115611d3f575f82888381518110611c9c57611c9b613d00565b5b6020026020010151662386f26fc10000611cb69190613d2d565b611cc09190613d9b565b90508084611cce9190612e90565b93508060055f8b8581518110611ce757611ce6613d00565b5b602002602001015173ffffffffffffffffffffffffffffffffffffffff1673ffffffffffffffffffffffffffffffffffffffff1681526020019081526020015f205f828254611d369190612e90565b92505081905550505b8080600101915050611c5c565b508184600801541015611d94576040517f08c379a0000000000000000000000000000000000000000000000000000000008152600401611d8b90613e15565b60405180910390fd5b81846008015f828254611da79190613e33565b92505081905550600160085f8b81526020019081526020015f205f8581526020019081526020015f206002015f6101000a81548160ff02191690831515021790555087846001019081611dfa9190613470565b50836002015f815480929190611e0f90613975565b91905055504260085f8b81526020019081526020015f205f866002015481526020019081526020015f205f018190555082897fd56a11b23d9b4d97988bc90f91ecbdd133a8efd341fd2c9f37f68d5bd34b1b818a604051611e709190613ab2565b60405180910390a3505050505050505050565b6007602052825f5260405f20602052815f5260405f20602052805f5260405f205f925092505050805f018054611eb890612e33565b80601f0160208091040260200160405190810160405280929190818152602001828054611ee490612e33565b8015611f2f5780601f10611f0657610100808354040283529160200191611f2f565b820191905f5260205f20905b815481529060010190602001808311611f1257829003601f168201915b505050505090806001015490806002018054611f4a90612e33565b80601f0160208091040260200160405190810160405280929190818152602001828054611f7690612e33565b8015611fc15780601f10611f9857610100808354040283529160200191611fc1565b820191905f5260205f20905b815481529060010190602001808311611fa457829003601f168201915b505050505090806003015490806004015f9054906101000a900460ff16905085565b60045f8281526020019081526020015f206003015f9054906101000a900460ff16612043576040517f08c379a000000000000000000000000000000000000000000000000000000000815260040161203a90613bec565b60405180910390fd5b60035f3373ffffffffffffffffffffffffffffffffffffffff1673ffffffffffffffffffffffffffffffffffffffff1681526020019081526020015f206001015f9054906101000a900460ff166120cf576040517f08c379a00000000000000000000000000000000000000000000000000000000081526004016120c690613a06565b60405180910390fd5b60035f3373ffffffffffffffffffffffffffffffffffffffff1673ffffffffffffffffffffffffffffffffffffffff1681526020019081526020015f2060010160019054906101000a900460ff1661215c576040517f08c379a000000000000000000000000000000000000000000000000000000000815260040161215390613a94565b60405180910390fd5b60045f8281526020019081526020015f205f015f9054906101000a900473ffffffffffffffffffffffffffffffffffffffff1673ffffffffffffffffffffffffffffffffffffffff163373ffffffffffffffffffffffffffffffffffffffff16036121fc576040517f08c379a00000000000000000000000000000000000000000000000000000000081526004016121f390613eb0565b60405180910390fd5b60065f8281526020019081526020015f205f3373ffffffffffffffffffffffffffffffffffffffff1673ffffffffffffffffffffffffffffffffffffffff1681526020019081526020015f205f9054906101000a900460ff1615612295576040517f08c379a000000000000000000000000000000000000000000000000000000000815260040161228c90613f18565b60405180910390fd5b600160065f8381526020019081526020015f205f3373ffffffffffffffffffffffffffffffffffffffff1673ffffffffffffffffffffffffffffffffffffffff1681526020019081526020015f205f6101000a81548160ff02191690831515021790555060045f8281526020019081526020015f206009015f81548092919061231d90613975565b91905055503373ffffffffffffffffffffffffffffffffffffffff16817f7dd8cb04159701bc1976c246434d7d96812782e7489e6c5c34db49a388fe9e8060405160405180910390a350565b600381565b5f604051905090565b5f5ffd5b5f5ffd5b5f73ffffffffffffffffffffffffffffffffffffffff82169050919050565b5f6123a88261237f565b9050919050565b6123b88161239e565b81146123c2575f5ffd5b50565b5f813590506123d3816123af565b92915050565b5f602082840312156123ee576123ed612377565b5b5f6123fb848285016123c5565b91505092915050565b5f819050919050565b61241681612404565b82525050565b5f60208201905061242f5f83018461240d565b92915050565b5f81519050919050565b5f82825260208201905092915050565b8281835e5f83830152505050565b5f601f19601f8301169050919050565b5f61247782612435565b612481818561243f565b935061249181856020860161244f565b61249a8161245d565b840191505092915050565b5f8115159050919050565b6124b9816124a5565b82525050565b5f6060820190508181035f8301526124d7818661246d565b90506124e660208301856124b0565b6124f360408301846124b0565b949350505050565b61250481612404565b811461250e575f5ffd5b50565b5f8135905061251f816124fb565b92915050565b5f6020828403121561253a57612539612377565b5b5f61254784828501612511565b91505092915050565b6125598161239e565b82525050565b5f610140820190506125735f83018d612550565b8181036020830152612585818c61246d565b9050612594604083018b61240d565b6125a1606083018a6124b0565b81810360808301526125b3818961246d565b905081810360a08301526125c7818861246d565b905081810360c08301526125db818761246d565b90506125ea60e083018661240d565b6125f861010083018561240d565b61260661012083018461240d565b9b9a5050505050505050505050565b5f6020820190506126285f8301846124b0565b92915050565b5f5ffd5b5f5ffd5b7f4e487b71000000000000000000000000000000000000000000000000000000005f52604160045260245ffd5b61266c8261245d565b810181811067ffffffffffffffff8211171561268b5761268a612636565b5b80604052505050565b5f61269d61236e565b90506126a98282612663565b919050565b5f67ffffffffffffffff8211156126c8576126c7612636565b5b6126d18261245d565b9050602081019050919050565b828183375f83830152505050565b5f6126fe6126f9846126ae565b612694565b90508281526020810184848401111561271a57612719612632565b5b6127258482856126de565b509392505050565b5f82601f8301126127415761274061262e565b5b81356127518482602086016126ec565b91505092915050565b5f6020828403121561276f5761276e612377565b5b5f82013567ffffffffffffffff81111561278c5761278b61237b565b5b6127988482850161272d565b91505092915050565b5f6020820190506127b45f830184612550565b92915050565b5f5f604083850312156127d0576127cf612377565b5b5f6127dd85828601612511565b92505060206127ee85828601612511565b9150509250929050565b5f60808201905061280b5f83018761240d565b612818602083018661240d565b61282560408301856124b0565b612832606083018461240d565b95945050505050565b5f819050919050565b61284d8161283b565b8114612857575f5ffd5b50565b5f8135905061286881612844565b92915050565b5f67ffffffffffffffff82111561288857612887612636565b5b6128918261245d565b9050602081019050919050565b5f6128b06128ab8461286e565b612694565b9050828152602081018484840111156128cc576128cb612632565b5b6128d78482856126de565b509392505050565b5f82601f8301126128f3576128f261262e565b5b813561290384826020860161289e565b91505092915050565b5f5f5f5f6080858703121561292457612923612377565b5b5f61293187828801612511565b945050602085013567ffffffffffffffff8111156129525761295161237b565b5b61295e8782880161272d565b935050604061296f8782880161285a565b925050606085013567ffffffffffffffff8111156129905761298f61237b565b5b61299c878288016128df565b91505092959194509250565b5f5f5f5f608085870312156129c0576129bf612377565b5b5f85013567ffffffffffffffff8111156129dd576129dc61237b565b5b6129e98782880161272d565b945050602085013567ffffffffffffffff811115612a0a57612a0961237b565b5b612a168782880161272d565b935050604085013567ffffffffffffffff811115612a3757612a3661237b565b5b612a438782880161272d565b925050606085013567ffffffffffffffff811115612a6457612a6361237b565b5b612a708782880161272d565b91505092959194509250565b5f5f60408385031215612a9257612a91612377565b5b5f612a9f85828601612511565b9250506020612ab0858286016123c5565b9150509250929050565b5f67ffffffffffffffff821115612ad457612ad3612636565b5b602082029050602081019050919050565b5f5ffd5b5f612afb612af684612aba565b612694565b90508083825260208201905060208402830185811115612b1e57612b1d612ae5565b5b835b81811015612b475780612b3388826123c5565b845260208401935050602081019050612b20565b5050509392505050565b5f82601f830112612b6557612b6461262e565b5b8135612b75848260208601612ae9565b91505092915050565b5f67ffffffffffffffff821115612b9857612b97612636565b5b602082029050602081019050919050565b5f612bbb612bb684612b7e565b612694565b90508083825260208201905060208402830185811115612bde57612bdd612ae5565b5b835b81811015612c075780612bf38882612511565b845260208401935050602081019050612be0565b5050509392505050565b5f82601f830112612c2557612c2461262e565b5b8135612c35848260208601612ba9565b91505092915050565b5f5f5f5f60808587031215612c5657612c55612377565b5b5f612c6387828801612511565b945050602085013567ffffffffffffffff811115612c8457612c8361237b565b5b612c908782880161272d565b935050604085013567ffffffffffffffff811115612cb157612cb061237b565b5b612cbd87828801612b51565b925050606085013567ffffffffffffffff811115612cde57612cdd61237b565b5b612cea87828801612c11565b91505092959194509250565b5f5f5f60608486031215612d0d57612d0c612377565b5b5f612d1a86828701612511565b9350506020612d2b86828701612511565b9250506040612d3c868287016123c5565b9150509250925092565b612d4f8161283b565b82525050565b5f81519050919050565b5f82825260208201905092915050565b5f612d7982612d55565b612d838185612d5f565b9350612d9381856020860161244f565b612d9c8161245d565b840191505092915050565b5f60a0820190508181035f830152612dbf818861246d565b9050612dce6020830187612d46565b8181036040830152612de08186612d6f565b9050612def606083018561240d565b612dfc60808301846124b0565b9695505050505050565b7f4e487b71000000000000000000000000000000000000000000000000000000005f52602260045260245ffd5b5f6002820490506001821680612e4a57607f821691505b602082108103612e5d57612e5c612e06565b5b50919050565b7f4e487b71000000000000000000000000000000000000000000000000000000005f52601160045260245ffd5b5f612e9a82612404565b9150612ea583612404565b9250828201905080821115612ebd57612ebc612e63565b5b92915050565b7f4e6f74207468652070726f6a65637420696e69746961746f72000000000000005f82015250565b5f612ef760198361243f565b9150612f0282612ec3565b602082019050919050565b5f6020820190508181035f830152612f2481612eeb565b9050919050565b7f50726f6a656374206973206e6f206c6f6e6765722061637469766500000000005f82015250565b5f612f5f601b8361243f565b9150612f6a82612f2b565b602082019050919050565b5f6020820190508181035f830152612f8c81612f53565b9050919050565b5f81905092915050565b50565b5f612fab5f83612f93565b9150612fb682612f9d565b5f82019050919050565b5f612fca82612fa0565b9150819050919050565b7f526566756e64206661696c6564000000000000000000000000000000000000005f82015250565b5f613008600d8361243f565b915061301382612fd4565b602082019050919050565b5f6020820190508181035f83015261303581612ffc565b9050919050565b5f819050815f5260205f209050919050565b5f815461305a81612e33565b613064818661243f565b9450600182165f811461307e5760018114613094576130c6565b60ff1983168652811515602002860193506130c6565b61309d8561303c565b5f5b838110156130be5781548189015260018201915060208101905061309f565b808801955050505b50505092915050565b5f6040820190506130e25f83018561240d565b81810360208301526130f4818461304e565b90509392505050565b7f44494420737472696e672063616e6e6f7420626520656d7074790000000000005f82015250565b5f613131601a8361243f565b915061313c826130fd565b602082019050919050565b5f6020820190508181035f83015261315e81613125565b9050919050565b7f596f75722077616c6c657420616c7265616479206861732061207265676973745f8201527f6572656420444944000000000000000000000000000000000000000000000000602082015250565b5f6131bf60288361243f565b91506131ca82613165565b604082019050919050565b5f6020820190508181035f8301526131ec816131b3565b9050919050565b5f81905092915050565b5f61320782612435565b61321181856131f3565b935061322181856020860161244f565b80840191505092915050565b5f61323882846131fd565b915081905092915050565b7f54686973204449442068617320616c7265616479206265656e20636c61696d655f8201527f6420627920616e6f746865722077616c6c657400000000000000000000000000602082015250565b5f61329d60338361243f565b91506132a882613243565b604082019050919050565b5f6020820190508181035f8301526132ca81613291565b9050919050565b5f6020601f8301049050919050565b5f82821b905092915050565b5f6008830261331b7fffffffffffffffffffffffffffffffffffffffffffffffffffffffffffffffff826132e0565b61332586836132e0565b95508019841693508086168417925050509392505050565b5f819050919050565b5f61336061335b61335684612404565b61333d565b612404565b9050919050565b5f819050919050565b61337983613346565b61338d61338582613367565b8484546132ec565b825550505050565b5f5f905090565b6133a4613395565b6133af818484613370565b505050565b5f5b828110156133d5576133ca5f82840161339c565b6001810190506133b6565b505050565b601f8211156134285782821115613427576133f48161303c565b6133fd836132d1565b613406856132d1565b6020861015613413575f90505b808301613422828403826133b4565b505050505b5b505050565b5f82821c905092915050565b5f6134485f198460080261342d565b1980831691505092915050565b5f6134608383613439565b9150826002028217905092915050565b61347982612435565b67ffffffffffffffff81111561349257613491612636565b5b61349c8254612e33565b6134a78282856133da565b5f60209050601f8311600181146134d8575f84156134c6578287015190505b6134d08582613455565b865550613537565b601f1984166134e68661303c565b5f5b8281101561350d578489015182556001820191506020850194506020810190506134e8565b8683101561352a5784890151613526601f891682613439565b8355505b6001600288020188555050505b505050505050565b7f4f6e6c7920746865204665644c616e67205465616d2063616e206578656375745f8201527f6520746869730000000000000000000000000000000000000000000000000000602082015250565b5f61359960268361243f565b91506135a48261353f565b604082019050919050565b5f6020820190508181035f8301526135c68161358d565b9050919050565b7f5061727469636970616e7420686173206e6f74207265676973746572656420615f8201527f2044494400000000000000000000000000000000000000000000000000000000602082015250565b5f61362760248361243f565b9150613632826135cd565b604082019050919050565b5f6020820190508181035f8301526136548161361b565b9050919050565b7f5061727469636970616e7420697320616c7265616479207665726966696564005f82015250565b5f61368f601f8361243f565b915061369a8261365b565b602082019050919050565b5f6020820190508181035f8301526136bc81613683565b9050919050565b5f6020820190508181035f8301526136db818461304e565b905092915050565b7f486173206e6f74206a6f696e6564207468652070726f6a6563740000000000005f82015250565b5f613717601a8361243f565b9150613722826136e3565b602082019050919050565b5f6020820190508181035f8301526137448161370b565b9050919050565b7f596f757220706c6174666f726d206964656e7469747920697320696e76616c695f8201527f6400000000000000000000000000000000000000000000000000000000000000602082015250565b5f6137a560218361243f565b91506137b08261374b565b604082019050919050565b5f6020820190508181035f8301526137d281613799565b9050919050565b7f416c7265616479207375626d697474656420696e207468697320726f756e64005f82015250565b5f61380d601f8361243f565b9150613818826137d9565b602082019050919050565b5f6020820190508181035f83015261383a81613801565b9050919050565b5f819050815f5260205f209050919050565b601f8211156138a157828211156138a05761386d81613841565b613876836132d1565b61387f856132d1565b602086101561388c575f90505b80830161389b828403826133b4565b505050505b5b505050565b6138af82612d55565b67ffffffffffffffff8111156138c8576138c7612636565b5b6138d28254612e33565b6138dd828285613853565b5f60209050601f83116001811461390e575f84156138fc578287015190505b6139068582613455565b86555061396d565b601f19841661391c86613841565b5f5b828110156139435784890151825560018201915060208501945060208101905061391e565b86831015613960578489015161395c601f891682613439565b8355505b6001600288020188555050505b505050505050565b5f61397f82612404565b91507fffffffffffffffffffffffffffffffffffffffffffffffffffffffffffffffff82036139b1576139b0612e63565b5b600182019050919050565b7f506c6561736520726567697374657220796f75722044494420666972737400005f82015250565b5f6139f0601e8361243f565b91506139fb826139bc565b602082019050919050565b5f6020820190508181035f830152613a1d816139e4565b9050919050565b7f596f75722044494420686173206e6f74206265656e20766572696669656420625f8201527f7920746865204665644c616e67205465616d0000000000000000000000000000602082015250565b5f613a7e60328361243f565b9150613a8982613a24565b604082019050919050565b5f6020820190508181035f830152613aab81613a72565b9050919050565b5f6020820190508181035f830152613aca818461246d565b905092915050565b7f4e6f207265776172642062616c616e636520617661696c61626c6500000000005f82015250565b5f613b06601b8361243f565b9150613b1182613ad2565b602082019050919050565b5f6020820190508181035f830152613b3381613afa565b9050919050565b7f5472616e73666572206661696c656400000000000000000000000000000000005f82015250565b5f613b6e600f8361243f565b9150613b7982613b3a565b602082019050919050565b5f6020820190508181035f830152613b9b81613b62565b9050919050565b7f50726f6a656374206973206e6f742061637469766500000000000000000000005f82015250565b5f613bd660158361243f565b9150613be182613ba2565b602082019050919050565b5f6020820190508181035f830152613c0381613bca565b9050919050565b7f44617461206973206f7574206f662073796e63000000000000000000000000005f82015250565b5f613c3e60138361243f565b9150613c4982613c0a565b602082019050919050565b5f6020820190508181035f830152613c6b81613c32565b9050919050565b7f4167677265676174696f6e20726571756972656d656e747320617265206e6f745f8201527f206d657400000000000000000000000000000000000000000000000000000000602082015250565b5f613ccc60248361243f565b9150613cd782613c72565b604082019050919050565b5f6020820190508181035f830152613cf981613cc0565b9050919050565b7f4e487b71000000000000000000000000000000000000000000000000000000005f52603260045260245ffd5b5f613d3782612404565b9150613d4283612404565b9250828202613d5081612404565b91508282048414831517613d6757613d66612e63565b5b5092915050565b7f4e487b71000000000000000000000000000000000000000000000000000000005f52601260045260245ffd5b5f613da582612404565b9150613db083612404565b925082613dc057613dbf613d6e565b5b828204905092915050565b7f496e73756666696369656e742070726f6a6563742062756467657421000000005f82015250565b5f613dff601c8361243f565b9150613e0a82613dcb565b602082019050919050565b5f6020820190508181035f830152613e2c81613df3565b9050919050565b5f613e3d82612404565b9150613e4883612404565b9250828203905081811115613e6057613e5f612e63565b5b92915050565b7f496e69746961746f72206973206e6f7420616c6c6f77656420746f206a6f696e5f82015250565b5f613e9a60208361243f565b9150613ea582613e66565b602082019050919050565b5f6020820190508181035f830152613ec781613e8e565b9050919050565b7f416c7265616479206a6f696e65640000000000000000000000000000000000005f82015250565b5f613f02600e8361243f565b9150613f0d82613ece565b602082019050919050565b5f6020820190508181035f830152613f2f81613ef6565b905091905056fea2646970667358221220728ad85f4badf2294257033616cc184ecf2280867cf3f4b4a1370f4e82ab7ca964736f6c63430008210033",
        "linkReferences": {}
    },
    "methodIdentifiers": {
        "MIN_CLIENTS()": "f0432cdc",
        "REWARD_PER_ROUND()": "10aab5ff",
        "TOTAL_CLIENTS()": "6e126d55",
        "canAggregate(uint256)": "14333f8e",
        "contributions(uint256,uint256,address)": "db051e04",
        "createProject(string,string,string,string)": "a26ac375",
        "didToAddress(string)": "6ba1f4a4",
        "finalizeProject(uint256)": "4d798de5",
        "finalizeRound(uint256,string,address[],uint256[])": "d37f8c6c",
        "isRegistered(uint256,address)": "b81f6e18",
        "joinProject(uint256)": "df98e5f9",
        "participants(address)": "09e69ede",
        "platformAdmin()": "cdcd7fb5",
        "projectCount()": "36fbad26",
        "projectRounds(uint256,uint256)": "890cadf0",
        "projects(uint256)": "107046bd",
        "registerDID(string)": "570810e2",
        "rewards(address)": "0700037d",
        "submitUpdate(uint256,string,bytes32,bytes)": "9ca7938e",
        "verifyParticipant(address)": "643a7695",
        "withdrawRewards()": "c7b8981c"
    },
    "id": 21
}