{
    "abi": [
        {
            "type": "function",
            "name": "MIN_CLIENTS",
            "inputs": [],
            "outputs": [
                {
                    "name": "",
                    "type": "uint256",
                    "internalType": "uint256"
                }
            ],
            "stateMutability": "view"
        },
        {
            "type": "function",
            "name": "TOTAL_CLIENTS",
            "inputs": [],
            "outputs": [
                {
                    "name": "",
                    "type": "uint256",
                    "internalType": "uint256"
                }
            ],
            "stateMutability": "view"
        },
        {
            "type": "function",
            "name": "canAggregate",
            "inputs": [
                {
                    "name": "_projectId",
                    "type": "uint256",
                    "internalType": "uint256"
                }
            ],
            "outputs": [
                {
                    "name": "",
                    "type": "bool",
                    "internalType": "bool"
                }
            ],
            "stateMutability": "view"
        },
        {
            "type": "function",
            "name": "contributions",
            "inputs": [
                {
                    "name": "",
                    "type": "uint256",
                    "internalType": "uint256"
                },
                {
                    "name": "",
                    "type": "uint256",
                    "internalType": "uint256"
                },
                {
                    "name": "",
                    "type": "address",
                    "internalType": "address"
                }
            ],
            "outputs": [
                {
                    "name": "modelUpdateCID",
                    "type": "string",
                    "internalType": "string"
                },
                {
                    "name": "contentHash",
                    "type": "bytes32",
                    "internalType": "bytes32"
                },
                {
                    "name": "signature",
                    "type": "bytes",
                    "internalType": "bytes"
                },
                {
                    "name": "timestamp",
                    "type": "uint256",
                    "internalType": "uint256"
                },
                {
                    "name": "exists",
                    "type": "bool",
                    "internalType": "bool"
                }
            ],
            "stateMutability": "view"
        },
        {
            "type": "function",
            "name": "createProject",
            "inputs": [
                {
                    "name": "_initialModelCID",
                    "type": "string",
                    "internalType": "string"
                },
                {
                    "name": "_name",
                    "type": "string",
                    "internalType": "string"
                },
                {
                    "name": "_description",
                    "type": "string",
                    "internalType": "string"
                },
                {
                    "name": "_modelName",
                    "type": "string",
                    "internalType": "string"
                }
            ],
            "outputs": [],
            "stateMutability": "nonpayable"
        },
        {
            "type": "function",
            "name": "finalizeProject",
            "inputs": [
                {
                    "name": "_projectId",
                    "type": "uint256",
                    "internalType": "uint256"
                }
            ],
            "outputs": [],
            "stateMutability": "nonpayable"
        },
        {
            "type": "function",
            "name": "finalizeRound",
            "inputs": [
                {
                    "name": "_projectId",
                    "type": "uint256",
                    "internalType": "uint256"
                },
                {
                    "name": "_newGlobalModelCID",
                    "type": "string",
                    "internalType": "string"
                }
            ],
            "outputs": [],
            "stateMutability": "nonpayable"
        },
        {
            "type": "function",
            "name": "isRegistered",
            "inputs": [
                {
                    "name": "",
                    "type": "uint256",
                    "internalType": "uint256"
                },
                {
                    "name": "",
                    "type": "address",
                    "internalType": "address"
                }
            ],
            "outputs": [
                {
                    "name": "",
                    "type": "bool",
                    "internalType": "bool"
                }
            ],
            "stateMutability": "view"
        },
        {
            "type": "function",
            "name": "joinProject",
            "inputs": [
                {
                    "name": "_projectId",
                    "type": "uint256",
                    "internalType": "uint256"
                }
            ],
            "outputs": [],
            "stateMutability": "nonpayable"
        },
        {
            "type": "function",
            "name": "participants",
            "inputs": [
                {
                    "name": "",
                    "type": "address",
                    "internalType": "address"
                }
            ],
            "outputs": [
                {
                    "name": "did",
                    "type": "string",
                    "internalType": "string"
                },
                {
                    "name": "isRegistered",
                    "type": "bool",
                    "internalType": "bool"
                }
            ],
            "stateMutability": "view"
        },
        {
            "type": "function",
            "name": "projectCount",
            "inputs": [],
            "outputs": [
                {
                    "name": "",
                    "type": "uint256",
                    "internalType": "uint256"
                }
            ],
            "stateMutability": "view"
        },
        {
            "type": "function",
            "name": "projectRounds",
            "inputs": [
                {
                    "name": "",
                    "type": "uint256",
                    "internalType": "uint256"
                },
                {
                    "name": "",
                    "type": "uint256",
                    "internalType": "uint256"
                }
            ],
            "outputs": [
                {
                    "name": "startTime",
                    "type": "uint256",
                    "internalType": "uint256"
                },
                {
                    "name": "submissionCount",
                    "type": "uint256",
                    "internalType": "uint256"
                },
                {
                    "name": "finalized",
                    "type": "bool",
                    "internalType": "bool"
                }
            ],
            "stateMutability": "view"
        },
        {
            "type": "function",
            "name": "projects",
            "inputs": [
                {
                    "name": "",
                    "type": "uint256",
                    "internalType": "uint256"
                }
            ],
            "outputs": [
                {
                    "name": "initiator",
                    "type": "address",
                    "internalType": "address"
                },
                {
                    "name": "globalModelCID",
                    "type": "string",
                    "internalType": "string"
                },
                {
                    "name": "roundNumber",
                    "type": "uint256",
                    "internalType": "uint256"
                },
                {
                    "name": "isActive",
                    "type": "bool",
                    "internalType": "bool"
                },
                {
                    "name": "name",
                    "type": "string",
                    "internalType": "string"
                },
                {
                    "name": "description",
                    "type": "string",
                    "internalType": "string"
                },
                {
                    "name": "modelName",
                    "type": "string",
                    "internalType": "string"
                }
            ],
            "stateMutability": "view"
        },
        {
            "type": "function",
            "name": "registerDID",
            "inputs": [
                {
                    "name": "_did",
                    "type": "string",
                    "internalType": "string"
                }
            ],
            "outputs": [],
            "stateMutability": "nonpayable"
        },
        {
            "type": "function",
            "name": "submitUpdate",
            "inputs": [
                {
                    "name": "_projectId",
                    "type": "uint256",
                    "internalType": "uint256"
                },
                {
                    "name": "_modelUpdateCID",
                    "type": "string",
                    "internalType": "string"
                },
                {
                    "name": "_contentHash",
                    "type": "bytes32",
                    "internalType": "bytes32"
                },
                {
                    "name": "_signature",
                    "type": "bytes",
                    "internalType": "bytes"
                }
            ],
            "outputs": [],
            "stateMutability": "nonpayable"
        },
        {
            "type": "event",
            "name": "ContributionSubmitted",
            "inputs": [
                {
                    "name": "projectId",
                    "type": "uint256",
                    "indexed": true,
                    "internalType": "uint256"
                },
                {
                    "name": "round",
                    "type": "uint256",
                    "indexed": true,
                    "internalType": "uint256"
                },
                {
                    "name": "participant",
                    "type": "address",
                    "indexed": true,
                    "internalType": "address"
                }
            ],
            "anonymous": false
        },
        {
            "type": "event",
            "name": "ParticipantJoined",
            "inputs": [
                {
                    "name": "projectId",
                    "type": "uint256",
                    "indexed": true,
                    "internalType": "uint256"
                },
                {
                    "name": "participant",
                    "type": "address",
                    "indexed": true,
                    "internalType": "address"
                }
            ],
            "anonymous": false
        },
        {
            "type": "event",
            "name": "ProjectCreated",
            "inputs": [
                {
                    "name": "projectId",
                    "type": "uint256",
                    "indexed": true,
                    "internalType": "uint256"
                },
                {
                    "name": "initiator",
                    "type": "address",
                    "indexed": true,
                    "internalType": "address"
                },
                {
                    "name": "initialCID",
                    "type": "string",
                    "indexed": false,
                    "internalType": "string"
                }
            ],
            "anonymous": false
        },
        {
            "type": "event",
            "name": "ProjectFinalized",
            "inputs": [
                {
                    "name": "projectId",
                    "type": "uint256",
                    "indexed": true,
                    "internalType": "uint256"
                },
                {
                    "name": "finalRound",
                    "type": "uint256",
                    "indexed": false,
                    "internalType": "uint256"
                },
                {
                    "name": "finalModelCID",
                    "type": "string",
                    "indexed": false,
                    "internalType": "string"
                }
            ],
            "anonymous": false
        },
        {
            "type": "event",
            "name": "RoundFinalized",
            "inputs": [
                {
                    "name": "projectId",
                    "type": "uint256",
                    "indexed": true,
                    "internalType": "uint256"
                },
                {
                    "name": "round",
                    "type": "uint256",
                    "indexed": true,
                    "internalType": "uint256"
                },
                {
                    "name": "newGlobalCID",
                    "type": "string",
                    "indexed": false,
                    "internalType": "string"
                }
            ],
            "anonymous": false
        }
    ],
    "bytecode": {
        "object": "0x6080604052348015600e575f5ffd5b506125ea8061001c5f395ff3fe608060405234801561000f575f5ffd5b50600436106100f3575f3560e01c8063890cadf011610095578063b81f6e1811610064578063b81f6e1814610288578063db051e04146102b8578063df98e5f9146102ec578063f0432cdc14610308576100f3565b8063890cadf01461020257806398b29a96146102345780639ca7938e14610250578063a26ac3751461026c576100f3565b806336fbad26116100d157806336fbad261461018e5780634d798de5146101ac578063570810e2146101c85780636e126d55146101e4576100f3565b806309e69ede146100f7578063107046bd1461012857806314333f8e1461015e575b5f5ffd5b610111600480360381019061010c9190611511565b610326565b60405161011f9291906115c6565b60405180910390f35b610142600480360381019061013d9190611627565b6103d8565b6040516101559796959493929190611670565b60405180910390f35b61017860048036038101906101739190611627565b610659565b60405161018591906116f9565b60405180910390f35b6101966106c1565b6040516101a39190611712565b60405180910390f35b6101c660048036038101906101c19190611627565b6106c6565b005b6101e260048036038101906101dd9190611857565b610857565b005b6101ec6108fe565b6040516101f99190611712565b60405180910390f35b61021c6004803603810190610217919061189e565b610903565b60405161022b939291906118dc565b60405180910390f35b61024e60048036038101906102499190611911565b610940565b005b61026a60048036038101906102659190611a3c565b610b76565b005b61028660048036038101906102819190611ad8565b610e9f565b005b6102a2600480360381019061029d9190611bac565b6110e7565b6040516102af91906116f9565b60405180910390f35b6102d260048036038101906102cd9190611bea565b611111565b6040516102e3959493929190611c9b565b60405180910390f35b61030660048036038101906103019190611627565b611271565b005b6103106114a1565b60405161031d9190611712565b60405180910390f35b6001602052805f5260405f205f91509050805f01805461034590611d27565b80601f016020809104026020016040519081016040528092919081815260200182805461037190611d27565b80156103bc5780601f10610393576101008083540402835291602001916103bc565b820191905f5260205f20905b81548152906001019060200180831161039f57829003601f168201915b505050505090806001015f9054906101000a900460ff16905082565b6002602052805f5260405f205f91509050805f015f9054906101000a900473ffffffffffffffffffffffffffffffffffffffff169080600101805461041c90611d27565b80601f016020809104026020016040519081016040528092919081815260200182805461044890611d27565b80156104935780601f1061046a57610100808354040283529160200191610493565b820191905f5260205f20905b81548152906001019060200180831161047657829003601f168201915b505050505090806002015490806003015f9054906101000a900460ff16908060040180546104c090611d27565b80601f01602080910402602001604051908101604052809291908181526020018280546104ec90611d27565b80156105375780601f1061050e57610100808354040283529160200191610537565b820191905f5260205f20905b81548152906001019060200180831161051a57829003601f168201915b50505050509080600501805461054c90611d27565b80601f016020809104026020016040519081016040528092919081815260200182805461057890611d27565b80156105c35780601f1061059a576101008083540402835291602001916105c3565b820191905f5260205f20905b8154815290600101906020018083116105a657829003601f168201915b5050505050908060060180546105d890611d27565b80601f016020809104026020016040519081016040528092919081815260200182805461060490611d27565b801561064f5780601f106106265761010080835404028352916020019161064f565b820191905f5260205f20905b81548152906001019060200180831161063257829003601f168201915b5050505050905087565b5f5f60025f8481526020019081526020015f2090505f60055f8581526020019081526020015f205f836002015481526020019081526020015f2090505f60038260010154101590505f600583600101541015905080806106b65750815b945050505050919050565b5f5481565b803373ffffffffffffffffffffffffffffffffffffffff1660025f8381526020019081526020015f205f015f9054906101000a900473ffffffffffffffffffffffffffffffffffffffff1673ffffffffffffffffffffffffffffffffffffffff1614610767576040517f08c379a000000000000000000000000000000000000000000000000000000000815260040161075e90611da1565b60405180910390fd5b60025f8381526020019081526020015f206003015f9054906101000a900460ff166107c7576040517f08c379a00000000000000000000000000000000000000000000000000000000081526004016107be90611e09565b60405180910390fd5b5f60025f8481526020019081526020015f206003015f6101000a81548160ff021916908315150217905550817f97ace935457fbaa9ea914c812c15b14bb7d41f40cc67c3e65917ac7318537ef860025f8581526020019081526020015f206002015460025f8681526020019081526020015f2060010160405161084b929190611eba565b60405180910390a25050565b8060015f3373ffffffffffffffffffffffffffffffffffffffff1673ffffffffffffffffffffffffffffffffffffffff1681526020019081526020015f205f0190816108a39190612087565b506001805f3373ffffffffffffffffffffffffffffffffffffffff1673ffffffffffffffffffffffffffffffffffffffff1681526020019081526020015f206001015f6101000a81548160ff02191690831515021790555050565b600581565b6005602052815f5260405f20602052805f5260405f205f9150915050805f015490806001015490806002015f9054906101000a900460ff16905083565b813373ffffffffffffffffffffffffffffffffffffffff1660025f8381526020019081526020015f205f015f9054906101000a900473ffffffffffffffffffffffffffffffffffffffff1673ffffffffffffffffffffffffffffffffffffffff16146109e1576040517f08c379a00000000000000000000000000000000000000000000000000000000081526004016109d890611da1565b60405180910390fd5b60025f8481526020019081526020015f206003015f9054906101000a900460ff16610a41576040517f08c379a0000000000000000000000000000000000000000000000000000000008152600401610a3890611e09565b60405180910390fd5b610a4a83610659565b610a89576040517f08c379a0000000000000000000000000000000000000000000000000000000008152600401610a80906121a0565b60405180910390fd5b5f60025f8581526020019081526020015f2090505f81600201549050600160055f8781526020019081526020015f205f8381526020019081526020015f206002015f6101000a81548160ff02191690831515021790555083826001019081610af19190612087565b50816002015f815480929190610b06906121eb565b91905055504260055f8781526020019081526020015f205f846002015481526020019081526020015f205f018190555080857fd56a11b23d9b4d97988bc90f91ecbdd133a8efd341fd2c9f37f68d5bd34b1b8186604051610b679190612232565b60405180910390a35050505050565b60025f8581526020019081526020015f206003015f9054906101000a900460ff16610bd6576040517f08c379a0000000000000000000000000000000000000000000000000000000008152600401610bcd90611e09565b60405180910390fd5b60035f8581526020019081526020015f205f3373ffffffffffffffffffffffffffffffffffffffff1673ffffffffffffffffffffffffffffffffffffffff1681526020019081526020015f205f9054906101000a900460ff16610c6e576040517f08c379a0000000000000000000000000000000000000000000000000000000008152600401610c659061229c565b60405180910390fd5b5f60025f8681526020019081526020015f2090505f8160020154905060045f8781526020019081526020015f205f8281526020019081526020015f205f3373ffffffffffffffffffffffffffffffffffffffff1673ffffffffffffffffffffffffffffffffffffffff1681526020019081526020015f206004015f9054906101000a900460ff1615610d35576040517f08c379a0000000000000000000000000000000000000000000000000000000008152600401610d2c90612304565b60405180910390fd5b6040518060a001604052808681526020018581526020018481526020014281526020016001151581525060045f8881526020019081526020015f205f8381526020019081526020015f205f3373ffffffffffffffffffffffffffffffffffffffff1673ffffffffffffffffffffffffffffffffffffffff1681526020019081526020015f205f820151815f019081610dcd9190612087565b50602082015181600101556040820151816002019081610ded9190612387565b50606082015181600301556080820151816004015f6101000a81548160ff02191690831515021790555090505060055f8781526020019081526020015f205f8281526020019081526020015f206001015f815480929190610e4d906121eb565b91905055503373ffffffffffffffffffffffffffffffffffffffff1681877f0a1434dacefe3f97a915af6e7875e6bcb733eb568e5a033cbc118f05b404e5ae60405160405180910390a4505050505050565b60015f3373ffffffffffffffffffffffffffffffffffffffff1673ffffffffffffffffffffffffffffffffffffffff1681526020019081526020015f206001015f9054906101000a900460ff16610f2b576040517f08c379a0000000000000000000000000000000000000000000000000000000008152600401610f22906124c6565b60405180910390fd5b5f5f815480929190610f3c906121eb565b91905055506040518060e001604052803373ffffffffffffffffffffffffffffffffffffffff168152602001858152602001600181526020016001151581526020018481526020018381526020018281525060025f5f5481526020019081526020015f205f820151815f015f6101000a81548173ffffffffffffffffffffffffffffffffffffffff021916908373ffffffffffffffffffffffffffffffffffffffff1602179055506020820151816001019081610ff99190612087565b50604082015181600201556060820151816003015f6101000a81548160ff02191690831515021790555060808201518160040190816110389190612087565b5060a082015181600501908161104e9190612087565b5060c08201518160060190816110649190612087565b509050504260055f5f5481526020019081526020015f205f600181526020019081526020015f205f01819055503373ffffffffffffffffffffffffffffffffffffffff165f547f9d9ec461f162f3f4fdb9f6d189bfe13c59e48d8acd23a4c3bfcf7cc0fe4e84ed866040516110d99190612232565b60405180910390a350505050565b6003602052815f5260405f20602052805f5260405f205f915091509054906101000a900460ff1681565b6004602052825f5260405f20602052815f5260405f20602052805f5260405f205f925092505050805f01805461114690611d27565b80601f016020809104026020016040519081016040528092919081815260200182805461117290611d27565b80156111bd5780601f10611194576101008083540402835291602001916111bd565b820191905f5260205f20905b8154815290600101906020018083116111a057829003601f168201915b5050505050908060010154908060020180546111d890611d27565b80601f016020809104026020016040519081016040528092919081815260200182805461120490611d27565b801561124f5780601f106112265761010080835404028352916020019161124f565b820191905f5260205f20905b81548152906001019060200180831161123257829003601f168201915b505050505090806003015490806004015f9054906101000a900460ff16905085565b60025f8281526020019081526020015f206003015f9054906101000a900460ff166112d1576040517f08c379a00000000000000000000000000000000000000000000000000000000081526004016112c89061252e565b60405180910390fd5b60015f3373ffffffffffffffffffffffffffffffffffffffff1673ffffffffffffffffffffffffffffffffffffffff1681526020019081526020015f206001015f9054906101000a900460ff1661135d576040517f08c379a0000000000000000000000000000000000000000000000000000000008152600401611354906124c6565b60405180910390fd5b60035f8281526020019081526020015f205f3373ffffffffffffffffffffffffffffffffffffffff1673ffffffffffffffffffffffffffffffffffffffff1681526020019081526020015f205f9054906101000a900460ff16156113f6576040517f08c379a00000000000000000000000000000000000000000000000000000000081526004016113ed90612596565b60405180910390fd5b600160035f8381526020019081526020015f205f3373ffffffffffffffffffffffffffffffffffffffff1673ffffffffffffffffffffffffffffffffffffffff1681526020019081526020015f205f6101000a81548160ff0219169083151502179055503373ffffffffffffffffffffffffffffffffffffffff16817f7dd8cb04159701bc1976c246434d7d96812782e7489e6c5c34db49a388fe9e8060405160405180910390a350565b600381565b5f604051905090565b5f5ffd5b5f5ffd5b5f73ffffffffffffffffffffffffffffffffffffffff82169050919050565b5f6114e0826114b7565b9050919050565b6114f0816114d6565b81146114fa575f5ffd5b50565b5f8135905061150b816114e7565b92915050565b5f60208284031215611526576115256114af565b5b5f611533848285016114fd565b91505092915050565b5f81519050919050565b5f82825260208201905092915050565b8281835e5f83830152505050565b5f601f19601f8301169050919050565b5f61157e8261153c565b6115888185611546565b9350611598818560208601611556565b6115a181611564565b840191505092915050565b5f8115159050919050565b6115c0816115ac565b82525050565b5f6040820190508181035f8301526115de8185611574565b90506115ed60208301846115b7565b9392505050565b5f819050919050565b611606816115f4565b8114611610575f5ffd5b50565b5f81359050611621816115fd565b92915050565b5f6020828403121561163c5761163b6114af565b5b5f61164984828501611613565b91505092915050565b61165b816114d6565b82525050565b61166a816115f4565b82525050565b5f60e0820190506116835f83018a611652565b81810360208301526116958189611574565b90506116a46040830188611661565b6116b160608301876115b7565b81810360808301526116c38186611574565b905081810360a08301526116d78185611574565b905081810360c08301526116eb8184611574565b905098975050505050505050565b5f60208201905061170c5f8301846115b7565b92915050565b5f6020820190506117255f830184611661565b92915050565b5f5ffd5b5f5ffd5b7f4e487b71000000000000000000000000000000000000000000000000000000005f52604160045260245ffd5b61176982611564565b810181811067ffffffffffffffff8211171561178857611787611733565b5b80604052505050565b5f61179a6114a6565b90506117a68282611760565b919050565b5f67ffffffffffffffff8211156117c5576117c4611733565b5b6117ce82611564565b9050602081019050919050565b828183375f83830152505050565b5f6117fb6117f6846117ab565b611791565b9050828152602081018484840111156118175761181661172f565b5b6118228482856117db565b509392505050565b5f82601f83011261183e5761183d61172b565b5b813561184e8482602086016117e9565b91505092915050565b5f6020828403121561186c5761186b6114af565b5b5f82013567ffffffffffffffff811115611889576118886114b3565b5b6118958482850161182a565b91505092915050565b5f5f604083850312156118b4576118b36114af565b5b5f6118c185828601611613565b92505060206118d285828601611613565b9150509250929050565b5f6060820190506118ef5f830186611661565b6118fc6020830185611661565b61190960408301846115b7565b949350505050565b5f5f60408385031215611927576119266114af565b5b5f61193485828601611613565b925050602083013567ffffffffffffffff811115611955576119546114b3565b5b6119618582860161182a565b9150509250929050565b5f819050919050565b61197d8161196b565b8114611987575f5ffd5b50565b5f8135905061199881611974565b92915050565b5f67ffffffffffffffff8211156119b8576119b7611733565b5b6119c182611564565b9050602081019050919050565b5f6119e06119db8461199e565b611791565b9050828152602081018484840111156119fc576119fb61172f565b5b611a078482856117db565b509392505050565b5f82601f830112611a2357611a2261172b565b5b8135611a338482602086016119ce565b91505092915050565b5f5f5f5f60808587031215611a5457611a536114af565b5b5f611a6187828801611613565b945050602085013567ffffffffffffffff811115611a8257611a816114b3565b5b611a8e8782880161182a565b9350506040611a9f8782880161198a565b925050606085013567ffffffffffffffff811115611ac057611abf6114b3565b5b611acc87828801611a0f565b91505092959194509250565b5f5f5f5f60808587031215611af057611aef6114af565b5b5f85013567ffffffffffffffff811115611b0d57611b0c6114b3565b5b611b198782880161182a565b945050602085013567ffffffffffffffff811115611b3a57611b396114b3565b5b611b468782880161182a565b935050604085013567ffffffffffffffff811115611b6757611b666114b3565b5b611b738782880161182a565b925050606085013567ffffffffffffffff811115611b9457611b936114b3565b5b611ba08782880161182a565b91505092959194509250565b5f5f60408385031215611bc257611bc16114af565b5b5f611bcf85828601611613565b9250506020611be0858286016114fd565b9150509250929050565b5f5f5f60608486031215611c0157611c006114af565b5b5f611c0e86828701611613565b9350506020611c1f86828701611613565b9250506040611c30868287016114fd565b9150509250925092565b611c438161196b565b82525050565b5f81519050919050565b5f82825260208201905092915050565b5f611c6d82611c49565b611c778185611c53565b9350611c87818560208601611556565b611c9081611564565b840191505092915050565b5f60a0820190508181035f830152611cb38188611574565b9050611cc26020830187611c3a565b8181036040830152611cd48186611c63565b9050611ce36060830185611661565b611cf060808301846115b7565b9695505050505050565b7f4e487b71000000000000000000000000000000000000000000000000000000005f52602260045260245ffd5b5f6002820490506001821680611d3e57607f821691505b602082108103611d5157611d50611cfa565b5b50919050565b7f42756b616e20696e69736961746f722070726f79656b20696e690000000000005f82015250565b5f611d8b601a83611546565b9150611d9682611d57565b602082019050919050565b5f6020820190508181035f830152611db881611d7f565b9050919050565b7f50726f79656b20737564616820746964616b20616b74696600000000000000005f82015250565b5f611df3601883611546565b9150611dfe82611dbf565b602082019050919050565b5f6020820190508181035f830152611e2081611de7565b9050919050565b5f819050815f5260205f209050919050565b5f8154611e4581611d27565b611e4f8186611546565b9450600182165f8114611e695760018114611e7f57611eb1565b60ff198316865281151560200286019350611eb1565b611e8885611e27565b5f5b83811015611ea957815481890152600182019150602081019050611e8a565b808801955050505b50505092915050565b5f604082019050611ecd5f830185611661565b8181036020830152611edf8184611e39565b90509392505050565b5f6020601f8301049050919050565b5f82821b905092915050565b5f60088302611f327fffffffffffffffffffffffffffffffffffffffffffffffffffffffffffffffff82611ef7565b611f3c8683611ef7565b95508019841693508086168417925050509392505050565b5f819050919050565b5f611f77611f72611f6d846115f4565b611f54565b6115f4565b9050919050565b5f819050919050565b611f9083611f5d565b611fa4611f9c82611f7e565b848454611f03565b825550505050565b5f5f905090565b611fbb611fac565b611fc6818484611f87565b505050565b5f5b82811015611fec57611fe15f828401611fb3565b600181019050611fcd565b505050565b601f82111561203f578282111561203e5761200b81611e27565b61201483611ee8565b61201d85611ee8565b602086101561202a575f90505b80830161203982840382611fcb565b505050505b5b505050565b5f82821c905092915050565b5f61205f5f1984600802612044565b1980831691505092915050565b5f6120778383612050565b9150826002028217905092915050565b6120908261153c565b67ffffffffffffffff8111156120a9576120a8611733565b5b6120b38254611d27565b6120be828285611ff1565b5f60209050601f8311600181146120ef575f84156120dd578287015190505b6120e7858261206c565b86555061214e565b601f1984166120fd86611e27565b5f5b82811015612124578489015182556001820191506020850194506020810190506120ff565b86831015612141578489015161213d601f891682612050565b8355505b6001600288020188555050505b505050505050565b7f5379617261742061677265676173692062656c756d2074657270656e756869005f82015250565b5f61218a601f83611546565b915061219582612156565b602082019050919050565b5f6020820190508181035f8301526121b78161217e565b9050919050565b7f4e487b71000000000000000000000000000000000000000000000000000000005f52601160045260245ffd5b5f6121f5826115f4565b91507fffffffffffffffffffffffffffffffffffffffffffffffffffffffffffffffff8203612227576122266121be565b5b600182019050919050565b5f6020820190508181035f83015261224a8184611574565b905092915050565b7f42656c756d20626572676162756e6700000000000000000000000000000000005f82015250565b5f612286600f83611546565b915061229182612252565b602082019050919050565b5f6020820190508181035f8301526122b38161227a565b9050919050565b7f5375646168207375626d697420646920726f756e6420696e69000000000000005f82015250565b5f6122ee601983611546565b91506122f9826122ba565b602082019050919050565b5f6020820190508181035f83015261231b816122e2565b9050919050565b5f819050815f5260205f209050919050565b601f82111561238257828211156123815761234e81612322565b61235783611ee8565b61236085611ee8565b602086101561236d575f90505b80830161237c82840382611fcb565b505050505b5b505050565b61239082611c49565b67ffffffffffffffff8111156123a9576123a8611733565b5b6123b38254611d27565b6123be828285612334565b5f60209050601f8311600181146123ef575f84156123dd578287015190505b6123e7858261206c565b86555061244e565b601f1984166123fd86612322565b5f5b82811015612424578489015182556001820191506020850194506020810190506123ff565b86831015612441578489015161243d601f891682612050565b8355505b6001600288020188555050505b505050505050565b7f4461667461726b616e2044494420416e6461207465726c6562696820646168755f8201527f6c75000000000000000000000000000000000000000000000000000000000000602082015250565b5f6124b0602283611546565b91506124bb82612456565b604082019050919050565b5f6020820190508181035f8301526124dd816124a4565b9050919050565b7f50726f79656b20746964616b20616b74696600000000000000000000000000005f82015250565b5f612518601283611546565b9150612523826124e4565b602082019050919050565b5f6020820190508181035f8301526125458161250c565b9050919050565b7f537564616820626572676162756e6700000000000000000000000000000000005f82015250565b5f612580600f83611546565b915061258b8261254c565b602082019050919050565b5f6020820190508181035f8301526125ad81612574565b905091905056fea26469706673582212207a22b5e849e5fa7ad4c7c826f0e69be0ec9b6daa00e643e71909b5641d9ae1ff64736f6c63430008210033",
        "linkReferences": {}
    },
    "methodIdentifiers": {
        "MIN_CLIENTS()": "f0432cdc",
        "TOTAL_CLIENTS()": "6e126d55",
        "canAggregate(uint256)": "14333f8e",
        "contributions(uint256,uint256,address)": "db051e04",
        "createProject(string,string,string,string)": "a26ac375",
        "finalizeProject(uint256)": "4d798de5",
        "finalizeRound(uint256,string)": "98b29a96",
        "isRegistered(uint256,address)": "b81f6e18",
        "joinProject(uint256)": "df98e5f9",
        "participants(address)": "09e69ede",
        "projectCount()": "36fbad26",
        "projectRounds(uint256,uint256)": "890cadf0",
        "projects(uint256)": "107046bd",
        "registerDID(string)": "570810e2",
        "submitUpdate(uint256,string,bytes32,bytes)": "9ca7938e"
    },
    "id": 0
}